
spwm.elf:     file format elf32-littlearm

Sections:
Idx Name          Size      VMA       LMA       File off  Algn
  0 .isr_vector   00000188  08000000  08000000  00010000  2**0
                  CONTENTS, ALLOC, LOAD, READONLY, DATA
  1 .text         0000622c  08000188  08000188  00010188  2**3
                  CONTENTS, ALLOC, LOAD, READONLY, CODE
  2 .rodata       00000208  080063b8  080063b8  000163b8  2**3
                  CONTENTS, ALLOC, LOAD, READONLY, DATA
  3 .ARM.extab    00000000  080065c0  080065c0  0002000c  2**0
                  CONTENTS
  4 .ARM          00000000  080065c0  080065c0  0002000c  2**0
                  CONTENTS
  5 .preinit_array 00000000  080065c0  080065c0  0002000c  2**0
                  CONTENTS, ALLOC, LOAD, DATA
  6 .init_array   00000004  080065c0  080065c0  000165c0  2**2
                  CONTENTS, ALLOC, LOAD, DATA
  7 .fini_array   00000004  080065c4  080065c4  000165c4  2**2
                  CONTENTS, ALLOC, LOAD, DATA
  8 .data         0000000c  20000000  080065c8  00020000  2**2
                  CONTENTS, ALLOC, LOAD, DATA
  9 .bss          00000c90  2000000c  080065d4  0002000c  2**2
                  ALLOC
 10 ._user_heap_stack 00000604  20000c9c  080065d4  00020c9c  2**0
                  ALLOC
 11 .ARM.attributes 00000030  00000000  00000000  0002000c  2**0
                  CONTENTS, READONLY
 12 .debug_info   0000e87b  00000000  00000000  0002003c  2**0
                  CONTENTS, READONLY, DEBUGGING
 13 .debug_abbrev 00002023  00000000  00000000  0002e8b7  2**0
                  CONTENTS, READONLY, DEBUGGING
 14 .debug_aranges 00000dd0  00000000  00000000  000308e0  2**3
                  CONTENTS, READONLY, DEBUGGING
 15 .debug_ranges 00000cc8  00000000  00000000  000316b0  2**3
                  CONTENTS, READONLY, DEBUGGING
 16 .debug_macro  0001869f  00000000  00000000  00032378  2**0
                  CONTENTS, READONLY, DEBUGGING
 17 .debug_line   0000b021  00000000  00000000  0004aa17  2**0
                  CONTENTS, READONLY, DEBUGGING
 18 .debug_str    0008edc0  00000000  00000000  00055a38  2**0
                  CONTENTS, READONLY, DEBUGGING
 19 .comment      0000007b  00000000  00000000  000e47f8  2**0
                  CONTENTS, READONLY
 20 .debug_frame  00003dbc  00000000  00000000  000e4874  2**2
                  CONTENTS, READONLY, DEBUGGING

Disassembly of section .text:

08000188 <__do_global_dtors_aux>:
 8000188:	b510      	push	{r4, lr}
 800018a:	4c05      	ldr	r4, [pc, #20]	; (80001a0 <__do_global_dtors_aux+0x18>)
 800018c:	7823      	ldrb	r3, [r4, #0]
 800018e:	b933      	cbnz	r3, 800019e <__do_global_dtors_aux+0x16>
 8000190:	4b04      	ldr	r3, [pc, #16]	; (80001a4 <__do_global_dtors_aux+0x1c>)
 8000192:	b113      	cbz	r3, 800019a <__do_global_dtors_aux+0x12>
 8000194:	4804      	ldr	r0, [pc, #16]	; (80001a8 <__do_global_dtors_aux+0x20>)
 8000196:	f3af 8000 	nop.w
 800019a:	2301      	movs	r3, #1
 800019c:	7023      	strb	r3, [r4, #0]
 800019e:	bd10      	pop	{r4, pc}
 80001a0:	2000000c 	.word	0x2000000c
 80001a4:	00000000 	.word	0x00000000
 80001a8:	0800639c 	.word	0x0800639c

080001ac <frame_dummy>:
 80001ac:	b508      	push	{r3, lr}
 80001ae:	4b03      	ldr	r3, [pc, #12]	; (80001bc <frame_dummy+0x10>)
 80001b0:	b11b      	cbz	r3, 80001ba <frame_dummy+0xe>
 80001b2:	4903      	ldr	r1, [pc, #12]	; (80001c0 <frame_dummy+0x14>)
 80001b4:	4803      	ldr	r0, [pc, #12]	; (80001c4 <frame_dummy+0x18>)
 80001b6:	f3af 8000 	nop.w
 80001ba:	bd08      	pop	{r3, pc}
 80001bc:	00000000 	.word	0x00000000
 80001c0:	20000010 	.word	0x20000010
 80001c4:	0800639c 	.word	0x0800639c

080001c8 <__aeabi_drsub>:
 80001c8:	f081 4100 	eor.w	r1, r1, #2147483648	; 0x80000000
 80001cc:	e002      	b.n	80001d4 <__adddf3>
 80001ce:	bf00      	nop

080001d0 <__aeabi_dsub>:
 80001d0:	f083 4300 	eor.w	r3, r3, #2147483648	; 0x80000000

080001d4 <__adddf3>:
 80001d4:	b530      	push	{r4, r5, lr}
 80001d6:	ea4f 0441 	mov.w	r4, r1, lsl #1
 80001da:	ea4f 0543 	mov.w	r5, r3, lsl #1
 80001de:	ea94 0f05 	teq	r4, r5
 80001e2:	bf08      	it	eq
 80001e4:	ea90 0f02 	teqeq	r0, r2
 80001e8:	bf1f      	itttt	ne
 80001ea:	ea54 0c00 	orrsne.w	ip, r4, r0
 80001ee:	ea55 0c02 	orrsne.w	ip, r5, r2
 80001f2:	ea7f 5c64 	mvnsne.w	ip, r4, asr #21
 80001f6:	ea7f 5c65 	mvnsne.w	ip, r5, asr #21
 80001fa:	f000 80e2 	beq.w	80003c2 <__adddf3+0x1ee>
 80001fe:	ea4f 5454 	mov.w	r4, r4, lsr #21
 8000202:	ebd4 5555 	rsbs	r5, r4, r5, lsr #21
 8000206:	bfb8      	it	lt
 8000208:	426d      	neglt	r5, r5
 800020a:	dd0c      	ble.n	8000226 <__adddf3+0x52>
 800020c:	442c      	add	r4, r5
 800020e:	ea80 0202 	eor.w	r2, r0, r2
 8000212:	ea81 0303 	eor.w	r3, r1, r3
 8000216:	ea82 0000 	eor.w	r0, r2, r0
 800021a:	ea83 0101 	eor.w	r1, r3, r1
 800021e:	ea80 0202 	eor.w	r2, r0, r2
 8000222:	ea81 0303 	eor.w	r3, r1, r3
 8000226:	2d36      	cmp	r5, #54	; 0x36
 8000228:	bf88      	it	hi
 800022a:	bd30      	pophi	{r4, r5, pc}
 800022c:	f011 4f00 	tst.w	r1, #2147483648	; 0x80000000
 8000230:	ea4f 3101 	mov.w	r1, r1, lsl #12
 8000234:	f44f 1c80 	mov.w	ip, #1048576	; 0x100000
 8000238:	ea4c 3111 	orr.w	r1, ip, r1, lsr #12
 800023c:	d002      	beq.n	8000244 <__adddf3+0x70>
 800023e:	4240      	negs	r0, r0
 8000240:	eb61 0141 	sbc.w	r1, r1, r1, lsl #1
 8000244:	f013 4f00 	tst.w	r3, #2147483648	; 0x80000000
 8000248:	ea4f 3303 	mov.w	r3, r3, lsl #12
 800024c:	ea4c 3313 	orr.w	r3, ip, r3, lsr #12
 8000250:	d002      	beq.n	8000258 <__adddf3+0x84>
 8000252:	4252      	negs	r2, r2
 8000254:	eb63 0343 	sbc.w	r3, r3, r3, lsl #1
 8000258:	ea94 0f05 	teq	r4, r5
 800025c:	f000 80a7 	beq.w	80003ae <__adddf3+0x1da>
 8000260:	f1a4 0401 	sub.w	r4, r4, #1
 8000264:	f1d5 0e20 	rsbs	lr, r5, #32
 8000268:	db0d      	blt.n	8000286 <__adddf3+0xb2>
 800026a:	fa02 fc0e 	lsl.w	ip, r2, lr
 800026e:	fa22 f205 	lsr.w	r2, r2, r5
 8000272:	1880      	adds	r0, r0, r2
 8000274:	f141 0100 	adc.w	r1, r1, #0
 8000278:	fa03 f20e 	lsl.w	r2, r3, lr
 800027c:	1880      	adds	r0, r0, r2
 800027e:	fa43 f305 	asr.w	r3, r3, r5
 8000282:	4159      	adcs	r1, r3
 8000284:	e00e      	b.n	80002a4 <__adddf3+0xd0>
 8000286:	f1a5 0520 	sub.w	r5, r5, #32
 800028a:	f10e 0e20 	add.w	lr, lr, #32
 800028e:	2a01      	cmp	r2, #1
 8000290:	fa03 fc0e 	lsl.w	ip, r3, lr
 8000294:	bf28      	it	cs
 8000296:	f04c 0c02 	orrcs.w	ip, ip, #2
 800029a:	fa43 f305 	asr.w	r3, r3, r5
 800029e:	18c0      	adds	r0, r0, r3
 80002a0:	eb51 71e3 	adcs.w	r1, r1, r3, asr #31
 80002a4:	f001 4500 	and.w	r5, r1, #2147483648	; 0x80000000
 80002a8:	d507      	bpl.n	80002ba <__adddf3+0xe6>
 80002aa:	f04f 0e00 	mov.w	lr, #0
 80002ae:	f1dc 0c00 	rsbs	ip, ip, #0
 80002b2:	eb7e 0000 	sbcs.w	r0, lr, r0
 80002b6:	eb6e 0101 	sbc.w	r1, lr, r1
 80002ba:	f5b1 1f80 	cmp.w	r1, #1048576	; 0x100000
 80002be:	d31b      	bcc.n	80002f8 <__adddf3+0x124>
 80002c0:	f5b1 1f00 	cmp.w	r1, #2097152	; 0x200000
 80002c4:	d30c      	bcc.n	80002e0 <__adddf3+0x10c>
 80002c6:	0849      	lsrs	r1, r1, #1
 80002c8:	ea5f 0030 	movs.w	r0, r0, rrx
 80002cc:	ea4f 0c3c 	mov.w	ip, ip, rrx
 80002d0:	f104 0401 	add.w	r4, r4, #1
 80002d4:	ea4f 5244 	mov.w	r2, r4, lsl #21
 80002d8:	f512 0f80 	cmn.w	r2, #4194304	; 0x400000
 80002dc:	f080 809a 	bcs.w	8000414 <__adddf3+0x240>
 80002e0:	f1bc 4f00 	cmp.w	ip, #2147483648	; 0x80000000
 80002e4:	bf08      	it	eq
 80002e6:	ea5f 0c50 	movseq.w	ip, r0, lsr #1
 80002ea:	f150 0000 	adcs.w	r0, r0, #0
 80002ee:	eb41 5104 	adc.w	r1, r1, r4, lsl #20
 80002f2:	ea41 0105 	orr.w	r1, r1, r5
 80002f6:	bd30      	pop	{r4, r5, pc}
 80002f8:	ea5f 0c4c 	movs.w	ip, ip, lsl #1
 80002fc:	4140      	adcs	r0, r0
 80002fe:	eb41 0101 	adc.w	r1, r1, r1
 8000302:	f411 1f80 	tst.w	r1, #1048576	; 0x100000
 8000306:	f1a4 0401 	sub.w	r4, r4, #1
 800030a:	d1e9      	bne.n	80002e0 <__adddf3+0x10c>
 800030c:	f091 0f00 	teq	r1, #0
 8000310:	bf04      	itt	eq
 8000312:	4601      	moveq	r1, r0
 8000314:	2000      	moveq	r0, #0
 8000316:	fab1 f381 	clz	r3, r1
 800031a:	bf08      	it	eq
 800031c:	3320      	addeq	r3, #32
 800031e:	f1a3 030b 	sub.w	r3, r3, #11
 8000322:	f1b3 0220 	subs.w	r2, r3, #32
 8000326:	da0c      	bge.n	8000342 <__adddf3+0x16e>
 8000328:	320c      	adds	r2, #12
 800032a:	dd08      	ble.n	800033e <__adddf3+0x16a>
 800032c:	f102 0c14 	add.w	ip, r2, #20
 8000330:	f1c2 020c 	rsb	r2, r2, #12
 8000334:	fa01 f00c 	lsl.w	r0, r1, ip
 8000338:	fa21 f102 	lsr.w	r1, r1, r2
 800033c:	e00c      	b.n	8000358 <__adddf3+0x184>
 800033e:	f102 0214 	add.w	r2, r2, #20
 8000342:	bfd8      	it	le
 8000344:	f1c2 0c20 	rsble	ip, r2, #32
 8000348:	fa01 f102 	lsl.w	r1, r1, r2
 800034c:	fa20 fc0c 	lsr.w	ip, r0, ip
 8000350:	bfdc      	itt	le
 8000352:	ea41 010c 	orrle.w	r1, r1, ip
 8000356:	4090      	lslle	r0, r2
 8000358:	1ae4      	subs	r4, r4, r3
 800035a:	bfa2      	ittt	ge
 800035c:	eb01 5104 	addge.w	r1, r1, r4, lsl #20
 8000360:	4329      	orrge	r1, r5
 8000362:	bd30      	popge	{r4, r5, pc}
 8000364:	ea6f 0404 	mvn.w	r4, r4
 8000368:	3c1f      	subs	r4, #31
 800036a:	da1c      	bge.n	80003a6 <__adddf3+0x1d2>
 800036c:	340c      	adds	r4, #12
 800036e:	dc0e      	bgt.n	800038e <__adddf3+0x1ba>
 8000370:	f104 0414 	add.w	r4, r4, #20
 8000374:	f1c4 0220 	rsb	r2, r4, #32
 8000378:	fa20 f004 	lsr.w	r0, r0, r4
 800037c:	fa01 f302 	lsl.w	r3, r1, r2
 8000380:	ea40 0003 	orr.w	r0, r0, r3
 8000384:	fa21 f304 	lsr.w	r3, r1, r4
 8000388:	ea45 0103 	orr.w	r1, r5, r3
 800038c:	bd30      	pop	{r4, r5, pc}
 800038e:	f1c4 040c 	rsb	r4, r4, #12
 8000392:	f1c4 0220 	rsb	r2, r4, #32
 8000396:	fa20 f002 	lsr.w	r0, r0, r2
 800039a:	fa01 f304 	lsl.w	r3, r1, r4
 800039e:	ea40 0003 	orr.w	r0, r0, r3
 80003a2:	4629      	mov	r1, r5
 80003a4:	bd30      	pop	{r4, r5, pc}
 80003a6:	fa21 f004 	lsr.w	r0, r1, r4
 80003aa:	4629      	mov	r1, r5
 80003ac:	bd30      	pop	{r4, r5, pc}
 80003ae:	f094 0f00 	teq	r4, #0
 80003b2:	f483 1380 	eor.w	r3, r3, #1048576	; 0x100000
 80003b6:	bf06      	itte	eq
 80003b8:	f481 1180 	eoreq.w	r1, r1, #1048576	; 0x100000
 80003bc:	3401      	addeq	r4, #1
 80003be:	3d01      	subne	r5, #1
 80003c0:	e74e      	b.n	8000260 <__adddf3+0x8c>
 80003c2:	ea7f 5c64 	mvns.w	ip, r4, asr #21
 80003c6:	bf18      	it	ne
 80003c8:	ea7f 5c65 	mvnsne.w	ip, r5, asr #21
 80003cc:	d029      	beq.n	8000422 <__adddf3+0x24e>
 80003ce:	ea94 0f05 	teq	r4, r5
 80003d2:	bf08      	it	eq
 80003d4:	ea90 0f02 	teqeq	r0, r2
 80003d8:	d005      	beq.n	80003e6 <__adddf3+0x212>
 80003da:	ea54 0c00 	orrs.w	ip, r4, r0
 80003de:	bf04      	itt	eq
 80003e0:	4619      	moveq	r1, r3
 80003e2:	4610      	moveq	r0, r2
 80003e4:	bd30      	pop	{r4, r5, pc}
 80003e6:	ea91 0f03 	teq	r1, r3
 80003ea:	bf1e      	ittt	ne
 80003ec:	2100      	movne	r1, #0
 80003ee:	2000      	movne	r0, #0
 80003f0:	bd30      	popne	{r4, r5, pc}
 80003f2:	ea5f 5c54 	movs.w	ip, r4, lsr #21
 80003f6:	d105      	bne.n	8000404 <__adddf3+0x230>
 80003f8:	0040      	lsls	r0, r0, #1
 80003fa:	4149      	adcs	r1, r1
 80003fc:	bf28      	it	cs
 80003fe:	f041 4100 	orrcs.w	r1, r1, #2147483648	; 0x80000000
 8000402:	bd30      	pop	{r4, r5, pc}
 8000404:	f514 0480 	adds.w	r4, r4, #4194304	; 0x400000
 8000408:	bf3c      	itt	cc
 800040a:	f501 1180 	addcc.w	r1, r1, #1048576	; 0x100000
 800040e:	bd30      	popcc	{r4, r5, pc}
 8000410:	f001 4500 	and.w	r5, r1, #2147483648	; 0x80000000
 8000414:	f045 41fe 	orr.w	r1, r5, #2130706432	; 0x7f000000
 8000418:	f441 0170 	orr.w	r1, r1, #15728640	; 0xf00000
 800041c:	f04f 0000 	mov.w	r0, #0
 8000420:	bd30      	pop	{r4, r5, pc}
 8000422:	ea7f 5c64 	mvns.w	ip, r4, asr #21
 8000426:	bf1a      	itte	ne
 8000428:	4619      	movne	r1, r3
 800042a:	4610      	movne	r0, r2
 800042c:	ea7f 5c65 	mvnseq.w	ip, r5, asr #21
 8000430:	bf1c      	itt	ne
 8000432:	460b      	movne	r3, r1
 8000434:	4602      	movne	r2, r0
 8000436:	ea50 3401 	orrs.w	r4, r0, r1, lsl #12
 800043a:	bf06      	itte	eq
 800043c:	ea52 3503 	orrseq.w	r5, r2, r3, lsl #12
 8000440:	ea91 0f03 	teqeq	r1, r3
 8000444:	f441 2100 	orrne.w	r1, r1, #524288	; 0x80000
 8000448:	bd30      	pop	{r4, r5, pc}
 800044a:	bf00      	nop

0800044c <__aeabi_ui2d>:
 800044c:	f090 0f00 	teq	r0, #0
 8000450:	bf04      	itt	eq
 8000452:	2100      	moveq	r1, #0
 8000454:	4770      	bxeq	lr
 8000456:	b530      	push	{r4, r5, lr}
 8000458:	f44f 6480 	mov.w	r4, #1024	; 0x400
 800045c:	f104 0432 	add.w	r4, r4, #50	; 0x32
 8000460:	f04f 0500 	mov.w	r5, #0
 8000464:	f04f 0100 	mov.w	r1, #0
 8000468:	e750      	b.n	800030c <__adddf3+0x138>
 800046a:	bf00      	nop

0800046c <__aeabi_i2d>:
 800046c:	f090 0f00 	teq	r0, #0
 8000470:	bf04      	itt	eq
 8000472:	2100      	moveq	r1, #0
 8000474:	4770      	bxeq	lr
 8000476:	b530      	push	{r4, r5, lr}
 8000478:	f44f 6480 	mov.w	r4, #1024	; 0x400
 800047c:	f104 0432 	add.w	r4, r4, #50	; 0x32
 8000480:	f010 4500 	ands.w	r5, r0, #2147483648	; 0x80000000
 8000484:	bf48      	it	mi
 8000486:	4240      	negmi	r0, r0
 8000488:	f04f 0100 	mov.w	r1, #0
 800048c:	e73e      	b.n	800030c <__adddf3+0x138>
 800048e:	bf00      	nop

08000490 <__aeabi_f2d>:
 8000490:	0042      	lsls	r2, r0, #1
 8000492:	ea4f 01e2 	mov.w	r1, r2, asr #3
 8000496:	ea4f 0131 	mov.w	r1, r1, rrx
 800049a:	ea4f 7002 	mov.w	r0, r2, lsl #28
 800049e:	bf1f      	itttt	ne
 80004a0:	f012 437f 	andsne.w	r3, r2, #4278190080	; 0xff000000
 80004a4:	f093 4f7f 	teqne	r3, #4278190080	; 0xff000000
 80004a8:	f081 5160 	eorne.w	r1, r1, #939524096	; 0x38000000
 80004ac:	4770      	bxne	lr
 80004ae:	f032 427f 	bics.w	r2, r2, #4278190080	; 0xff000000
 80004b2:	bf08      	it	eq
 80004b4:	4770      	bxeq	lr
 80004b6:	f093 4f7f 	teq	r3, #4278190080	; 0xff000000
 80004ba:	bf04      	itt	eq
 80004bc:	f441 2100 	orreq.w	r1, r1, #524288	; 0x80000
 80004c0:	4770      	bxeq	lr
 80004c2:	b530      	push	{r4, r5, lr}
 80004c4:	f44f 7460 	mov.w	r4, #896	; 0x380
 80004c8:	f001 4500 	and.w	r5, r1, #2147483648	; 0x80000000
 80004cc:	f021 4100 	bic.w	r1, r1, #2147483648	; 0x80000000
 80004d0:	e71c      	b.n	800030c <__adddf3+0x138>
 80004d2:	bf00      	nop

080004d4 <__aeabi_ul2d>:
 80004d4:	ea50 0201 	orrs.w	r2, r0, r1
 80004d8:	bf08      	it	eq
 80004da:	4770      	bxeq	lr
 80004dc:	b530      	push	{r4, r5, lr}
 80004de:	f04f 0500 	mov.w	r5, #0
 80004e2:	e00a      	b.n	80004fa <__aeabi_l2d+0x16>

080004e4 <__aeabi_l2d>:
 80004e4:	ea50 0201 	orrs.w	r2, r0, r1
 80004e8:	bf08      	it	eq
 80004ea:	4770      	bxeq	lr
 80004ec:	b530      	push	{r4, r5, lr}
 80004ee:	f011 4500 	ands.w	r5, r1, #2147483648	; 0x80000000
 80004f2:	d502      	bpl.n	80004fa <__aeabi_l2d+0x16>
 80004f4:	4240      	negs	r0, r0
 80004f6:	eb61 0141 	sbc.w	r1, r1, r1, lsl #1
 80004fa:	f44f 6480 	mov.w	r4, #1024	; 0x400
 80004fe:	f104 0432 	add.w	r4, r4, #50	; 0x32
 8000502:	ea5f 5c91 	movs.w	ip, r1, lsr #22
 8000506:	f43f aed8 	beq.w	80002ba <__adddf3+0xe6>
 800050a:	f04f 0203 	mov.w	r2, #3
 800050e:	ea5f 0cdc 	movs.w	ip, ip, lsr #3
 8000512:	bf18      	it	ne
 8000514:	3203      	addne	r2, #3
 8000516:	ea5f 0cdc 	movs.w	ip, ip, lsr #3
 800051a:	bf18      	it	ne
 800051c:	3203      	addne	r2, #3
 800051e:	eb02 02dc 	add.w	r2, r2, ip, lsr #3
 8000522:	f1c2 0320 	rsb	r3, r2, #32
 8000526:	fa00 fc03 	lsl.w	ip, r0, r3
 800052a:	fa20 f002 	lsr.w	r0, r0, r2
 800052e:	fa01 fe03 	lsl.w	lr, r1, r3
 8000532:	ea40 000e 	orr.w	r0, r0, lr
 8000536:	fa21 f102 	lsr.w	r1, r1, r2
 800053a:	4414      	add	r4, r2
 800053c:	e6bd      	b.n	80002ba <__adddf3+0xe6>
 800053e:	bf00      	nop

08000540 <__aeabi_dmul>:
 8000540:	b570      	push	{r4, r5, r6, lr}
 8000542:	f04f 0cff 	mov.w	ip, #255	; 0xff
 8000546:	f44c 6ce0 	orr.w	ip, ip, #1792	; 0x700
 800054a:	ea1c 5411 	ands.w	r4, ip, r1, lsr #20
 800054e:	bf1d      	ittte	ne
 8000550:	ea1c 5513 	andsne.w	r5, ip, r3, lsr #20
 8000554:	ea94 0f0c 	teqne	r4, ip
 8000558:	ea95 0f0c 	teqne	r5, ip
 800055c:	f000 f8de 	bleq	800071c <__aeabi_dmul+0x1dc>
 8000560:	442c      	add	r4, r5
 8000562:	ea81 0603 	eor.w	r6, r1, r3
 8000566:	ea21 514c 	bic.w	r1, r1, ip, lsl #21
 800056a:	ea23 534c 	bic.w	r3, r3, ip, lsl #21
 800056e:	ea50 3501 	orrs.w	r5, r0, r1, lsl #12
 8000572:	bf18      	it	ne
 8000574:	ea52 3503 	orrsne.w	r5, r2, r3, lsl #12
 8000578:	f441 1180 	orr.w	r1, r1, #1048576	; 0x100000
 800057c:	f443 1380 	orr.w	r3, r3, #1048576	; 0x100000
 8000580:	d038      	beq.n	80005f4 <__aeabi_dmul+0xb4>
 8000582:	fba0 ce02 	umull	ip, lr, r0, r2
 8000586:	f04f 0500 	mov.w	r5, #0
 800058a:	fbe1 e502 	umlal	lr, r5, r1, r2
 800058e:	f006 4200 	and.w	r2, r6, #2147483648	; 0x80000000
 8000592:	fbe0 e503 	umlal	lr, r5, r0, r3
 8000596:	f04f 0600 	mov.w	r6, #0
 800059a:	fbe1 5603 	umlal	r5, r6, r1, r3
 800059e:	f09c 0f00 	teq	ip, #0
 80005a2:	bf18      	it	ne
 80005a4:	f04e 0e01 	orrne.w	lr, lr, #1
 80005a8:	f1a4 04ff 	sub.w	r4, r4, #255	; 0xff
 80005ac:	f5b6 7f00 	cmp.w	r6, #512	; 0x200
 80005b0:	f564 7440 	sbc.w	r4, r4, #768	; 0x300
 80005b4:	d204      	bcs.n	80005c0 <__aeabi_dmul+0x80>
 80005b6:	ea5f 0e4e 	movs.w	lr, lr, lsl #1
 80005ba:	416d      	adcs	r5, r5
 80005bc:	eb46 0606 	adc.w	r6, r6, r6
 80005c0:	ea42 21c6 	orr.w	r1, r2, r6, lsl #11
 80005c4:	ea41 5155 	orr.w	r1, r1, r5, lsr #21
 80005c8:	ea4f 20c5 	mov.w	r0, r5, lsl #11
 80005cc:	ea40 505e 	orr.w	r0, r0, lr, lsr #21
 80005d0:	ea4f 2ece 	mov.w	lr, lr, lsl #11
 80005d4:	f1b4 0cfd 	subs.w	ip, r4, #253	; 0xfd
 80005d8:	bf88      	it	hi
 80005da:	f5bc 6fe0 	cmphi.w	ip, #1792	; 0x700
 80005de:	d81e      	bhi.n	800061e <__aeabi_dmul+0xde>
 80005e0:	f1be 4f00 	cmp.w	lr, #2147483648	; 0x80000000
 80005e4:	bf08      	it	eq
 80005e6:	ea5f 0e50 	movseq.w	lr, r0, lsr #1
 80005ea:	f150 0000 	adcs.w	r0, r0, #0
 80005ee:	eb41 5104 	adc.w	r1, r1, r4, lsl #20
 80005f2:	bd70      	pop	{r4, r5, r6, pc}
 80005f4:	f006 4600 	and.w	r6, r6, #2147483648	; 0x80000000
 80005f8:	ea46 0101 	orr.w	r1, r6, r1
 80005fc:	ea40 0002 	orr.w	r0, r0, r2
 8000600:	ea81 0103 	eor.w	r1, r1, r3
 8000604:	ebb4 045c 	subs.w	r4, r4, ip, lsr #1
 8000608:	bfc2      	ittt	gt
 800060a:	ebd4 050c 	rsbsgt	r5, r4, ip
 800060e:	ea41 5104 	orrgt.w	r1, r1, r4, lsl #20
 8000612:	bd70      	popgt	{r4, r5, r6, pc}
 8000614:	f441 1180 	orr.w	r1, r1, #1048576	; 0x100000
 8000618:	f04f 0e00 	mov.w	lr, #0
 800061c:	3c01      	subs	r4, #1
 800061e:	f300 80ab 	bgt.w	8000778 <__aeabi_dmul+0x238>
 8000622:	f114 0f36 	cmn.w	r4, #54	; 0x36
 8000626:	bfde      	ittt	le
 8000628:	2000      	movle	r0, #0
 800062a:	f001 4100 	andle.w	r1, r1, #2147483648	; 0x80000000
 800062e:	bd70      	pople	{r4, r5, r6, pc}
 8000630:	f1c4 0400 	rsb	r4, r4, #0
 8000634:	3c20      	subs	r4, #32
 8000636:	da35      	bge.n	80006a4 <__aeabi_dmul+0x164>
 8000638:	340c      	adds	r4, #12
 800063a:	dc1b      	bgt.n	8000674 <__aeabi_dmul+0x134>
 800063c:	f104 0414 	add.w	r4, r4, #20
 8000640:	f1c4 0520 	rsb	r5, r4, #32
 8000644:	fa00 f305 	lsl.w	r3, r0, r5
 8000648:	fa20 f004 	lsr.w	r0, r0, r4
 800064c:	fa01 f205 	lsl.w	r2, r1, r5
 8000650:	ea40 0002 	orr.w	r0, r0, r2
 8000654:	f001 4200 	and.w	r2, r1, #2147483648	; 0x80000000
 8000658:	f021 4100 	bic.w	r1, r1, #2147483648	; 0x80000000
 800065c:	eb10 70d3 	adds.w	r0, r0, r3, lsr #31
 8000660:	fa21 f604 	lsr.w	r6, r1, r4
 8000664:	eb42 0106 	adc.w	r1, r2, r6
 8000668:	ea5e 0e43 	orrs.w	lr, lr, r3, lsl #1
 800066c:	bf08      	it	eq
 800066e:	ea20 70d3 	biceq.w	r0, r0, r3, lsr #31
 8000672:	bd70      	pop	{r4, r5, r6, pc}
 8000674:	f1c4 040c 	rsb	r4, r4, #12
 8000678:	f1c4 0520 	rsb	r5, r4, #32
 800067c:	fa00 f304 	lsl.w	r3, r0, r4
 8000680:	fa20 f005 	lsr.w	r0, r0, r5
 8000684:	fa01 f204 	lsl.w	r2, r1, r4
 8000688:	ea40 0002 	orr.w	r0, r0, r2
 800068c:	f001 4100 	and.w	r1, r1, #2147483648	; 0x80000000
 8000690:	eb10 70d3 	adds.w	r0, r0, r3, lsr #31
 8000694:	f141 0100 	adc.w	r1, r1, #0
 8000698:	ea5e 0e43 	orrs.w	lr, lr, r3, lsl #1
 800069c:	bf08      	it	eq
 800069e:	ea20 70d3 	biceq.w	r0, r0, r3, lsr #31
 80006a2:	bd70      	pop	{r4, r5, r6, pc}
 80006a4:	f1c4 0520 	rsb	r5, r4, #32
 80006a8:	fa00 f205 	lsl.w	r2, r0, r5
 80006ac:	ea4e 0e02 	orr.w	lr, lr, r2
 80006b0:	fa20 f304 	lsr.w	r3, r0, r4
 80006b4:	fa01 f205 	lsl.w	r2, r1, r5
 80006b8:	ea43 0302 	orr.w	r3, r3, r2
 80006bc:	fa21 f004 	lsr.w	r0, r1, r4
 80006c0:	f001 4100 	and.w	r1, r1, #2147483648	; 0x80000000
 80006c4:	fa21 f204 	lsr.w	r2, r1, r4
 80006c8:	ea20 0002 	bic.w	r0, r0, r2
 80006cc:	eb00 70d3 	add.w	r0, r0, r3, lsr #31
 80006d0:	ea5e 0e43 	orrs.w	lr, lr, r3, lsl #1
 80006d4:	bf08      	it	eq
 80006d6:	ea20 70d3 	biceq.w	r0, r0, r3, lsr #31
 80006da:	bd70      	pop	{r4, r5, r6, pc}
 80006dc:	f094 0f00 	teq	r4, #0
 80006e0:	d10f      	bne.n	8000702 <__aeabi_dmul+0x1c2>
 80006e2:	f001 4600 	and.w	r6, r1, #2147483648	; 0x80000000
 80006e6:	0040      	lsls	r0, r0, #1
 80006e8:	eb41 0101 	adc.w	r1, r1, r1
 80006ec:	f411 1f80 	tst.w	r1, #1048576	; 0x100000
 80006f0:	bf08      	it	eq
 80006f2:	3c01      	subeq	r4, #1
 80006f4:	d0f7      	beq.n	80006e6 <__aeabi_dmul+0x1a6>
 80006f6:	ea41 0106 	orr.w	r1, r1, r6
 80006fa:	f095 0f00 	teq	r5, #0
 80006fe:	bf18      	it	ne
 8000700:	4770      	bxne	lr
 8000702:	f003 4600 	and.w	r6, r3, #2147483648	; 0x80000000
 8000706:	0052      	lsls	r2, r2, #1
 8000708:	eb43 0303 	adc.w	r3, r3, r3
 800070c:	f413 1f80 	tst.w	r3, #1048576	; 0x100000
 8000710:	bf08      	it	eq
 8000712:	3d01      	subeq	r5, #1
 8000714:	d0f7      	beq.n	8000706 <__aeabi_dmul+0x1c6>
 8000716:	ea43 0306 	orr.w	r3, r3, r6
 800071a:	4770      	bx	lr
 800071c:	ea94 0f0c 	teq	r4, ip
 8000720:	ea0c 5513 	and.w	r5, ip, r3, lsr #20
 8000724:	bf18      	it	ne
 8000726:	ea95 0f0c 	teqne	r5, ip
 800072a:	d00c      	beq.n	8000746 <__aeabi_dmul+0x206>
 800072c:	ea50 0641 	orrs.w	r6, r0, r1, lsl #1
 8000730:	bf18      	it	ne
 8000732:	ea52 0643 	orrsne.w	r6, r2, r3, lsl #1
 8000736:	d1d1      	bne.n	80006dc <__aeabi_dmul+0x19c>
 8000738:	ea81 0103 	eor.w	r1, r1, r3
 800073c:	f001 4100 	and.w	r1, r1, #2147483648	; 0x80000000
 8000740:	f04f 0000 	mov.w	r0, #0
 8000744:	bd70      	pop	{r4, r5, r6, pc}
 8000746:	ea50 0641 	orrs.w	r6, r0, r1, lsl #1
 800074a:	bf06      	itte	eq
 800074c:	4610      	moveq	r0, r2
 800074e:	4619      	moveq	r1, r3
 8000750:	ea52 0643 	orrsne.w	r6, r2, r3, lsl #1
 8000754:	d019      	beq.n	800078a <__aeabi_dmul+0x24a>
 8000756:	ea94 0f0c 	teq	r4, ip
 800075a:	d102      	bne.n	8000762 <__aeabi_dmul+0x222>
 800075c:	ea50 3601 	orrs.w	r6, r0, r1, lsl #12
 8000760:	d113      	bne.n	800078a <__aeabi_dmul+0x24a>
 8000762:	ea95 0f0c 	teq	r5, ip
 8000766:	d105      	bne.n	8000774 <__aeabi_dmul+0x234>
 8000768:	ea52 3603 	orrs.w	r6, r2, r3, lsl #12
 800076c:	bf1c      	itt	ne
 800076e:	4610      	movne	r0, r2
 8000770:	4619      	movne	r1, r3
 8000772:	d10a      	bne.n	800078a <__aeabi_dmul+0x24a>
 8000774:	ea81 0103 	eor.w	r1, r1, r3
 8000778:	f001 4100 	and.w	r1, r1, #2147483648	; 0x80000000
 800077c:	f041 41fe 	orr.w	r1, r1, #2130706432	; 0x7f000000
 8000780:	f441 0170 	orr.w	r1, r1, #15728640	; 0xf00000
 8000784:	f04f 0000 	mov.w	r0, #0
 8000788:	bd70      	pop	{r4, r5, r6, pc}
 800078a:	f041 41fe 	orr.w	r1, r1, #2130706432	; 0x7f000000
 800078e:	f441 0178 	orr.w	r1, r1, #16252928	; 0xf80000
 8000792:	bd70      	pop	{r4, r5, r6, pc}

08000794 <__aeabi_ddiv>:
 8000794:	b570      	push	{r4, r5, r6, lr}
 8000796:	f04f 0cff 	mov.w	ip, #255	; 0xff
 800079a:	f44c 6ce0 	orr.w	ip, ip, #1792	; 0x700
 800079e:	ea1c 5411 	ands.w	r4, ip, r1, lsr #20
 80007a2:	bf1d      	ittte	ne
 80007a4:	ea1c 5513 	andsne.w	r5, ip, r3, lsr #20
 80007a8:	ea94 0f0c 	teqne	r4, ip
 80007ac:	ea95 0f0c 	teqne	r5, ip
 80007b0:	f000 f8a7 	bleq	8000902 <__aeabi_ddiv+0x16e>
 80007b4:	eba4 0405 	sub.w	r4, r4, r5
 80007b8:	ea81 0e03 	eor.w	lr, r1, r3
 80007bc:	ea52 3503 	orrs.w	r5, r2, r3, lsl #12
 80007c0:	ea4f 3101 	mov.w	r1, r1, lsl #12
 80007c4:	f000 8088 	beq.w	80008d8 <__aeabi_ddiv+0x144>
 80007c8:	ea4f 3303 	mov.w	r3, r3, lsl #12
 80007cc:	f04f 5580 	mov.w	r5, #268435456	; 0x10000000
 80007d0:	ea45 1313 	orr.w	r3, r5, r3, lsr #4
 80007d4:	ea43 6312 	orr.w	r3, r3, r2, lsr #24
 80007d8:	ea4f 2202 	mov.w	r2, r2, lsl #8
 80007dc:	ea45 1511 	orr.w	r5, r5, r1, lsr #4
 80007e0:	ea45 6510 	orr.w	r5, r5, r0, lsr #24
 80007e4:	ea4f 2600 	mov.w	r6, r0, lsl #8
 80007e8:	f00e 4100 	and.w	r1, lr, #2147483648	; 0x80000000
 80007ec:	429d      	cmp	r5, r3
 80007ee:	bf08      	it	eq
 80007f0:	4296      	cmpeq	r6, r2
 80007f2:	f144 04fd 	adc.w	r4, r4, #253	; 0xfd
 80007f6:	f504 7440 	add.w	r4, r4, #768	; 0x300
 80007fa:	d202      	bcs.n	8000802 <__aeabi_ddiv+0x6e>
 80007fc:	085b      	lsrs	r3, r3, #1
 80007fe:	ea4f 0232 	mov.w	r2, r2, rrx
 8000802:	1ab6      	subs	r6, r6, r2
 8000804:	eb65 0503 	sbc.w	r5, r5, r3
 8000808:	085b      	lsrs	r3, r3, #1
 800080a:	ea4f 0232 	mov.w	r2, r2, rrx
 800080e:	f44f 1080 	mov.w	r0, #1048576	; 0x100000
 8000812:	f44f 2c00 	mov.w	ip, #524288	; 0x80000
 8000816:	ebb6 0e02 	subs.w	lr, r6, r2
 800081a:	eb75 0e03 	sbcs.w	lr, r5, r3
 800081e:	bf22      	ittt	cs
 8000820:	1ab6      	subcs	r6, r6, r2
 8000822:	4675      	movcs	r5, lr
 8000824:	ea40 000c 	orrcs.w	r0, r0, ip
 8000828:	085b      	lsrs	r3, r3, #1
 800082a:	ea4f 0232 	mov.w	r2, r2, rrx
 800082e:	ebb6 0e02 	subs.w	lr, r6, r2
 8000832:	eb75 0e03 	sbcs.w	lr, r5, r3
 8000836:	bf22      	ittt	cs
 8000838:	1ab6      	subcs	r6, r6, r2
 800083a:	4675      	movcs	r5, lr
 800083c:	ea40 005c 	orrcs.w	r0, r0, ip, lsr #1
 8000840:	085b      	lsrs	r3, r3, #1
 8000842:	ea4f 0232 	mov.w	r2, r2, rrx
 8000846:	ebb6 0e02 	subs.w	lr, r6, r2
 800084a:	eb75 0e03 	sbcs.w	lr, r5, r3
 800084e:	bf22      	ittt	cs
 8000850:	1ab6      	subcs	r6, r6, r2
 8000852:	4675      	movcs	r5, lr
 8000854:	ea40 009c 	orrcs.w	r0, r0, ip, lsr #2
 8000858:	085b      	lsrs	r3, r3, #1
 800085a:	ea4f 0232 	mov.w	r2, r2, rrx
 800085e:	ebb6 0e02 	subs.w	lr, r6, r2
 8000862:	eb75 0e03 	sbcs.w	lr, r5, r3
 8000866:	bf22      	ittt	cs
 8000868:	1ab6      	subcs	r6, r6, r2
 800086a:	4675      	movcs	r5, lr
 800086c:	ea40 00dc 	orrcs.w	r0, r0, ip, lsr #3
 8000870:	ea55 0e06 	orrs.w	lr, r5, r6
 8000874:	d018      	beq.n	80008a8 <__aeabi_ddiv+0x114>
 8000876:	ea4f 1505 	mov.w	r5, r5, lsl #4
 800087a:	ea45 7516 	orr.w	r5, r5, r6, lsr #28
 800087e:	ea4f 1606 	mov.w	r6, r6, lsl #4
 8000882:	ea4f 03c3 	mov.w	r3, r3, lsl #3
 8000886:	ea43 7352 	orr.w	r3, r3, r2, lsr #29
 800088a:	ea4f 02c2 	mov.w	r2, r2, lsl #3
 800088e:	ea5f 1c1c 	movs.w	ip, ip, lsr #4
 8000892:	d1c0      	bne.n	8000816 <__aeabi_ddiv+0x82>
 8000894:	f411 1f80 	tst.w	r1, #1048576	; 0x100000
 8000898:	d10b      	bne.n	80008b2 <__aeabi_ddiv+0x11e>
 800089a:	ea41 0100 	orr.w	r1, r1, r0
 800089e:	f04f 0000 	mov.w	r0, #0
 80008a2:	f04f 4c00 	mov.w	ip, #2147483648	; 0x80000000
 80008a6:	e7b6      	b.n	8000816 <__aeabi_ddiv+0x82>
 80008a8:	f411 1f80 	tst.w	r1, #1048576	; 0x100000
 80008ac:	bf04      	itt	eq
 80008ae:	4301      	orreq	r1, r0
 80008b0:	2000      	moveq	r0, #0
 80008b2:	f1b4 0cfd 	subs.w	ip, r4, #253	; 0xfd
 80008b6:	bf88      	it	hi
 80008b8:	f5bc 6fe0 	cmphi.w	ip, #1792	; 0x700
 80008bc:	f63f aeaf 	bhi.w	800061e <__aeabi_dmul+0xde>
 80008c0:	ebb5 0c03 	subs.w	ip, r5, r3
 80008c4:	bf04      	itt	eq
 80008c6:	ebb6 0c02 	subseq.w	ip, r6, r2
 80008ca:	ea5f 0c50 	movseq.w	ip, r0, lsr #1
 80008ce:	f150 0000 	adcs.w	r0, r0, #0
 80008d2:	eb41 5104 	adc.w	r1, r1, r4, lsl #20
 80008d6:	bd70      	pop	{r4, r5, r6, pc}
 80008d8:	f00e 4e00 	and.w	lr, lr, #2147483648	; 0x80000000
 80008dc:	ea4e 3111 	orr.w	r1, lr, r1, lsr #12
 80008e0:	eb14 045c 	adds.w	r4, r4, ip, lsr #1
 80008e4:	bfc2      	ittt	gt
 80008e6:	ebd4 050c 	rsbsgt	r5, r4, ip
 80008ea:	ea41 5104 	orrgt.w	r1, r1, r4, lsl #20
 80008ee:	bd70      	popgt	{r4, r5, r6, pc}
 80008f0:	f441 1180 	orr.w	r1, r1, #1048576	; 0x100000
 80008f4:	f04f 0e00 	mov.w	lr, #0
 80008f8:	3c01      	subs	r4, #1
 80008fa:	e690      	b.n	800061e <__aeabi_dmul+0xde>
 80008fc:	ea45 0e06 	orr.w	lr, r5, r6
 8000900:	e68d      	b.n	800061e <__aeabi_dmul+0xde>
 8000902:	ea0c 5513 	and.w	r5, ip, r3, lsr #20
 8000906:	ea94 0f0c 	teq	r4, ip
 800090a:	bf08      	it	eq
 800090c:	ea95 0f0c 	teqeq	r5, ip
 8000910:	f43f af3b 	beq.w	800078a <__aeabi_dmul+0x24a>
 8000914:	ea94 0f0c 	teq	r4, ip
 8000918:	d10a      	bne.n	8000930 <__aeabi_ddiv+0x19c>
 800091a:	ea50 3401 	orrs.w	r4, r0, r1, lsl #12
 800091e:	f47f af34 	bne.w	800078a <__aeabi_dmul+0x24a>
 8000922:	ea95 0f0c 	teq	r5, ip
 8000926:	f47f af25 	bne.w	8000774 <__aeabi_dmul+0x234>
 800092a:	4610      	mov	r0, r2
 800092c:	4619      	mov	r1, r3
 800092e:	e72c      	b.n	800078a <__aeabi_dmul+0x24a>
 8000930:	ea95 0f0c 	teq	r5, ip
 8000934:	d106      	bne.n	8000944 <__aeabi_ddiv+0x1b0>
 8000936:	ea52 3503 	orrs.w	r5, r2, r3, lsl #12
 800093a:	f43f aefd 	beq.w	8000738 <__aeabi_dmul+0x1f8>
 800093e:	4610      	mov	r0, r2
 8000940:	4619      	mov	r1, r3
 8000942:	e722      	b.n	800078a <__aeabi_dmul+0x24a>
 8000944:	ea50 0641 	orrs.w	r6, r0, r1, lsl #1
 8000948:	bf18      	it	ne
 800094a:	ea52 0643 	orrsne.w	r6, r2, r3, lsl #1
 800094e:	f47f aec5 	bne.w	80006dc <__aeabi_dmul+0x19c>
 8000952:	ea50 0441 	orrs.w	r4, r0, r1, lsl #1
 8000956:	f47f af0d 	bne.w	8000774 <__aeabi_dmul+0x234>
 800095a:	ea52 0543 	orrs.w	r5, r2, r3, lsl #1
 800095e:	f47f aeeb 	bne.w	8000738 <__aeabi_dmul+0x1f8>
 8000962:	e712      	b.n	800078a <__aeabi_dmul+0x24a>

08000964 <__gedf2>:
 8000964:	f04f 3cff 	mov.w	ip, #4294967295
 8000968:	e006      	b.n	8000978 <__cmpdf2+0x4>
 800096a:	bf00      	nop

0800096c <__ledf2>:
 800096c:	f04f 0c01 	mov.w	ip, #1
 8000970:	e002      	b.n	8000978 <__cmpdf2+0x4>
 8000972:	bf00      	nop

08000974 <__cmpdf2>:
 8000974:	f04f 0c01 	mov.w	ip, #1
 8000978:	f84d cd04 	str.w	ip, [sp, #-4]!
 800097c:	ea4f 0c41 	mov.w	ip, r1, lsl #1
 8000980:	ea7f 5c6c 	mvns.w	ip, ip, asr #21
 8000984:	ea4f 0c43 	mov.w	ip, r3, lsl #1
 8000988:	bf18      	it	ne
 800098a:	ea7f 5c6c 	mvnsne.w	ip, ip, asr #21
 800098e:	d01b      	beq.n	80009c8 <__cmpdf2+0x54>
 8000990:	b001      	add	sp, #4
 8000992:	ea50 0c41 	orrs.w	ip, r0, r1, lsl #1
 8000996:	bf0c      	ite	eq
 8000998:	ea52 0c43 	orrseq.w	ip, r2, r3, lsl #1
 800099c:	ea91 0f03 	teqne	r1, r3
 80009a0:	bf02      	ittt	eq
 80009a2:	ea90 0f02 	teqeq	r0, r2
 80009a6:	2000      	moveq	r0, #0
 80009a8:	4770      	bxeq	lr
 80009aa:	f110 0f00 	cmn.w	r0, #0
 80009ae:	ea91 0f03 	teq	r1, r3
 80009b2:	bf58      	it	pl
 80009b4:	4299      	cmppl	r1, r3
 80009b6:	bf08      	it	eq
 80009b8:	4290      	cmpeq	r0, r2
 80009ba:	bf2c      	ite	cs
 80009bc:	17d8      	asrcs	r0, r3, #31
 80009be:	ea6f 70e3 	mvncc.w	r0, r3, asr #31
 80009c2:	f040 0001 	orr.w	r0, r0, #1
 80009c6:	4770      	bx	lr
 80009c8:	ea4f 0c41 	mov.w	ip, r1, lsl #1
 80009cc:	ea7f 5c6c 	mvns.w	ip, ip, asr #21
 80009d0:	d102      	bne.n	80009d8 <__cmpdf2+0x64>
 80009d2:	ea50 3c01 	orrs.w	ip, r0, r1, lsl #12
 80009d6:	d107      	bne.n	80009e8 <__cmpdf2+0x74>
 80009d8:	ea4f 0c43 	mov.w	ip, r3, lsl #1
 80009dc:	ea7f 5c6c 	mvns.w	ip, ip, asr #21
 80009e0:	d1d6      	bne.n	8000990 <__cmpdf2+0x1c>
 80009e2:	ea52 3c03 	orrs.w	ip, r2, r3, lsl #12
 80009e6:	d0d3      	beq.n	8000990 <__cmpdf2+0x1c>
 80009e8:	f85d 0b04 	ldr.w	r0, [sp], #4
 80009ec:	4770      	bx	lr
 80009ee:	bf00      	nop

080009f0 <__aeabi_cdrcmple>:
 80009f0:	4684      	mov	ip, r0
 80009f2:	4610      	mov	r0, r2
 80009f4:	4662      	mov	r2, ip
 80009f6:	468c      	mov	ip, r1
 80009f8:	4619      	mov	r1, r3
 80009fa:	4663      	mov	r3, ip
 80009fc:	e000      	b.n	8000a00 <__aeabi_cdcmpeq>
 80009fe:	bf00      	nop

08000a00 <__aeabi_cdcmpeq>:
 8000a00:	b501      	push	{r0, lr}
 8000a02:	f7ff ffb7 	bl	8000974 <__cmpdf2>
 8000a06:	2800      	cmp	r0, #0
 8000a08:	bf48      	it	mi
 8000a0a:	f110 0f00 	cmnmi.w	r0, #0
 8000a0e:	bd01      	pop	{r0, pc}

08000a10 <__aeabi_dcmpeq>:
 8000a10:	f84d ed08 	str.w	lr, [sp, #-8]!
 8000a14:	f7ff fff4 	bl	8000a00 <__aeabi_cdcmpeq>
 8000a18:	bf0c      	ite	eq
 8000a1a:	2001      	moveq	r0, #1
 8000a1c:	2000      	movne	r0, #0
 8000a1e:	f85d fb08 	ldr.w	pc, [sp], #8
 8000a22:	bf00      	nop

08000a24 <__aeabi_dcmplt>:
 8000a24:	f84d ed08 	str.w	lr, [sp, #-8]!
 8000a28:	f7ff ffea 	bl	8000a00 <__aeabi_cdcmpeq>
 8000a2c:	bf34      	ite	cc
 8000a2e:	2001      	movcc	r0, #1
 8000a30:	2000      	movcs	r0, #0
 8000a32:	f85d fb08 	ldr.w	pc, [sp], #8
 8000a36:	bf00      	nop

08000a38 <__aeabi_dcmple>:
 8000a38:	f84d ed08 	str.w	lr, [sp, #-8]!
 8000a3c:	f7ff ffe0 	bl	8000a00 <__aeabi_cdcmpeq>
 8000a40:	bf94      	ite	ls
 8000a42:	2001      	movls	r0, #1
 8000a44:	2000      	movhi	r0, #0
 8000a46:	f85d fb08 	ldr.w	pc, [sp], #8
 8000a4a:	bf00      	nop

08000a4c <__aeabi_dcmpge>:
 8000a4c:	f84d ed08 	str.w	lr, [sp, #-8]!
 8000a50:	f7ff ffce 	bl	80009f0 <__aeabi_cdrcmple>
 8000a54:	bf94      	ite	ls
 8000a56:	2001      	movls	r0, #1
 8000a58:	2000      	movhi	r0, #0
 8000a5a:	f85d fb08 	ldr.w	pc, [sp], #8
 8000a5e:	bf00      	nop

08000a60 <__aeabi_dcmpgt>:
 8000a60:	f84d ed08 	str.w	lr, [sp, #-8]!
 8000a64:	f7ff ffc4 	bl	80009f0 <__aeabi_cdrcmple>
 8000a68:	bf34      	ite	cc
 8000a6a:	2001      	movcc	r0, #1
 8000a6c:	2000      	movcs	r0, #0
 8000a6e:	f85d fb08 	ldr.w	pc, [sp], #8
 8000a72:	bf00      	nop

08000a74 <__aeabi_d2iz>:
 8000a74:	ea4f 0241 	mov.w	r2, r1, lsl #1
 8000a78:	f512 1200 	adds.w	r2, r2, #2097152	; 0x200000
 8000a7c:	d215      	bcs.n	8000aaa <__aeabi_d2iz+0x36>
 8000a7e:	d511      	bpl.n	8000aa4 <__aeabi_d2iz+0x30>
 8000a80:	f46f 7378 	mvn.w	r3, #992	; 0x3e0
 8000a84:	ebb3 5262 	subs.w	r2, r3, r2, asr #21
 8000a88:	d912      	bls.n	8000ab0 <__aeabi_d2iz+0x3c>
 8000a8a:	ea4f 23c1 	mov.w	r3, r1, lsl #11
 8000a8e:	f043 4300 	orr.w	r3, r3, #2147483648	; 0x80000000
 8000a92:	ea43 5350 	orr.w	r3, r3, r0, lsr #21
 8000a96:	f011 4f00 	tst.w	r1, #2147483648	; 0x80000000
 8000a9a:	fa23 f002 	lsr.w	r0, r3, r2
 8000a9e:	bf18      	it	ne
 8000aa0:	4240      	negne	r0, r0
 8000aa2:	4770      	bx	lr
 8000aa4:	f04f 0000 	mov.w	r0, #0
 8000aa8:	4770      	bx	lr
 8000aaa:	ea50 3001 	orrs.w	r0, r0, r1, lsl #12
 8000aae:	d105      	bne.n	8000abc <__aeabi_d2iz+0x48>
 8000ab0:	f011 4000 	ands.w	r0, r1, #2147483648	; 0x80000000
 8000ab4:	bf08      	it	eq
 8000ab6:	f06f 4000 	mvneq.w	r0, #2147483648	; 0x80000000
 8000aba:	4770      	bx	lr
 8000abc:	f04f 0000 	mov.w	r0, #0
 8000ac0:	4770      	bx	lr
 8000ac2:	bf00      	nop

08000ac4 <__aeabi_d2uiz>:
 8000ac4:	004a      	lsls	r2, r1, #1
 8000ac6:	d211      	bcs.n	8000aec <__aeabi_d2uiz+0x28>
 8000ac8:	f512 1200 	adds.w	r2, r2, #2097152	; 0x200000
 8000acc:	d211      	bcs.n	8000af2 <__aeabi_d2uiz+0x2e>
 8000ace:	d50d      	bpl.n	8000aec <__aeabi_d2uiz+0x28>
 8000ad0:	f46f 7378 	mvn.w	r3, #992	; 0x3e0
 8000ad4:	ebb3 5262 	subs.w	r2, r3, r2, asr #21
 8000ad8:	d40e      	bmi.n	8000af8 <__aeabi_d2uiz+0x34>
 8000ada:	ea4f 23c1 	mov.w	r3, r1, lsl #11
 8000ade:	f043 4300 	orr.w	r3, r3, #2147483648	; 0x80000000
 8000ae2:	ea43 5350 	orr.w	r3, r3, r0, lsr #21
 8000ae6:	fa23 f002 	lsr.w	r0, r3, r2
 8000aea:	4770      	bx	lr
 8000aec:	f04f 0000 	mov.w	r0, #0
 8000af0:	4770      	bx	lr
 8000af2:	ea50 3001 	orrs.w	r0, r0, r1, lsl #12
 8000af6:	d102      	bne.n	8000afe <__aeabi_d2uiz+0x3a>
 8000af8:	f04f 30ff 	mov.w	r0, #4294967295
 8000afc:	4770      	bx	lr
 8000afe:	f04f 0000 	mov.w	r0, #0
 8000b02:	4770      	bx	lr
 8000b04:	0000      	movs	r0, r0
	...

08000b08 <get_sineval>:
/* USER CODE END PFP */

/* Private user code ---------------------------------------------------------*/
/* USER CODE BEGIN 0 */
void get_sineval ()
{
 8000b08:	b590      	push	{r4, r7, lr}
 8000b0a:	b083      	sub	sp, #12
 8000b0c:	af00      	add	r7, sp, #0
	for (int i=0;i<360;i++)
 8000b0e:	2300      	movs	r3, #0
 8000b10:	607b      	str	r3, [r7, #4]
 8000b12:	e040      	b.n	8000b96 <get_sineval+0x8e>
	{
		sine_val[i] = ((sin(i*2*PI/360) + 1)*(4096/2));
 8000b14:	687b      	ldr	r3, [r7, #4]
 8000b16:	005b      	lsls	r3, r3, #1
 8000b18:	4618      	mov	r0, r3
 8000b1a:	f7ff fca7 	bl	800046c <__aeabi_i2d>
 8000b1e:	a327      	add	r3, pc, #156	; (adr r3, 8000bbc <get_sineval+0xb4>)
 8000b20:	e9d3 2300 	ldrd	r2, r3, [r3]
 8000b24:	f7ff fd0c 	bl	8000540 <__aeabi_dmul>
 8000b28:	4603      	mov	r3, r0
 8000b2a:	460c      	mov	r4, r1
 8000b2c:	4618      	mov	r0, r3
 8000b2e:	4621      	mov	r1, r4
 8000b30:	f04f 0200 	mov.w	r2, #0
 8000b34:	4b1c      	ldr	r3, [pc, #112]	; (8000ba8 <get_sineval+0xa0>)
 8000b36:	f7ff fe2d 	bl	8000794 <__aeabi_ddiv>
 8000b3a:	4603      	mov	r3, r0
 8000b3c:	460c      	mov	r4, r1
 8000b3e:	ec44 3b17 	vmov	d7, r3, r4
 8000b42:	eeb0 0a47 	vmov.f32	s0, s14
 8000b46:	eef0 0a67 	vmov.f32	s1, s15
 8000b4a:	f004 fc15 	bl	8005378 <sin>
 8000b4e:	ec51 0b10 	vmov	r0, r1, d0
 8000b52:	f04f 0200 	mov.w	r2, #0
 8000b56:	4b15      	ldr	r3, [pc, #84]	; (8000bac <get_sineval+0xa4>)
 8000b58:	f7ff fb3c 	bl	80001d4 <__adddf3>
 8000b5c:	4603      	mov	r3, r0
 8000b5e:	460c      	mov	r4, r1
 8000b60:	4618      	mov	r0, r3
 8000b62:	4621      	mov	r1, r4
 8000b64:	f04f 0200 	mov.w	r2, #0
 8000b68:	4b11      	ldr	r3, [pc, #68]	; (8000bb0 <get_sineval+0xa8>)
 8000b6a:	f7ff fce9 	bl	8000540 <__aeabi_dmul>
 8000b6e:	4603      	mov	r3, r0
 8000b70:	460c      	mov	r4, r1
 8000b72:	4618      	mov	r0, r3
 8000b74:	4621      	mov	r1, r4
 8000b76:	f7ff ffa5 	bl	8000ac4 <__aeabi_d2uiz>
 8000b7a:	4601      	mov	r1, r0
 8000b7c:	4a0d      	ldr	r2, [pc, #52]	; (8000bb4 <get_sineval+0xac>)
 8000b7e:	687b      	ldr	r3, [r7, #4]
 8000b80:	f842 1023 	str.w	r1, [r2, r3, lsl #2]
		sine_norm[i] = ((sin(2*PI)+1)*(4096/2));
 8000b84:	4a0c      	ldr	r2, [pc, #48]	; (8000bb8 <get_sineval+0xb0>)
 8000b86:	687b      	ldr	r3, [r7, #4]
 8000b88:	f240 71d7 	movw	r1, #2007	; 0x7d7
 8000b8c:	f842 1023 	str.w	r1, [r2, r3, lsl #2]
	for (int i=0;i<360;i++)
 8000b90:	687b      	ldr	r3, [r7, #4]
 8000b92:	3301      	adds	r3, #1
 8000b94:	607b      	str	r3, [r7, #4]
 8000b96:	687b      	ldr	r3, [r7, #4]
 8000b98:	f5b3 7fb4 	cmp.w	r3, #360	; 0x168
 8000b9c:	dbba      	blt.n	8000b14 <get_sineval+0xc>
	}
}
 8000b9e:	bf00      	nop
 8000ba0:	370c      	adds	r7, #12
 8000ba2:	46bd      	mov	sp, r7
 8000ba4:	bd90      	pop	{r4, r7, pc}
 8000ba6:	bf00      	nop
 8000ba8:	40768000 	.word	0x40768000
 8000bac:	3ff00000 	.word	0x3ff00000
 8000bb0:	40a00000 	.word	0x40a00000
 8000bb4:	20000040 	.word	0x20000040
 8000bb8:	20000664 	.word	0x20000664
 8000bbc:	6bcb2a35 	.word	0x6bcb2a35
 8000bc0:	40090d80 	.word	0x40090d80
 8000bc4:	00000000 	.word	0x00000000

08000bc8 <main>:
/**
  * @brief  The application entry point.
  * @retval int
  */
int main(void)
{
 8000bc8:	b590      	push	{r4, r7, lr}
 8000bca:	b083      	sub	sp, #12
 8000bcc:	af02      	add	r7, sp, #8
  

  /* MCU Configuration--------------------------------------------------------*/

  /* Reset of all peripherals, Initializes the Flash interface and the Systick. */
  HAL_Init();
 8000bce:	f000 fc41 	bl	8001454 <HAL_Init>
  /* USER CODE BEGIN Init */

  /* USER CODE END Init */

  /* Configure the system clock */
  SystemClock_Config();
 8000bd2:	f000 f88d 	bl	8000cf0 <SystemClock_Config>
  /* USER CODE BEGIN SysInit */

  /* USER CODE END SysInit */

  /* Initialize all configured peripherals */
  MX_GPIO_Init();
 8000bd6:	f000 fa2f 	bl	8001038 <MX_GPIO_Init>
  MX_TIM3_Init();
 8000bda:	f000 f97f 	bl	8000edc <MX_TIM3_Init>
  MX_ADC1_Init();
 8000bde:	f000 f8e3 	bl	8000da8 <MX_ADC1_Init>
  MX_DMA_Init();
 8000be2:	f000 fa0b 	bl	8000ffc <MX_DMA_Init>
  MX_DAC1_Init();
 8000be6:	f000 f94f 	bl	8000e88 <MX_DAC1_Init>
  MX_TIM6_Init();
 8000bea:	f000 f9d1 	bl	8000f90 <MX_TIM6_Init>
  /* USER CODE BEGIN 2 */
  HAL_TIM_Base_Start(&htim6);
 8000bee:	483a      	ldr	r0, [pc, #232]	; (8000cd8 <main+0x110>)
 8000bf0:	f003 fcb2 	bl	8004558 <HAL_TIM_Base_Start>
  get_sineval();
 8000bf4:	f7ff ff88 	bl	8000b08 <get_sineval>


  //HAL_TIM_PWM_Start_DMA (&htim3, TIM_CHANNEL_1,  value_adc, 360);

  HAL_DAC_Start_DMA(&hdac1, DAC_CHANNEL_1, sine_val, 360, DAC_ALIGN_12B_R);
 8000bf8:	2300      	movs	r3, #0
 8000bfa:	9300      	str	r3, [sp, #0]
 8000bfc:	f44f 73b4 	mov.w	r3, #360	; 0x168
 8000c00:	4a36      	ldr	r2, [pc, #216]	; (8000cdc <main+0x114>)
 8000c02:	2100      	movs	r1, #0
 8000c04:	4836      	ldr	r0, [pc, #216]	; (8000ce0 <main+0x118>)
 8000c06:	f001 fdbd 	bl	8002784 <HAL_DAC_Start_DMA>
  HAL_TIM_PWM_Start(&htim3, TIM_CHANNEL_1);
 8000c0a:	2100      	movs	r1, #0
 8000c0c:	4835      	ldr	r0, [pc, #212]	; (8000ce4 <main+0x11c>)
 8000c0e:	f003 fcf9 	bl	8004604 <HAL_TIM_PWM_Start>
  while (1)
  {
    /* USER CODE END WHILE */

    /* USER CODE BEGIN 3 */
	  for(i=0; i<360; i++)
 8000c12:	4b35      	ldr	r3, [pc, #212]	; (8000ce8 <main+0x120>)
 8000c14:	2200      	movs	r2, #0
 8000c16:	601a      	str	r2, [r3, #0]
 8000c18:	e024      	b.n	8000c64 <main+0x9c>

//	      HAL_ADC_Start(&hadc1);
//	      HAL_ADC_PollForConversion(&hadc1, HAL_MAX_DELAY);
//	      value_adc = HAL_ADC_GetValue(&hadc1);
//	      HAL_Delay(1);
	      htim3.Instance->CCR1 = ((sine_val[i])/(sine_norm[i]))*3.3;
 8000c1a:	4b33      	ldr	r3, [pc, #204]	; (8000ce8 <main+0x120>)
 8000c1c:	681b      	ldr	r3, [r3, #0]
 8000c1e:	4a2f      	ldr	r2, [pc, #188]	; (8000cdc <main+0x114>)
 8000c20:	f852 2023 	ldr.w	r2, [r2, r3, lsl #2]
 8000c24:	4b30      	ldr	r3, [pc, #192]	; (8000ce8 <main+0x120>)
 8000c26:	681b      	ldr	r3, [r3, #0]
 8000c28:	4930      	ldr	r1, [pc, #192]	; (8000cec <main+0x124>)
 8000c2a:	f851 3023 	ldr.w	r3, [r1, r3, lsl #2]
 8000c2e:	fbb2 f3f3 	udiv	r3, r2, r3
 8000c32:	4618      	mov	r0, r3
 8000c34:	f7ff fc0a 	bl	800044c <__aeabi_ui2d>
 8000c38:	a325      	add	r3, pc, #148	; (adr r3, 8000cd0 <main+0x108>)
 8000c3a:	e9d3 2300 	ldrd	r2, r3, [r3]
 8000c3e:	f7ff fc7f 	bl	8000540 <__aeabi_dmul>
 8000c42:	4603      	mov	r3, r0
 8000c44:	460c      	mov	r4, r1
 8000c46:	4619      	mov	r1, r3
 8000c48:	4622      	mov	r2, r4
 8000c4a:	4b26      	ldr	r3, [pc, #152]	; (8000ce4 <main+0x11c>)
 8000c4c:	681c      	ldr	r4, [r3, #0]
 8000c4e:	4608      	mov	r0, r1
 8000c50:	4611      	mov	r1, r2
 8000c52:	f7ff ff37 	bl	8000ac4 <__aeabi_d2uiz>
 8000c56:	4603      	mov	r3, r0
 8000c58:	6363      	str	r3, [r4, #52]	; 0x34
	  for(i=0; i<360; i++)
 8000c5a:	4b23      	ldr	r3, [pc, #140]	; (8000ce8 <main+0x120>)
 8000c5c:	681b      	ldr	r3, [r3, #0]
 8000c5e:	3301      	adds	r3, #1
 8000c60:	4a21      	ldr	r2, [pc, #132]	; (8000ce8 <main+0x120>)
 8000c62:	6013      	str	r3, [r2, #0]
 8000c64:	4b20      	ldr	r3, [pc, #128]	; (8000ce8 <main+0x120>)
 8000c66:	681b      	ldr	r3, [r3, #0]
 8000c68:	f5b3 7fb4 	cmp.w	r3, #360	; 0x168
 8000c6c:	dbd5      	blt.n	8000c1a <main+0x52>
	  }


	  for(i=360; i>0; i--)
 8000c6e:	4b1e      	ldr	r3, [pc, #120]	; (8000ce8 <main+0x120>)
 8000c70:	f44f 72b4 	mov.w	r2, #360	; 0x168
 8000c74:	601a      	str	r2, [r3, #0]
 8000c76:	e024      	b.n	8000cc2 <main+0xfa>
	  {
//		  HAL_ADC_Start(&hadc1);
//		  HAL_ADC_PollForConversion(&hadc1, 0);
//		  value_adc = HAL_ADC_GetValue(&hadc1);
//		  HAL_Delay(1);
		  htim3.Instance->CCR1 = ((sine_val[i])/(sine_norm[i]))*3.3;
 8000c78:	4b1b      	ldr	r3, [pc, #108]	; (8000ce8 <main+0x120>)
 8000c7a:	681b      	ldr	r3, [r3, #0]
 8000c7c:	4a17      	ldr	r2, [pc, #92]	; (8000cdc <main+0x114>)
 8000c7e:	f852 2023 	ldr.w	r2, [r2, r3, lsl #2]
 8000c82:	4b19      	ldr	r3, [pc, #100]	; (8000ce8 <main+0x120>)
 8000c84:	681b      	ldr	r3, [r3, #0]
 8000c86:	4919      	ldr	r1, [pc, #100]	; (8000cec <main+0x124>)
 8000c88:	f851 3023 	ldr.w	r3, [r1, r3, lsl #2]
 8000c8c:	fbb2 f3f3 	udiv	r3, r2, r3
 8000c90:	4618      	mov	r0, r3
 8000c92:	f7ff fbdb 	bl	800044c <__aeabi_ui2d>
 8000c96:	a30e      	add	r3, pc, #56	; (adr r3, 8000cd0 <main+0x108>)
 8000c98:	e9d3 2300 	ldrd	r2, r3, [r3]
 8000c9c:	f7ff fc50 	bl	8000540 <__aeabi_dmul>
 8000ca0:	4603      	mov	r3, r0
 8000ca2:	460c      	mov	r4, r1
 8000ca4:	4619      	mov	r1, r3
 8000ca6:	4622      	mov	r2, r4
 8000ca8:	4b0e      	ldr	r3, [pc, #56]	; (8000ce4 <main+0x11c>)
 8000caa:	681c      	ldr	r4, [r3, #0]
 8000cac:	4608      	mov	r0, r1
 8000cae:	4611      	mov	r1, r2
 8000cb0:	f7ff ff08 	bl	8000ac4 <__aeabi_d2uiz>
 8000cb4:	4603      	mov	r3, r0
 8000cb6:	6363      	str	r3, [r4, #52]	; 0x34
	  for(i=360; i>0; i--)
 8000cb8:	4b0b      	ldr	r3, [pc, #44]	; (8000ce8 <main+0x120>)
 8000cba:	681b      	ldr	r3, [r3, #0]
 8000cbc:	3b01      	subs	r3, #1
 8000cbe:	4a0a      	ldr	r2, [pc, #40]	; (8000ce8 <main+0x120>)
 8000cc0:	6013      	str	r3, [r2, #0]
 8000cc2:	4b09      	ldr	r3, [pc, #36]	; (8000ce8 <main+0x120>)
 8000cc4:	681b      	ldr	r3, [r3, #0]
 8000cc6:	2b00      	cmp	r3, #0
 8000cc8:	dcd6      	bgt.n	8000c78 <main+0xb0>
	  for(i=0; i<360; i++)
 8000cca:	e7a2      	b.n	8000c12 <main+0x4a>
 8000ccc:	f3af 8000 	nop.w
 8000cd0:	66666666 	.word	0x66666666
 8000cd4:	400a6666 	.word	0x400a6666
 8000cd8:	20000c58 	.word	0x20000c58
 8000cdc:	20000040 	.word	0x20000040
 8000ce0:	2000002c 	.word	0x2000002c
 8000ce4:	20000624 	.word	0x20000624
 8000ce8:	20000028 	.word	0x20000028
 8000cec:	20000664 	.word	0x20000664

08000cf0 <SystemClock_Config>:
/**
  * @brief System Clock Configuration
  * @retval None
  */
void SystemClock_Config(void)
{
 8000cf0:	b580      	push	{r7, lr}
 8000cf2:	b096      	sub	sp, #88	; 0x58
 8000cf4:	af00      	add	r7, sp, #0
  RCC_OscInitTypeDef RCC_OscInitStruct = {0};
 8000cf6:	f107 0330 	add.w	r3, r7, #48	; 0x30
 8000cfa:	2228      	movs	r2, #40	; 0x28
 8000cfc:	2100      	movs	r1, #0
 8000cfe:	4618      	mov	r0, r3
 8000d00:	f004 fb30 	bl	8005364 <memset>
  RCC_ClkInitTypeDef RCC_ClkInitStruct = {0};
 8000d04:	f107 031c 	add.w	r3, r7, #28
 8000d08:	2200      	movs	r2, #0
 8000d0a:	601a      	str	r2, [r3, #0]
 8000d0c:	605a      	str	r2, [r3, #4]
 8000d0e:	609a      	str	r2, [r3, #8]
 8000d10:	60da      	str	r2, [r3, #12]
 8000d12:	611a      	str	r2, [r3, #16]
  RCC_PeriphCLKInitTypeDef PeriphClkInit = {0};
 8000d14:	1d3b      	adds	r3, r7, #4
 8000d16:	2200      	movs	r2, #0
 8000d18:	601a      	str	r2, [r3, #0]
 8000d1a:	605a      	str	r2, [r3, #4]
 8000d1c:	609a      	str	r2, [r3, #8]
 8000d1e:	60da      	str	r2, [r3, #12]
 8000d20:	611a      	str	r2, [r3, #16]
 8000d22:	615a      	str	r2, [r3, #20]

  /** Initializes the CPU, AHB and APB busses clocks 
  */
  RCC_OscInitStruct.OscillatorType = RCC_OSCILLATORTYPE_HSE;
 8000d24:	2301      	movs	r3, #1
 8000d26:	633b      	str	r3, [r7, #48]	; 0x30
  RCC_OscInitStruct.HSEState = RCC_HSE_ON;
 8000d28:	f44f 3380 	mov.w	r3, #65536	; 0x10000
 8000d2c:	637b      	str	r3, [r7, #52]	; 0x34
  RCC_OscInitStruct.HSEPredivValue = RCC_HSE_PREDIV_DIV1;
 8000d2e:	2300      	movs	r3, #0
 8000d30:	63bb      	str	r3, [r7, #56]	; 0x38
  RCC_OscInitStruct.HSIState = RCC_HSI_ON;
 8000d32:	2301      	movs	r3, #1
 8000d34:	643b      	str	r3, [r7, #64]	; 0x40
  RCC_OscInitStruct.PLL.PLLState = RCC_PLL_ON;
 8000d36:	2302      	movs	r3, #2
 8000d38:	64fb      	str	r3, [r7, #76]	; 0x4c
  RCC_OscInitStruct.PLL.PLLSource = RCC_PLLSOURCE_HSE;
 8000d3a:	f44f 3380 	mov.w	r3, #65536	; 0x10000
 8000d3e:	653b      	str	r3, [r7, #80]	; 0x50
  RCC_OscInitStruct.PLL.PLLMUL = RCC_PLL_MUL4;
 8000d40:	f44f 2300 	mov.w	r3, #524288	; 0x80000
 8000d44:	657b      	str	r3, [r7, #84]	; 0x54
  if (HAL_RCC_OscConfig(&RCC_OscInitStruct) != HAL_OK)
 8000d46:	f107 0330 	add.w	r3, r7, #48	; 0x30
 8000d4a:	4618      	mov	r0, r3
 8000d4c:	f002 f9c4 	bl	80030d8 <HAL_RCC_OscConfig>
 8000d50:	4603      	mov	r3, r0
 8000d52:	2b00      	cmp	r3, #0
 8000d54:	d001      	beq.n	8000d5a <SystemClock_Config+0x6a>
  {
    Error_Handler();
 8000d56:	f000 f993 	bl	8001080 <Error_Handler>
  }
  /** Initializes the CPU, AHB and APB busses clocks 
  */
  RCC_ClkInitStruct.ClockType = RCC_CLOCKTYPE_HCLK|RCC_CLOCKTYPE_SYSCLK
 8000d5a:	230f      	movs	r3, #15
 8000d5c:	61fb      	str	r3, [r7, #28]
                              |RCC_CLOCKTYPE_PCLK1|RCC_CLOCKTYPE_PCLK2;
  RCC_ClkInitStruct.SYSCLKSource = RCC_SYSCLKSOURCE_PLLCLK;
 8000d5e:	2302      	movs	r3, #2
 8000d60:	623b      	str	r3, [r7, #32]
  RCC_ClkInitStruct.AHBCLKDivider = RCC_SYSCLK_DIV1;
 8000d62:	2300      	movs	r3, #0
 8000d64:	627b      	str	r3, [r7, #36]	; 0x24
  RCC_ClkInitStruct.APB1CLKDivider = RCC_HCLK_DIV1;
 8000d66:	2300      	movs	r3, #0
 8000d68:	62bb      	str	r3, [r7, #40]	; 0x28
  RCC_ClkInitStruct.APB2CLKDivider = RCC_HCLK_DIV1;
 8000d6a:	2300      	movs	r3, #0
 8000d6c:	62fb      	str	r3, [r7, #44]	; 0x2c

  if (HAL_RCC_ClockConfig(&RCC_ClkInitStruct, FLASH_LATENCY_1) != HAL_OK)
 8000d6e:	f107 031c 	add.w	r3, r7, #28
 8000d72:	2101      	movs	r1, #1
 8000d74:	4618      	mov	r0, r3
 8000d76:	f003 f8b7 	bl	8003ee8 <HAL_RCC_ClockConfig>
 8000d7a:	4603      	mov	r3, r0
 8000d7c:	2b00      	cmp	r3, #0
 8000d7e:	d001      	beq.n	8000d84 <SystemClock_Config+0x94>
  {
    Error_Handler();
 8000d80:	f000 f97e 	bl	8001080 <Error_Handler>
  }
  PeriphClkInit.PeriphClockSelection = RCC_PERIPHCLK_ADC12;
 8000d84:	2380      	movs	r3, #128	; 0x80
 8000d86:	607b      	str	r3, [r7, #4]
  PeriphClkInit.Adc12ClockSelection = RCC_ADC12PLLCLK_DIV1;
 8000d88:	f44f 7380 	mov.w	r3, #256	; 0x100
 8000d8c:	617b      	str	r3, [r7, #20]
  if (HAL_RCCEx_PeriphCLKConfig(&PeriphClkInit) != HAL_OK)
 8000d8e:	1d3b      	adds	r3, r7, #4
 8000d90:	4618      	mov	r0, r3
 8000d92:	f003 fa8f 	bl	80042b4 <HAL_RCCEx_PeriphCLKConfig>
 8000d96:	4603      	mov	r3, r0
 8000d98:	2b00      	cmp	r3, #0
 8000d9a:	d001      	beq.n	8000da0 <SystemClock_Config+0xb0>
  {
    Error_Handler();
 8000d9c:	f000 f970 	bl	8001080 <Error_Handler>
  }
}
 8000da0:	bf00      	nop
 8000da2:	3758      	adds	r7, #88	; 0x58
 8000da4:	46bd      	mov	sp, r7
 8000da6:	bd80      	pop	{r7, pc}

08000da8 <MX_ADC1_Init>:
  * @brief ADC1 Initialization Function
  * @param None
  * @retval None
  */
static void MX_ADC1_Init(void)
{
 8000da8:	b580      	push	{r7, lr}
 8000daa:	b08a      	sub	sp, #40	; 0x28
 8000dac:	af00      	add	r7, sp, #0

  /* USER CODE BEGIN ADC1_Init 0 */

  /* USER CODE END ADC1_Init 0 */

  ADC_MultiModeTypeDef multimode = {0};
 8000dae:	f107 031c 	add.w	r3, r7, #28
 8000db2:	2200      	movs	r2, #0
 8000db4:	601a      	str	r2, [r3, #0]
 8000db6:	605a      	str	r2, [r3, #4]
 8000db8:	609a      	str	r2, [r3, #8]
  ADC_ChannelConfTypeDef sConfig = {0};
 8000dba:	1d3b      	adds	r3, r7, #4
 8000dbc:	2200      	movs	r2, #0
 8000dbe:	601a      	str	r2, [r3, #0]
 8000dc0:	605a      	str	r2, [r3, #4]
 8000dc2:	609a      	str	r2, [r3, #8]
 8000dc4:	60da      	str	r2, [r3, #12]
 8000dc6:	611a      	str	r2, [r3, #16]
 8000dc8:	615a      	str	r2, [r3, #20]
  /* USER CODE BEGIN ADC1_Init 1 */

  /* USER CODE END ADC1_Init 1 */
  /** Common config 
  */
  hadc1.Instance = ADC1;
 8000dca:	4b2e      	ldr	r3, [pc, #184]	; (8000e84 <MX_ADC1_Init+0xdc>)
 8000dcc:	f04f 42a0 	mov.w	r2, #1342177280	; 0x50000000
 8000dd0:	601a      	str	r2, [r3, #0]
  hadc1.Init.ClockPrescaler = ADC_CLOCK_ASYNC_DIV1;
 8000dd2:	4b2c      	ldr	r3, [pc, #176]	; (8000e84 <MX_ADC1_Init+0xdc>)
 8000dd4:	2200      	movs	r2, #0
 8000dd6:	605a      	str	r2, [r3, #4]
  hadc1.Init.Resolution = ADC_RESOLUTION_12B;
 8000dd8:	4b2a      	ldr	r3, [pc, #168]	; (8000e84 <MX_ADC1_Init+0xdc>)
 8000dda:	2200      	movs	r2, #0
 8000ddc:	609a      	str	r2, [r3, #8]
  hadc1.Init.ScanConvMode = ADC_SCAN_DISABLE;
 8000dde:	4b29      	ldr	r3, [pc, #164]	; (8000e84 <MX_ADC1_Init+0xdc>)
 8000de0:	2200      	movs	r2, #0
 8000de2:	611a      	str	r2, [r3, #16]
  hadc1.Init.ContinuousConvMode = DISABLE;
 8000de4:	4b27      	ldr	r3, [pc, #156]	; (8000e84 <MX_ADC1_Init+0xdc>)
 8000de6:	2200      	movs	r2, #0
 8000de8:	765a      	strb	r2, [r3, #25]
  hadc1.Init.DiscontinuousConvMode = DISABLE;
 8000dea:	4b26      	ldr	r3, [pc, #152]	; (8000e84 <MX_ADC1_Init+0xdc>)
 8000dec:	2200      	movs	r2, #0
 8000dee:	f883 2020 	strb.w	r2, [r3, #32]
  hadc1.Init.ExternalTrigConvEdge = ADC_EXTERNALTRIGCONVEDGE_NONE;
 8000df2:	4b24      	ldr	r3, [pc, #144]	; (8000e84 <MX_ADC1_Init+0xdc>)
 8000df4:	2200      	movs	r2, #0
 8000df6:	62da      	str	r2, [r3, #44]	; 0x2c
  hadc1.Init.ExternalTrigConv = ADC_SOFTWARE_START;
 8000df8:	4b22      	ldr	r3, [pc, #136]	; (8000e84 <MX_ADC1_Init+0xdc>)
 8000dfa:	2201      	movs	r2, #1
 8000dfc:	629a      	str	r2, [r3, #40]	; 0x28
  hadc1.Init.DataAlign = ADC_DATAALIGN_RIGHT;
 8000dfe:	4b21      	ldr	r3, [pc, #132]	; (8000e84 <MX_ADC1_Init+0xdc>)
 8000e00:	2200      	movs	r2, #0
 8000e02:	60da      	str	r2, [r3, #12]
  hadc1.Init.NbrOfConversion = 1;
 8000e04:	4b1f      	ldr	r3, [pc, #124]	; (8000e84 <MX_ADC1_Init+0xdc>)
 8000e06:	2201      	movs	r2, #1
 8000e08:	61da      	str	r2, [r3, #28]
  hadc1.Init.DMAContinuousRequests = DISABLE;
 8000e0a:	4b1e      	ldr	r3, [pc, #120]	; (8000e84 <MX_ADC1_Init+0xdc>)
 8000e0c:	2200      	movs	r2, #0
 8000e0e:	f883 2030 	strb.w	r2, [r3, #48]	; 0x30
  hadc1.Init.EOCSelection = ADC_EOC_SINGLE_CONV;
 8000e12:	4b1c      	ldr	r3, [pc, #112]	; (8000e84 <MX_ADC1_Init+0xdc>)
 8000e14:	2204      	movs	r2, #4
 8000e16:	615a      	str	r2, [r3, #20]
  hadc1.Init.LowPowerAutoWait = DISABLE;
 8000e18:	4b1a      	ldr	r3, [pc, #104]	; (8000e84 <MX_ADC1_Init+0xdc>)
 8000e1a:	2200      	movs	r2, #0
 8000e1c:	761a      	strb	r2, [r3, #24]
  hadc1.Init.Overrun = ADC_OVR_DATA_OVERWRITTEN;
 8000e1e:	4b19      	ldr	r3, [pc, #100]	; (8000e84 <MX_ADC1_Init+0xdc>)
 8000e20:	2200      	movs	r2, #0
 8000e22:	635a      	str	r2, [r3, #52]	; 0x34
  if (HAL_ADC_Init(&hadc1) != HAL_OK)
 8000e24:	4817      	ldr	r0, [pc, #92]	; (8000e84 <MX_ADC1_Init+0xdc>)
 8000e26:	f000 fb99 	bl	800155c <HAL_ADC_Init>
 8000e2a:	4603      	mov	r3, r0
 8000e2c:	2b00      	cmp	r3, #0
 8000e2e:	d001      	beq.n	8000e34 <MX_ADC1_Init+0x8c>
  {
    Error_Handler();
 8000e30:	f000 f926 	bl	8001080 <Error_Handler>
  }
  /** Configure the ADC multi-mode 
  */
  multimode.Mode = ADC_MODE_INDEPENDENT;
 8000e34:	2300      	movs	r3, #0
 8000e36:	61fb      	str	r3, [r7, #28]
  if (HAL_ADCEx_MultiModeConfigChannel(&hadc1, &multimode) != HAL_OK)
 8000e38:	f107 031c 	add.w	r3, r7, #28
 8000e3c:	4619      	mov	r1, r3
 8000e3e:	4811      	ldr	r0, [pc, #68]	; (8000e84 <MX_ADC1_Init+0xdc>)
 8000e40:	f001 fa28 	bl	8002294 <HAL_ADCEx_MultiModeConfigChannel>
 8000e44:	4603      	mov	r3, r0
 8000e46:	2b00      	cmp	r3, #0
 8000e48:	d001      	beq.n	8000e4e <MX_ADC1_Init+0xa6>
  {
    Error_Handler();
 8000e4a:	f000 f919 	bl	8001080 <Error_Handler>
  }
  /** Configure Regular Channel 
  */
  sConfig.Channel = ADC_CHANNEL_1;
 8000e4e:	2301      	movs	r3, #1
 8000e50:	607b      	str	r3, [r7, #4]
  sConfig.Rank = ADC_REGULAR_RANK_1;
 8000e52:	2301      	movs	r3, #1
 8000e54:	60bb      	str	r3, [r7, #8]
  sConfig.SingleDiff = ADC_SINGLE_ENDED;
 8000e56:	2300      	movs	r3, #0
 8000e58:	613b      	str	r3, [r7, #16]
  sConfig.SamplingTime = ADC_SAMPLETIME_19CYCLES_5;
 8000e5a:	2304      	movs	r3, #4
 8000e5c:	60fb      	str	r3, [r7, #12]
  sConfig.OffsetNumber = ADC_OFFSET_NONE;
 8000e5e:	2300      	movs	r3, #0
 8000e60:	617b      	str	r3, [r7, #20]
  sConfig.Offset = 0;
 8000e62:	2300      	movs	r3, #0
 8000e64:	61bb      	str	r3, [r7, #24]
  if (HAL_ADC_ConfigChannel(&hadc1, &sConfig) != HAL_OK)
 8000e66:	1d3b      	adds	r3, r7, #4
 8000e68:	4619      	mov	r1, r3
 8000e6a:	4806      	ldr	r0, [pc, #24]	; (8000e84 <MX_ADC1_Init+0xdc>)
 8000e6c:	f000 ff50 	bl	8001d10 <HAL_ADC_ConfigChannel>
 8000e70:	4603      	mov	r3, r0
 8000e72:	2b00      	cmp	r3, #0
 8000e74:	d001      	beq.n	8000e7a <MX_ADC1_Init+0xd2>
  {
    Error_Handler();
 8000e76:	f000 f903 	bl	8001080 <Error_Handler>
  }
  /* USER CODE BEGIN ADC1_Init 2 */

  /* USER CODE END ADC1_Init 2 */

}
 8000e7a:	bf00      	nop
 8000e7c:	3728      	adds	r7, #40	; 0x28
 8000e7e:	46bd      	mov	sp, r7
 8000e80:	bd80      	pop	{r7, pc}
 8000e82:	bf00      	nop
 8000e84:	20000c04 	.word	0x20000c04

08000e88 <MX_DAC1_Init>:
  * @brief DAC1 Initialization Function
  * @param None
  * @retval None
  */
static void MX_DAC1_Init(void)
{
 8000e88:	b580      	push	{r7, lr}
 8000e8a:	b084      	sub	sp, #16
 8000e8c:	af00      	add	r7, sp, #0

  /* USER CODE BEGIN DAC1_Init 0 */

  /* USER CODE END DAC1_Init 0 */

  DAC_ChannelConfTypeDef sConfig = {0};
 8000e8e:	1d3b      	adds	r3, r7, #4
 8000e90:	2200      	movs	r2, #0
 8000e92:	601a      	str	r2, [r3, #0]
 8000e94:	605a      	str	r2, [r3, #4]
 8000e96:	609a      	str	r2, [r3, #8]
  /* USER CODE BEGIN DAC1_Init 1 */

  /* USER CODE END DAC1_Init 1 */
  /** DAC Initialization 
  */
  hdac1.Instance = DAC1;
 8000e98:	4b0e      	ldr	r3, [pc, #56]	; (8000ed4 <MX_DAC1_Init+0x4c>)
 8000e9a:	4a0f      	ldr	r2, [pc, #60]	; (8000ed8 <MX_DAC1_Init+0x50>)
 8000e9c:	601a      	str	r2, [r3, #0]
  if (HAL_DAC_Init(&hdac1) != HAL_OK)
 8000e9e:	480d      	ldr	r0, [pc, #52]	; (8000ed4 <MX_DAC1_Init+0x4c>)
 8000ea0:	f001 fc2f 	bl	8002702 <HAL_DAC_Init>
 8000ea4:	4603      	mov	r3, r0
 8000ea6:	2b00      	cmp	r3, #0
 8000ea8:	d001      	beq.n	8000eae <MX_DAC1_Init+0x26>
  {
    Error_Handler();
 8000eaa:	f000 f8e9 	bl	8001080 <Error_Handler>
  }
  /** DAC channel OUT1 config 
  */
  sConfig.DAC_Trigger = DAC_TRIGGER_T6_TRGO;
 8000eae:	2304      	movs	r3, #4
 8000eb0:	607b      	str	r3, [r7, #4]
  sConfig.DAC_OutputBuffer = DAC_OUTPUTBUFFER_ENABLE;
 8000eb2:	2300      	movs	r3, #0
 8000eb4:	60bb      	str	r3, [r7, #8]
  if (HAL_DAC_ConfigChannel(&hdac1, &sConfig, DAC_CHANNEL_1) != HAL_OK)
 8000eb6:	1d3b      	adds	r3, r7, #4
 8000eb8:	2200      	movs	r2, #0
 8000eba:	4619      	mov	r1, r3
 8000ebc:	4805      	ldr	r0, [pc, #20]	; (8000ed4 <MX_DAC1_Init+0x4c>)
 8000ebe:	f001 fd0f 	bl	80028e0 <HAL_DAC_ConfigChannel>
 8000ec2:	4603      	mov	r3, r0
 8000ec4:	2b00      	cmp	r3, #0
 8000ec6:	d001      	beq.n	8000ecc <MX_DAC1_Init+0x44>
  {
    Error_Handler();
 8000ec8:	f000 f8da 	bl	8001080 <Error_Handler>
  }
  /* USER CODE BEGIN DAC1_Init 2 */

  /* USER CODE END DAC1_Init 2 */

}
 8000ecc:	bf00      	nop
 8000ece:	3710      	adds	r7, #16
 8000ed0:	46bd      	mov	sp, r7
 8000ed2:	bd80      	pop	{r7, pc}
 8000ed4:	2000002c 	.word	0x2000002c
 8000ed8:	40007400 	.word	0x40007400

08000edc <MX_TIM3_Init>:
  * @brief TIM3 Initialization Function
  * @param None
  * @retval None
  */
static void MX_TIM3_Init(void)
{
 8000edc:	b580      	push	{r7, lr}
 8000ede:	b08a      	sub	sp, #40	; 0x28
 8000ee0:	af00      	add	r7, sp, #0

  /* USER CODE BEGIN TIM3_Init 0 */

  /* USER CODE END TIM3_Init 0 */

  TIM_MasterConfigTypeDef sMasterConfig = {0};
 8000ee2:	f107 031c 	add.w	r3, r7, #28
 8000ee6:	2200      	movs	r2, #0
 8000ee8:	601a      	str	r2, [r3, #0]
 8000eea:	605a      	str	r2, [r3, #4]
 8000eec:	609a      	str	r2, [r3, #8]
  TIM_OC_InitTypeDef sConfigOC = {0};
 8000eee:	463b      	mov	r3, r7
 8000ef0:	2200      	movs	r2, #0
 8000ef2:	601a      	str	r2, [r3, #0]
 8000ef4:	605a      	str	r2, [r3, #4]
 8000ef6:	609a      	str	r2, [r3, #8]
 8000ef8:	60da      	str	r2, [r3, #12]
 8000efa:	611a      	str	r2, [r3, #16]
 8000efc:	615a      	str	r2, [r3, #20]
 8000efe:	619a      	str	r2, [r3, #24]

  /* USER CODE BEGIN TIM3_Init 1 */

  /* USER CODE END TIM3_Init 1 */
  htim3.Instance = TIM3;
 8000f00:	4b21      	ldr	r3, [pc, #132]	; (8000f88 <MX_TIM3_Init+0xac>)
 8000f02:	4a22      	ldr	r2, [pc, #136]	; (8000f8c <MX_TIM3_Init+0xb0>)
 8000f04:	601a      	str	r2, [r3, #0]
  htim3.Init.Prescaler = 15.5-1;
 8000f06:	4b20      	ldr	r3, [pc, #128]	; (8000f88 <MX_TIM3_Init+0xac>)
 8000f08:	220e      	movs	r2, #14
 8000f0a:	605a      	str	r2, [r3, #4]
  htim3.Init.CounterMode = TIM_COUNTERMODE_UP;
 8000f0c:	4b1e      	ldr	r3, [pc, #120]	; (8000f88 <MX_TIM3_Init+0xac>)
 8000f0e:	2200      	movs	r2, #0
 8000f10:	609a      	str	r2, [r3, #8]
  htim3.Init.Period = 100-1;
 8000f12:	4b1d      	ldr	r3, [pc, #116]	; (8000f88 <MX_TIM3_Init+0xac>)
 8000f14:	2263      	movs	r2, #99	; 0x63
 8000f16:	60da      	str	r2, [r3, #12]
  htim3.Init.ClockDivision = TIM_CLOCKDIVISION_DIV1;
 8000f18:	4b1b      	ldr	r3, [pc, #108]	; (8000f88 <MX_TIM3_Init+0xac>)
 8000f1a:	2200      	movs	r2, #0
 8000f1c:	611a      	str	r2, [r3, #16]
  htim3.Init.AutoReloadPreload = TIM_AUTORELOAD_PRELOAD_DISABLE;
 8000f1e:	4b1a      	ldr	r3, [pc, #104]	; (8000f88 <MX_TIM3_Init+0xac>)
 8000f20:	2200      	movs	r2, #0
 8000f22:	619a      	str	r2, [r3, #24]
  if (HAL_TIM_PWM_Init(&htim3) != HAL_OK)
 8000f24:	4818      	ldr	r0, [pc, #96]	; (8000f88 <MX_TIM3_Init+0xac>)
 8000f26:	f003 fb41 	bl	80045ac <HAL_TIM_PWM_Init>
 8000f2a:	4603      	mov	r3, r0
 8000f2c:	2b00      	cmp	r3, #0
 8000f2e:	d001      	beq.n	8000f34 <MX_TIM3_Init+0x58>
  {
    Error_Handler();
 8000f30:	f000 f8a6 	bl	8001080 <Error_Handler>
  }
  sMasterConfig.MasterOutputTrigger = TIM_TRGO_RESET;
 8000f34:	2300      	movs	r3, #0
 8000f36:	61fb      	str	r3, [r7, #28]
  sMasterConfig.MasterSlaveMode = TIM_MASTERSLAVEMODE_DISABLE;
 8000f38:	2300      	movs	r3, #0
 8000f3a:	627b      	str	r3, [r7, #36]	; 0x24
  if (HAL_TIMEx_MasterConfigSynchronization(&htim3, &sMasterConfig) != HAL_OK)
 8000f3c:	f107 031c 	add.w	r3, r7, #28
 8000f40:	4619      	mov	r1, r3
 8000f42:	4811      	ldr	r0, [pc, #68]	; (8000f88 <MX_TIM3_Init+0xac>)
 8000f44:	f004 f95e 	bl	8005204 <HAL_TIMEx_MasterConfigSynchronization>
 8000f48:	4603      	mov	r3, r0
 8000f4a:	2b00      	cmp	r3, #0
 8000f4c:	d001      	beq.n	8000f52 <MX_TIM3_Init+0x76>
  {
    Error_Handler();
 8000f4e:	f000 f897 	bl	8001080 <Error_Handler>
  }
  sConfigOC.OCMode = TIM_OCMODE_PWM1;
 8000f52:	2360      	movs	r3, #96	; 0x60
 8000f54:	603b      	str	r3, [r7, #0]
  sConfigOC.Pulse = 0;
 8000f56:	2300      	movs	r3, #0
 8000f58:	607b      	str	r3, [r7, #4]
  sConfigOC.OCPolarity = TIM_OCPOLARITY_HIGH;
 8000f5a:	2300      	movs	r3, #0
 8000f5c:	60bb      	str	r3, [r7, #8]
  sConfigOC.OCFastMode = TIM_OCFAST_DISABLE;
 8000f5e:	2300      	movs	r3, #0
 8000f60:	613b      	str	r3, [r7, #16]
  if (HAL_TIM_PWM_ConfigChannel(&htim3, &sConfigOC, TIM_CHANNEL_1) != HAL_OK)
 8000f62:	463b      	mov	r3, r7
 8000f64:	2200      	movs	r2, #0
 8000f66:	4619      	mov	r1, r3
 8000f68:	4807      	ldr	r0, [pc, #28]	; (8000f88 <MX_TIM3_Init+0xac>)
 8000f6a:	f003 fcbd 	bl	80048e8 <HAL_TIM_PWM_ConfigChannel>
 8000f6e:	4603      	mov	r3, r0
 8000f70:	2b00      	cmp	r3, #0
 8000f72:	d001      	beq.n	8000f78 <MX_TIM3_Init+0x9c>
  {
    Error_Handler();
 8000f74:	f000 f884 	bl	8001080 <Error_Handler>
  }
  /* USER CODE BEGIN TIM3_Init 2 */

  /* USER CODE END TIM3_Init 2 */
  HAL_TIM_MspPostInit(&htim3);
 8000f78:	4803      	ldr	r0, [pc, #12]	; (8000f88 <MX_TIM3_Init+0xac>)
 8000f7a:	f000 f9a9 	bl	80012d0 <HAL_TIM_MspPostInit>

}
 8000f7e:	bf00      	nop
 8000f80:	3728      	adds	r7, #40	; 0x28
 8000f82:	46bd      	mov	sp, r7
 8000f84:	bd80      	pop	{r7, pc}
 8000f86:	bf00      	nop
 8000f88:	20000624 	.word	0x20000624
 8000f8c:	40000400 	.word	0x40000400

08000f90 <MX_TIM6_Init>:
  * @brief TIM6 Initialization Function
  * @param None
  * @retval None
  */
static void MX_TIM6_Init(void)
{
 8000f90:	b580      	push	{r7, lr}
 8000f92:	b084      	sub	sp, #16
 8000f94:	af00      	add	r7, sp, #0

  /* USER CODE BEGIN TIM6_Init 0 */

  /* USER CODE END TIM6_Init 0 */

  TIM_MasterConfigTypeDef sMasterConfig = {0};
 8000f96:	1d3b      	adds	r3, r7, #4
 8000f98:	2200      	movs	r2, #0
 8000f9a:	601a      	str	r2, [r3, #0]
 8000f9c:	605a      	str	r2, [r3, #4]
 8000f9e:	609a      	str	r2, [r3, #8]

  /* USER CODE BEGIN TIM6_Init 1 */

  /* USER CODE END TIM6_Init 1 */
  htim6.Instance = TIM6;
 8000fa0:	4b14      	ldr	r3, [pc, #80]	; (8000ff4 <MX_TIM6_Init+0x64>)
 8000fa2:	4a15      	ldr	r2, [pc, #84]	; (8000ff8 <MX_TIM6_Init+0x68>)
 8000fa4:	601a      	str	r2, [r3, #0]
  htim6.Init.Prescaler = 16-1;
 8000fa6:	4b13      	ldr	r3, [pc, #76]	; (8000ff4 <MX_TIM6_Init+0x64>)
 8000fa8:	220f      	movs	r2, #15
 8000faa:	605a      	str	r2, [r3, #4]
  htim6.Init.CounterMode = TIM_COUNTERMODE_UP;
 8000fac:	4b11      	ldr	r3, [pc, #68]	; (8000ff4 <MX_TIM6_Init+0x64>)
 8000fae:	2200      	movs	r2, #0
 8000fb0:	609a      	str	r2, [r3, #8]
  htim6.Init.Period = 23.5-1;
 8000fb2:	4b10      	ldr	r3, [pc, #64]	; (8000ff4 <MX_TIM6_Init+0x64>)
 8000fb4:	2216      	movs	r2, #22
 8000fb6:	60da      	str	r2, [r3, #12]
  htim6.Init.AutoReloadPreload = TIM_AUTORELOAD_PRELOAD_DISABLE;
 8000fb8:	4b0e      	ldr	r3, [pc, #56]	; (8000ff4 <MX_TIM6_Init+0x64>)
 8000fba:	2200      	movs	r2, #0
 8000fbc:	619a      	str	r2, [r3, #24]
  if (HAL_TIM_Base_Init(&htim6) != HAL_OK)
 8000fbe:	480d      	ldr	r0, [pc, #52]	; (8000ff4 <MX_TIM6_Init+0x64>)
 8000fc0:	f003 fa9e 	bl	8004500 <HAL_TIM_Base_Init>
 8000fc4:	4603      	mov	r3, r0
 8000fc6:	2b00      	cmp	r3, #0
 8000fc8:	d001      	beq.n	8000fce <MX_TIM6_Init+0x3e>
  {
    Error_Handler();
 8000fca:	f000 f859 	bl	8001080 <Error_Handler>
  }
  sMasterConfig.MasterOutputTrigger = TIM_TRGO_UPDATE;
 8000fce:	2320      	movs	r3, #32
 8000fd0:	607b      	str	r3, [r7, #4]
  sMasterConfig.MasterSlaveMode = TIM_MASTERSLAVEMODE_DISABLE;
 8000fd2:	2300      	movs	r3, #0
 8000fd4:	60fb      	str	r3, [r7, #12]
  if (HAL_TIMEx_MasterConfigSynchronization(&htim6, &sMasterConfig) != HAL_OK)
 8000fd6:	1d3b      	adds	r3, r7, #4
 8000fd8:	4619      	mov	r1, r3
 8000fda:	4806      	ldr	r0, [pc, #24]	; (8000ff4 <MX_TIM6_Init+0x64>)
 8000fdc:	f004 f912 	bl	8005204 <HAL_TIMEx_MasterConfigSynchronization>
 8000fe0:	4603      	mov	r3, r0
 8000fe2:	2b00      	cmp	r3, #0
 8000fe4:	d001      	beq.n	8000fea <MX_TIM6_Init+0x5a>
  {
    Error_Handler();
 8000fe6:	f000 f84b 	bl	8001080 <Error_Handler>
  }
  /* USER CODE BEGIN TIM6_Init 2 */

  /* USER CODE END TIM6_Init 2 */

}
 8000fea:	bf00      	nop
 8000fec:	3710      	adds	r7, #16
 8000fee:	46bd      	mov	sp, r7
 8000ff0:	bd80      	pop	{r7, pc}
 8000ff2:	bf00      	nop
 8000ff4:	20000c58 	.word	0x20000c58
 8000ff8:	40001000 	.word	0x40001000

08000ffc <MX_DMA_Init>:

/** 
  * Enable DMA controller clock
  */
static void MX_DMA_Init(void) 
{
 8000ffc:	b580      	push	{r7, lr}
 8000ffe:	b082      	sub	sp, #8
 8001000:	af00      	add	r7, sp, #0

  /* DMA controller clock enable */
  __HAL_RCC_DMA1_CLK_ENABLE();
 8001002:	4b0c      	ldr	r3, [pc, #48]	; (8001034 <MX_DMA_Init+0x38>)
 8001004:	695b      	ldr	r3, [r3, #20]
 8001006:	4a0b      	ldr	r2, [pc, #44]	; (8001034 <MX_DMA_Init+0x38>)
 8001008:	f043 0301 	orr.w	r3, r3, #1
 800100c:	6153      	str	r3, [r2, #20]
 800100e:	4b09      	ldr	r3, [pc, #36]	; (8001034 <MX_DMA_Init+0x38>)
 8001010:	695b      	ldr	r3, [r3, #20]
 8001012:	f003 0301 	and.w	r3, r3, #1
 8001016:	607b      	str	r3, [r7, #4]
 8001018:	687b      	ldr	r3, [r7, #4]

  /* DMA interrupt init */
  /* DMA1_Channel3_IRQn interrupt configuration */
  HAL_NVIC_SetPriority(DMA1_Channel3_IRQn, 0, 0);
 800101a:	2200      	movs	r2, #0
 800101c:	2100      	movs	r1, #0
 800101e:	200d      	movs	r0, #13
 8001020:	f001 fb39 	bl	8002696 <HAL_NVIC_SetPriority>
  HAL_NVIC_EnableIRQ(DMA1_Channel3_IRQn);
 8001024:	200d      	movs	r0, #13
 8001026:	f001 fb52 	bl	80026ce <HAL_NVIC_EnableIRQ>

}
 800102a:	bf00      	nop
 800102c:	3708      	adds	r7, #8
 800102e:	46bd      	mov	sp, r7
 8001030:	bd80      	pop	{r7, pc}
 8001032:	bf00      	nop
 8001034:	40021000 	.word	0x40021000

08001038 <MX_GPIO_Init>:
  * @brief GPIO Initialization Function
  * @param None
  * @retval None
  */
static void MX_GPIO_Init(void)
{
 8001038:	b480      	push	{r7}
 800103a:	b083      	sub	sp, #12
 800103c:	af00      	add	r7, sp, #0

  /* GPIO Ports Clock Enable */
  __HAL_RCC_GPIOF_CLK_ENABLE();
 800103e:	4b0f      	ldr	r3, [pc, #60]	; (800107c <MX_GPIO_Init+0x44>)
 8001040:	695b      	ldr	r3, [r3, #20]
 8001042:	4a0e      	ldr	r2, [pc, #56]	; (800107c <MX_GPIO_Init+0x44>)
 8001044:	f443 0380 	orr.w	r3, r3, #4194304	; 0x400000
 8001048:	6153      	str	r3, [r2, #20]
 800104a:	4b0c      	ldr	r3, [pc, #48]	; (800107c <MX_GPIO_Init+0x44>)
 800104c:	695b      	ldr	r3, [r3, #20]
 800104e:	f403 0380 	and.w	r3, r3, #4194304	; 0x400000
 8001052:	607b      	str	r3, [r7, #4]
 8001054:	687b      	ldr	r3, [r7, #4]
  __HAL_RCC_GPIOA_CLK_ENABLE();
 8001056:	4b09      	ldr	r3, [pc, #36]	; (800107c <MX_GPIO_Init+0x44>)
 8001058:	695b      	ldr	r3, [r3, #20]
 800105a:	4a08      	ldr	r2, [pc, #32]	; (800107c <MX_GPIO_Init+0x44>)
 800105c:	f443 3300 	orr.w	r3, r3, #131072	; 0x20000
 8001060:	6153      	str	r3, [r2, #20]
 8001062:	4b06      	ldr	r3, [pc, #24]	; (800107c <MX_GPIO_Init+0x44>)
 8001064:	695b      	ldr	r3, [r3, #20]
 8001066:	f403 3300 	and.w	r3, r3, #131072	; 0x20000
 800106a:	603b      	str	r3, [r7, #0]
 800106c:	683b      	ldr	r3, [r7, #0]

}
 800106e:	bf00      	nop
 8001070:	370c      	adds	r7, #12
 8001072:	46bd      	mov	sp, r7
 8001074:	f85d 7b04 	ldr.w	r7, [sp], #4
 8001078:	4770      	bx	lr
 800107a:	bf00      	nop
 800107c:	40021000 	.word	0x40021000

08001080 <Error_Handler>:
/**
  * @brief  This function is executed in case of error occurrence.
  * @retval None
  */
void Error_Handler(void)
{
 8001080:	b480      	push	{r7}
 8001082:	af00      	add	r7, sp, #0
  /* USER CODE BEGIN Error_Handler_Debug */
  /* User can add his own implementation to report the HAL error return state */

  /* USER CODE END Error_Handler_Debug */
}
 8001084:	bf00      	nop
 8001086:	46bd      	mov	sp, r7
 8001088:	f85d 7b04 	ldr.w	r7, [sp], #4
 800108c:	4770      	bx	lr
	...

08001090 <HAL_MspInit>:
void HAL_TIM_MspPostInit(TIM_HandleTypeDef *htim);
                    /**
  * Initializes the Global MSP.
  */
void HAL_MspInit(void)
{
 8001090:	b480      	push	{r7}
 8001092:	b083      	sub	sp, #12
 8001094:	af00      	add	r7, sp, #0
  /* USER CODE BEGIN MspInit 0 */

  /* USER CODE END MspInit 0 */

  __HAL_RCC_SYSCFG_CLK_ENABLE();
 8001096:	4b0f      	ldr	r3, [pc, #60]	; (80010d4 <HAL_MspInit+0x44>)
 8001098:	699b      	ldr	r3, [r3, #24]
 800109a:	4a0e      	ldr	r2, [pc, #56]	; (80010d4 <HAL_MspInit+0x44>)
 800109c:	f043 0301 	orr.w	r3, r3, #1
 80010a0:	6193      	str	r3, [r2, #24]
 80010a2:	4b0c      	ldr	r3, [pc, #48]	; (80010d4 <HAL_MspInit+0x44>)
 80010a4:	699b      	ldr	r3, [r3, #24]
 80010a6:	f003 0301 	and.w	r3, r3, #1
 80010aa:	607b      	str	r3, [r7, #4]
 80010ac:	687b      	ldr	r3, [r7, #4]
  __HAL_RCC_PWR_CLK_ENABLE();
 80010ae:	4b09      	ldr	r3, [pc, #36]	; (80010d4 <HAL_MspInit+0x44>)
 80010b0:	69db      	ldr	r3, [r3, #28]
 80010b2:	4a08      	ldr	r2, [pc, #32]	; (80010d4 <HAL_MspInit+0x44>)
 80010b4:	f043 5380 	orr.w	r3, r3, #268435456	; 0x10000000
 80010b8:	61d3      	str	r3, [r2, #28]
 80010ba:	4b06      	ldr	r3, [pc, #24]	; (80010d4 <HAL_MspInit+0x44>)
 80010bc:	69db      	ldr	r3, [r3, #28]
 80010be:	f003 5380 	and.w	r3, r3, #268435456	; 0x10000000
 80010c2:	603b      	str	r3, [r7, #0]
 80010c4:	683b      	ldr	r3, [r7, #0]
  /* System interrupt init*/

  /* USER CODE BEGIN MspInit 1 */

  /* USER CODE END MspInit 1 */
}
 80010c6:	bf00      	nop
 80010c8:	370c      	adds	r7, #12
 80010ca:	46bd      	mov	sp, r7
 80010cc:	f85d 7b04 	ldr.w	r7, [sp], #4
 80010d0:	4770      	bx	lr
 80010d2:	bf00      	nop
 80010d4:	40021000 	.word	0x40021000

080010d8 <HAL_ADC_MspInit>:
* This function configures the hardware resources used in this example
* @param hadc: ADC handle pointer
* @retval None
*/
void HAL_ADC_MspInit(ADC_HandleTypeDef* hadc)
{
 80010d8:	b580      	push	{r7, lr}
 80010da:	b08a      	sub	sp, #40	; 0x28
 80010dc:	af00      	add	r7, sp, #0
 80010de:	6078      	str	r0, [r7, #4]
  GPIO_InitTypeDef GPIO_InitStruct = {0};
 80010e0:	f107 0314 	add.w	r3, r7, #20
 80010e4:	2200      	movs	r2, #0
 80010e6:	601a      	str	r2, [r3, #0]
 80010e8:	605a      	str	r2, [r3, #4]
 80010ea:	609a      	str	r2, [r3, #8]
 80010ec:	60da      	str	r2, [r3, #12]
 80010ee:	611a      	str	r2, [r3, #16]
  if(hadc->Instance==ADC1)
 80010f0:	687b      	ldr	r3, [r7, #4]
 80010f2:	681b      	ldr	r3, [r3, #0]
 80010f4:	f1b3 4fa0 	cmp.w	r3, #1342177280	; 0x50000000
 80010f8:	d12c      	bne.n	8001154 <HAL_ADC_MspInit+0x7c>
  {
  /* USER CODE BEGIN ADC1_MspInit 0 */

  /* USER CODE END ADC1_MspInit 0 */
    /* Peripheral clock enable */
    __HAL_RCC_ADC12_CLK_ENABLE();
 80010fa:	4b18      	ldr	r3, [pc, #96]	; (800115c <HAL_ADC_MspInit+0x84>)
 80010fc:	695b      	ldr	r3, [r3, #20]
 80010fe:	4a17      	ldr	r2, [pc, #92]	; (800115c <HAL_ADC_MspInit+0x84>)
 8001100:	f043 5380 	orr.w	r3, r3, #268435456	; 0x10000000
 8001104:	6153      	str	r3, [r2, #20]
 8001106:	4b15      	ldr	r3, [pc, #84]	; (800115c <HAL_ADC_MspInit+0x84>)
 8001108:	695b      	ldr	r3, [r3, #20]
 800110a:	f003 5380 	and.w	r3, r3, #268435456	; 0x10000000
 800110e:	613b      	str	r3, [r7, #16]
 8001110:	693b      	ldr	r3, [r7, #16]
  
    __HAL_RCC_GPIOA_CLK_ENABLE();
 8001112:	4b12      	ldr	r3, [pc, #72]	; (800115c <HAL_ADC_MspInit+0x84>)
 8001114:	695b      	ldr	r3, [r3, #20]
 8001116:	4a11      	ldr	r2, [pc, #68]	; (800115c <HAL_ADC_MspInit+0x84>)
 8001118:	f443 3300 	orr.w	r3, r3, #131072	; 0x20000
 800111c:	6153      	str	r3, [r2, #20]
 800111e:	4b0f      	ldr	r3, [pc, #60]	; (800115c <HAL_ADC_MspInit+0x84>)
 8001120:	695b      	ldr	r3, [r3, #20]
 8001122:	f403 3300 	and.w	r3, r3, #131072	; 0x20000
 8001126:	60fb      	str	r3, [r7, #12]
 8001128:	68fb      	ldr	r3, [r7, #12]
    /**ADC1 GPIO Configuration    
    PA0     ------> ADC1_IN1 
    */
    GPIO_InitStruct.Pin = GPIO_PIN_0;
 800112a:	2301      	movs	r3, #1
 800112c:	617b      	str	r3, [r7, #20]
    GPIO_InitStruct.Mode = GPIO_MODE_ANALOG;
 800112e:	2303      	movs	r3, #3
 8001130:	61bb      	str	r3, [r7, #24]
    GPIO_InitStruct.Pull = GPIO_NOPULL;
 8001132:	2300      	movs	r3, #0
 8001134:	61fb      	str	r3, [r7, #28]
    HAL_GPIO_Init(GPIOA, &GPIO_InitStruct);
 8001136:	f107 0314 	add.w	r3, r7, #20
 800113a:	4619      	mov	r1, r3
 800113c:	f04f 4090 	mov.w	r0, #1207959552	; 0x48000000
 8001140:	f001 fe58 	bl	8002df4 <HAL_GPIO_Init>

    /* ADC1 interrupt Init */
    HAL_NVIC_SetPriority(ADC1_2_IRQn, 0, 0);
 8001144:	2200      	movs	r2, #0
 8001146:	2100      	movs	r1, #0
 8001148:	2012      	movs	r0, #18
 800114a:	f001 faa4 	bl	8002696 <HAL_NVIC_SetPriority>
    HAL_NVIC_EnableIRQ(ADC1_2_IRQn);
 800114e:	2012      	movs	r0, #18
 8001150:	f001 fabd 	bl	80026ce <HAL_NVIC_EnableIRQ>
  /* USER CODE BEGIN ADC1_MspInit 1 */

  /* USER CODE END ADC1_MspInit 1 */
  }

}
 8001154:	bf00      	nop
 8001156:	3728      	adds	r7, #40	; 0x28
 8001158:	46bd      	mov	sp, r7
 800115a:	bd80      	pop	{r7, pc}
 800115c:	40021000 	.word	0x40021000

08001160 <HAL_DAC_MspInit>:
* This function configures the hardware resources used in this example
* @param hdac: DAC handle pointer
* @retval None
*/
void HAL_DAC_MspInit(DAC_HandleTypeDef* hdac)
{
 8001160:	b580      	push	{r7, lr}
 8001162:	b08a      	sub	sp, #40	; 0x28
 8001164:	af00      	add	r7, sp, #0
 8001166:	6078      	str	r0, [r7, #4]
  GPIO_InitTypeDef GPIO_InitStruct = {0};
 8001168:	f107 0314 	add.w	r3, r7, #20
 800116c:	2200      	movs	r2, #0
 800116e:	601a      	str	r2, [r3, #0]
 8001170:	605a      	str	r2, [r3, #4]
 8001172:	609a      	str	r2, [r3, #8]
 8001174:	60da      	str	r2, [r3, #12]
 8001176:	611a      	str	r2, [r3, #16]
  if(hdac->Instance==DAC1)
 8001178:	687b      	ldr	r3, [r7, #4]
 800117a:	681b      	ldr	r3, [r3, #0]
 800117c:	4a2c      	ldr	r2, [pc, #176]	; (8001230 <HAL_DAC_MspInit+0xd0>)
 800117e:	4293      	cmp	r3, r2
 8001180:	d152      	bne.n	8001228 <HAL_DAC_MspInit+0xc8>
  {
  /* USER CODE BEGIN DAC1_MspInit 0 */

  /* USER CODE END DAC1_MspInit 0 */
    /* Peripheral clock enable */
    __HAL_RCC_DAC1_CLK_ENABLE();
 8001182:	4b2c      	ldr	r3, [pc, #176]	; (8001234 <HAL_DAC_MspInit+0xd4>)
 8001184:	69db      	ldr	r3, [r3, #28]
 8001186:	4a2b      	ldr	r2, [pc, #172]	; (8001234 <HAL_DAC_MspInit+0xd4>)
 8001188:	f043 5300 	orr.w	r3, r3, #536870912	; 0x20000000
 800118c:	61d3      	str	r3, [r2, #28]
 800118e:	4b29      	ldr	r3, [pc, #164]	; (8001234 <HAL_DAC_MspInit+0xd4>)
 8001190:	69db      	ldr	r3, [r3, #28]
 8001192:	f003 5300 	and.w	r3, r3, #536870912	; 0x20000000
 8001196:	613b      	str	r3, [r7, #16]
 8001198:	693b      	ldr	r3, [r7, #16]
  
    __HAL_RCC_GPIOA_CLK_ENABLE();
 800119a:	4b26      	ldr	r3, [pc, #152]	; (8001234 <HAL_DAC_MspInit+0xd4>)
 800119c:	695b      	ldr	r3, [r3, #20]
 800119e:	4a25      	ldr	r2, [pc, #148]	; (8001234 <HAL_DAC_MspInit+0xd4>)
 80011a0:	f443 3300 	orr.w	r3, r3, #131072	; 0x20000
 80011a4:	6153      	str	r3, [r2, #20]
 80011a6:	4b23      	ldr	r3, [pc, #140]	; (8001234 <HAL_DAC_MspInit+0xd4>)
 80011a8:	695b      	ldr	r3, [r3, #20]
 80011aa:	f403 3300 	and.w	r3, r3, #131072	; 0x20000
 80011ae:	60fb      	str	r3, [r7, #12]
 80011b0:	68fb      	ldr	r3, [r7, #12]
    /**DAC1 GPIO Configuration    
    PA4     ------> DAC1_OUT1 
    */
    GPIO_InitStruct.Pin = GPIO_PIN_4;
 80011b2:	2310      	movs	r3, #16
 80011b4:	617b      	str	r3, [r7, #20]
    GPIO_InitStruct.Mode = GPIO_MODE_ANALOG;
 80011b6:	2303      	movs	r3, #3
 80011b8:	61bb      	str	r3, [r7, #24]
    GPIO_InitStruct.Pull = GPIO_NOPULL;
 80011ba:	2300      	movs	r3, #0
 80011bc:	61fb      	str	r3, [r7, #28]
    HAL_GPIO_Init(GPIOA, &GPIO_InitStruct);
 80011be:	f107 0314 	add.w	r3, r7, #20
 80011c2:	4619      	mov	r1, r3
 80011c4:	f04f 4090 	mov.w	r0, #1207959552	; 0x48000000
 80011c8:	f001 fe14 	bl	8002df4 <HAL_GPIO_Init>

    /* DAC1 DMA Init */
    /* DAC1_CH1 Init */
    hdma_dac1_ch1.Instance = DMA1_Channel3;
 80011cc:	4b1a      	ldr	r3, [pc, #104]	; (8001238 <HAL_DAC_MspInit+0xd8>)
 80011ce:	4a1b      	ldr	r2, [pc, #108]	; (800123c <HAL_DAC_MspInit+0xdc>)
 80011d0:	601a      	str	r2, [r3, #0]
    hdma_dac1_ch1.Init.Direction = DMA_MEMORY_TO_PERIPH;
 80011d2:	4b19      	ldr	r3, [pc, #100]	; (8001238 <HAL_DAC_MspInit+0xd8>)
 80011d4:	2210      	movs	r2, #16
 80011d6:	605a      	str	r2, [r3, #4]
    hdma_dac1_ch1.Init.PeriphInc = DMA_PINC_DISABLE;
 80011d8:	4b17      	ldr	r3, [pc, #92]	; (8001238 <HAL_DAC_MspInit+0xd8>)
 80011da:	2200      	movs	r2, #0
 80011dc:	609a      	str	r2, [r3, #8]
    hdma_dac1_ch1.Init.MemInc = DMA_MINC_ENABLE;
 80011de:	4b16      	ldr	r3, [pc, #88]	; (8001238 <HAL_DAC_MspInit+0xd8>)
 80011e0:	2280      	movs	r2, #128	; 0x80
 80011e2:	60da      	str	r2, [r3, #12]
    hdma_dac1_ch1.Init.PeriphDataAlignment = DMA_PDATAALIGN_WORD;
 80011e4:	4b14      	ldr	r3, [pc, #80]	; (8001238 <HAL_DAC_MspInit+0xd8>)
 80011e6:	f44f 7200 	mov.w	r2, #512	; 0x200
 80011ea:	611a      	str	r2, [r3, #16]
    hdma_dac1_ch1.Init.MemDataAlignment = DMA_MDATAALIGN_WORD;
 80011ec:	4b12      	ldr	r3, [pc, #72]	; (8001238 <HAL_DAC_MspInit+0xd8>)
 80011ee:	f44f 6200 	mov.w	r2, #2048	; 0x800
 80011f2:	615a      	str	r2, [r3, #20]
    hdma_dac1_ch1.Init.Mode = DMA_CIRCULAR;
 80011f4:	4b10      	ldr	r3, [pc, #64]	; (8001238 <HAL_DAC_MspInit+0xd8>)
 80011f6:	2220      	movs	r2, #32
 80011f8:	619a      	str	r2, [r3, #24]
    hdma_dac1_ch1.Init.Priority = DMA_PRIORITY_LOW;
 80011fa:	4b0f      	ldr	r3, [pc, #60]	; (8001238 <HAL_DAC_MspInit+0xd8>)
 80011fc:	2200      	movs	r2, #0
 80011fe:	61da      	str	r2, [r3, #28]
    if (HAL_DMA_Init(&hdma_dac1_ch1) != HAL_OK)
 8001200:	480d      	ldr	r0, [pc, #52]	; (8001238 <HAL_DAC_MspInit+0xd8>)
 8001202:	f001 fc5f 	bl	8002ac4 <HAL_DMA_Init>
 8001206:	4603      	mov	r3, r0
 8001208:	2b00      	cmp	r3, #0
 800120a:	d001      	beq.n	8001210 <HAL_DAC_MspInit+0xb0>
    {
      Error_Handler();
 800120c:	f7ff ff38 	bl	8001080 <Error_Handler>
    }

    __HAL_DMA_REMAP_CHANNEL_ENABLE(HAL_REMAPDMA_TIM6_DAC1_CH1_DMA1_CH3);
 8001210:	4b0b      	ldr	r3, [pc, #44]	; (8001240 <HAL_DAC_MspInit+0xe0>)
 8001212:	681b      	ldr	r3, [r3, #0]
 8001214:	4a0a      	ldr	r2, [pc, #40]	; (8001240 <HAL_DAC_MspInit+0xe0>)
 8001216:	f443 5300 	orr.w	r3, r3, #8192	; 0x2000
 800121a:	6013      	str	r3, [r2, #0]

    __HAL_LINKDMA(hdac,DMA_Handle1,hdma_dac1_ch1);
 800121c:	687b      	ldr	r3, [r7, #4]
 800121e:	4a06      	ldr	r2, [pc, #24]	; (8001238 <HAL_DAC_MspInit+0xd8>)
 8001220:	609a      	str	r2, [r3, #8]
 8001222:	4a05      	ldr	r2, [pc, #20]	; (8001238 <HAL_DAC_MspInit+0xd8>)
 8001224:	687b      	ldr	r3, [r7, #4]
 8001226:	6253      	str	r3, [r2, #36]	; 0x24
  /* USER CODE BEGIN DAC1_MspInit 1 */

  /* USER CODE END DAC1_MspInit 1 */
  }

}
 8001228:	bf00      	nop
 800122a:	3728      	adds	r7, #40	; 0x28
 800122c:	46bd      	mov	sp, r7
 800122e:	bd80      	pop	{r7, pc}
 8001230:	40007400 	.word	0x40007400
 8001234:	40021000 	.word	0x40021000
 8001238:	200005e0 	.word	0x200005e0
 800123c:	40020030 	.word	0x40020030
 8001240:	40010000 	.word	0x40010000

08001244 <HAL_TIM_PWM_MspInit>:
* This function configures the hardware resources used in this example
* @param htim_pwm: TIM_PWM handle pointer
* @retval None
*/
void HAL_TIM_PWM_MspInit(TIM_HandleTypeDef* htim_pwm)
{
 8001244:	b580      	push	{r7, lr}
 8001246:	b084      	sub	sp, #16
 8001248:	af00      	add	r7, sp, #0
 800124a:	6078      	str	r0, [r7, #4]
  if(htim_pwm->Instance==TIM3)
 800124c:	687b      	ldr	r3, [r7, #4]
 800124e:	681b      	ldr	r3, [r3, #0]
 8001250:	4a0d      	ldr	r2, [pc, #52]	; (8001288 <HAL_TIM_PWM_MspInit+0x44>)
 8001252:	4293      	cmp	r3, r2
 8001254:	d113      	bne.n	800127e <HAL_TIM_PWM_MspInit+0x3a>
  {
  /* USER CODE BEGIN TIM3_MspInit 0 */

  /* USER CODE END TIM3_MspInit 0 */
    /* Peripheral clock enable */
    __HAL_RCC_TIM3_CLK_ENABLE();
 8001256:	4b0d      	ldr	r3, [pc, #52]	; (800128c <HAL_TIM_PWM_MspInit+0x48>)
 8001258:	69db      	ldr	r3, [r3, #28]
 800125a:	4a0c      	ldr	r2, [pc, #48]	; (800128c <HAL_TIM_PWM_MspInit+0x48>)
 800125c:	f043 0302 	orr.w	r3, r3, #2
 8001260:	61d3      	str	r3, [r2, #28]
 8001262:	4b0a      	ldr	r3, [pc, #40]	; (800128c <HAL_TIM_PWM_MspInit+0x48>)
 8001264:	69db      	ldr	r3, [r3, #28]
 8001266:	f003 0302 	and.w	r3, r3, #2
 800126a:	60fb      	str	r3, [r7, #12]
 800126c:	68fb      	ldr	r3, [r7, #12]
    /* TIM3 interrupt Init */
    HAL_NVIC_SetPriority(TIM3_IRQn, 0, 0);
 800126e:	2200      	movs	r2, #0
 8001270:	2100      	movs	r1, #0
 8001272:	201d      	movs	r0, #29
 8001274:	f001 fa0f 	bl	8002696 <HAL_NVIC_SetPriority>
    HAL_NVIC_EnableIRQ(TIM3_IRQn);
 8001278:	201d      	movs	r0, #29
 800127a:	f001 fa28 	bl	80026ce <HAL_NVIC_EnableIRQ>
  /* USER CODE BEGIN TIM3_MspInit 1 */

  /* USER CODE END TIM3_MspInit 1 */
  }

}
 800127e:	bf00      	nop
 8001280:	3710      	adds	r7, #16
 8001282:	46bd      	mov	sp, r7
 8001284:	bd80      	pop	{r7, pc}
 8001286:	bf00      	nop
 8001288:	40000400 	.word	0x40000400
 800128c:	40021000 	.word	0x40021000

08001290 <HAL_TIM_Base_MspInit>:
* This function configures the hardware resources used in this example
* @param htim_base: TIM_Base handle pointer
* @retval None
*/
void HAL_TIM_Base_MspInit(TIM_HandleTypeDef* htim_base)
{
 8001290:	b480      	push	{r7}
 8001292:	b085      	sub	sp, #20
 8001294:	af00      	add	r7, sp, #0
 8001296:	6078      	str	r0, [r7, #4]
  if(htim_base->Instance==TIM6)
 8001298:	687b      	ldr	r3, [r7, #4]
 800129a:	681b      	ldr	r3, [r3, #0]
 800129c:	4a0a      	ldr	r2, [pc, #40]	; (80012c8 <HAL_TIM_Base_MspInit+0x38>)
 800129e:	4293      	cmp	r3, r2
 80012a0:	d10b      	bne.n	80012ba <HAL_TIM_Base_MspInit+0x2a>
  {
  /* USER CODE BEGIN TIM6_MspInit 0 */

  /* USER CODE END TIM6_MspInit 0 */
    /* Peripheral clock enable */
    __HAL_RCC_TIM6_CLK_ENABLE();
 80012a2:	4b0a      	ldr	r3, [pc, #40]	; (80012cc <HAL_TIM_Base_MspInit+0x3c>)
 80012a4:	69db      	ldr	r3, [r3, #28]
 80012a6:	4a09      	ldr	r2, [pc, #36]	; (80012cc <HAL_TIM_Base_MspInit+0x3c>)
 80012a8:	f043 0310 	orr.w	r3, r3, #16
 80012ac:	61d3      	str	r3, [r2, #28]
 80012ae:	4b07      	ldr	r3, [pc, #28]	; (80012cc <HAL_TIM_Base_MspInit+0x3c>)
 80012b0:	69db      	ldr	r3, [r3, #28]
 80012b2:	f003 0310 	and.w	r3, r3, #16
 80012b6:	60fb      	str	r3, [r7, #12]
 80012b8:	68fb      	ldr	r3, [r7, #12]
  /* USER CODE BEGIN TIM6_MspInit 1 */

  /* USER CODE END TIM6_MspInit 1 */
  }

}
 80012ba:	bf00      	nop
 80012bc:	3714      	adds	r7, #20
 80012be:	46bd      	mov	sp, r7
 80012c0:	f85d 7b04 	ldr.w	r7, [sp], #4
 80012c4:	4770      	bx	lr
 80012c6:	bf00      	nop
 80012c8:	40001000 	.word	0x40001000
 80012cc:	40021000 	.word	0x40021000

080012d0 <HAL_TIM_MspPostInit>:

void HAL_TIM_MspPostInit(TIM_HandleTypeDef* htim)
{
 80012d0:	b580      	push	{r7, lr}
 80012d2:	b088      	sub	sp, #32
 80012d4:	af00      	add	r7, sp, #0
 80012d6:	6078      	str	r0, [r7, #4]
  GPIO_InitTypeDef GPIO_InitStruct = {0};
 80012d8:	f107 030c 	add.w	r3, r7, #12
 80012dc:	2200      	movs	r2, #0
 80012de:	601a      	str	r2, [r3, #0]
 80012e0:	605a      	str	r2, [r3, #4]
 80012e2:	609a      	str	r2, [r3, #8]
 80012e4:	60da      	str	r2, [r3, #12]
 80012e6:	611a      	str	r2, [r3, #16]
  if(htim->Instance==TIM3)
 80012e8:	687b      	ldr	r3, [r7, #4]
 80012ea:	681b      	ldr	r3, [r3, #0]
 80012ec:	4a11      	ldr	r2, [pc, #68]	; (8001334 <HAL_TIM_MspPostInit+0x64>)
 80012ee:	4293      	cmp	r3, r2
 80012f0:	d11c      	bne.n	800132c <HAL_TIM_MspPostInit+0x5c>
  {
  /* USER CODE BEGIN TIM3_MspPostInit 0 */

  /* USER CODE END TIM3_MspPostInit 0 */
  
    __HAL_RCC_GPIOA_CLK_ENABLE();
 80012f2:	4b11      	ldr	r3, [pc, #68]	; (8001338 <HAL_TIM_MspPostInit+0x68>)
 80012f4:	695b      	ldr	r3, [r3, #20]
 80012f6:	4a10      	ldr	r2, [pc, #64]	; (8001338 <HAL_TIM_MspPostInit+0x68>)
 80012f8:	f443 3300 	orr.w	r3, r3, #131072	; 0x20000
 80012fc:	6153      	str	r3, [r2, #20]
 80012fe:	4b0e      	ldr	r3, [pc, #56]	; (8001338 <HAL_TIM_MspPostInit+0x68>)
 8001300:	695b      	ldr	r3, [r3, #20]
 8001302:	f403 3300 	and.w	r3, r3, #131072	; 0x20000
 8001306:	60bb      	str	r3, [r7, #8]
 8001308:	68bb      	ldr	r3, [r7, #8]
    /**TIM3 GPIO Configuration    
    PA6     ------> TIM3_CH1 
    */
    GPIO_InitStruct.Pin = GPIO_PIN_6;
 800130a:	2340      	movs	r3, #64	; 0x40
 800130c:	60fb      	str	r3, [r7, #12]
    GPIO_InitStruct.Mode = GPIO_MODE_AF_PP;
 800130e:	2302      	movs	r3, #2
 8001310:	613b      	str	r3, [r7, #16]
    GPIO_InitStruct.Pull = GPIO_NOPULL;
 8001312:	2300      	movs	r3, #0
 8001314:	617b      	str	r3, [r7, #20]
    GPIO_InitStruct.Speed = GPIO_SPEED_FREQ_LOW;
 8001316:	2300      	movs	r3, #0
 8001318:	61bb      	str	r3, [r7, #24]
    GPIO_InitStruct.Alternate = GPIO_AF2_TIM3;
 800131a:	2302      	movs	r3, #2
 800131c:	61fb      	str	r3, [r7, #28]
    HAL_GPIO_Init(GPIOA, &GPIO_InitStruct);
 800131e:	f107 030c 	add.w	r3, r7, #12
 8001322:	4619      	mov	r1, r3
 8001324:	f04f 4090 	mov.w	r0, #1207959552	; 0x48000000
 8001328:	f001 fd64 	bl	8002df4 <HAL_GPIO_Init>
  /* USER CODE BEGIN TIM3_MspPostInit 1 */

  /* USER CODE END TIM3_MspPostInit 1 */
  }

}
 800132c:	bf00      	nop
 800132e:	3720      	adds	r7, #32
 8001330:	46bd      	mov	sp, r7
 8001332:	bd80      	pop	{r7, pc}
 8001334:	40000400 	.word	0x40000400
 8001338:	40021000 	.word	0x40021000

0800133c <NMI_Handler>:
/******************************************************************************/
/**
  * @brief This function handles Non maskable interrupt.
  */
void NMI_Handler(void)
{
 800133c:	b480      	push	{r7}
 800133e:	af00      	add	r7, sp, #0

  /* USER CODE END NonMaskableInt_IRQn 0 */
  /* USER CODE BEGIN NonMaskableInt_IRQn 1 */

  /* USER CODE END NonMaskableInt_IRQn 1 */
}
 8001340:	bf00      	nop
 8001342:	46bd      	mov	sp, r7
 8001344:	f85d 7b04 	ldr.w	r7, [sp], #4
 8001348:	4770      	bx	lr

0800134a <HardFault_Handler>:

/**
  * @brief This function handles Hard fault interrupt.
  */
void HardFault_Handler(void)
{
 800134a:	b480      	push	{r7}
 800134c:	af00      	add	r7, sp, #0
  /* USER CODE BEGIN HardFault_IRQn 0 */

  /* USER CODE END HardFault_IRQn 0 */
  while (1)
 800134e:	e7fe      	b.n	800134e <HardFault_Handler+0x4>

08001350 <MemManage_Handler>:

/**
  * @brief This function handles Memory management fault.
  */
void MemManage_Handler(void)
{
 8001350:	b480      	push	{r7}
 8001352:	af00      	add	r7, sp, #0
  /* USER CODE BEGIN MemoryManagement_IRQn 0 */

  /* USER CODE END MemoryManagement_IRQn 0 */
  while (1)
 8001354:	e7fe      	b.n	8001354 <MemManage_Handler+0x4>

08001356 <BusFault_Handler>:

/**
  * @brief This function handles Pre-fetch fault, memory access fault.
  */
void BusFault_Handler(void)
{
 8001356:	b480      	push	{r7}
 8001358:	af00      	add	r7, sp, #0
  /* USER CODE BEGIN BusFault_IRQn 0 */

  /* USER CODE END BusFault_IRQn 0 */
  while (1)
 800135a:	e7fe      	b.n	800135a <BusFault_Handler+0x4>

0800135c <UsageFault_Handler>:

/**
  * @brief This function handles Undefined instruction or illegal state.
  */
void UsageFault_Handler(void)
{
 800135c:	b480      	push	{r7}
 800135e:	af00      	add	r7, sp, #0
  /* USER CODE BEGIN UsageFault_IRQn 0 */

  /* USER CODE END UsageFault_IRQn 0 */
  while (1)
 8001360:	e7fe      	b.n	8001360 <UsageFault_Handler+0x4>

08001362 <SVC_Handler>:

/**
  * @brief This function handles System service call via SWI instruction.
  */
void SVC_Handler(void)
{
 8001362:	b480      	push	{r7}
 8001364:	af00      	add	r7, sp, #0

  /* USER CODE END SVCall_IRQn 0 */
  /* USER CODE BEGIN SVCall_IRQn 1 */

  /* USER CODE END SVCall_IRQn 1 */
}
 8001366:	bf00      	nop
 8001368:	46bd      	mov	sp, r7
 800136a:	f85d 7b04 	ldr.w	r7, [sp], #4
 800136e:	4770      	bx	lr

08001370 <DebugMon_Handler>:

/**
  * @brief This function handles Debug monitor.
  */
void DebugMon_Handler(void)
{
 8001370:	b480      	push	{r7}
 8001372:	af00      	add	r7, sp, #0

  /* USER CODE END DebugMonitor_IRQn 0 */
  /* USER CODE BEGIN DebugMonitor_IRQn 1 */

  /* USER CODE END DebugMonitor_IRQn 1 */
}
 8001374:	bf00      	nop
 8001376:	46bd      	mov	sp, r7
 8001378:	f85d 7b04 	ldr.w	r7, [sp], #4
 800137c:	4770      	bx	lr

0800137e <PendSV_Handler>:

/**
  * @brief This function handles Pendable request for system service.
  */
void PendSV_Handler(void)
{
 800137e:	b480      	push	{r7}
 8001380:	af00      	add	r7, sp, #0

  /* USER CODE END PendSV_IRQn 0 */
  /* USER CODE BEGIN PendSV_IRQn 1 */

  /* USER CODE END PendSV_IRQn 1 */
}
 8001382:	bf00      	nop
 8001384:	46bd      	mov	sp, r7
 8001386:	f85d 7b04 	ldr.w	r7, [sp], #4
 800138a:	4770      	bx	lr

0800138c <SysTick_Handler>:

/**
  * @brief This function handles System tick timer.
  */
void SysTick_Handler(void)
{
 800138c:	b580      	push	{r7, lr}
 800138e:	af00      	add	r7, sp, #0
  /* USER CODE BEGIN SysTick_IRQn 0 */

  /* USER CODE END SysTick_IRQn 0 */
  HAL_IncTick();
 8001390:	f000 f8a6 	bl	80014e0 <HAL_IncTick>
  /* USER CODE BEGIN SysTick_IRQn 1 */

  /* USER CODE END SysTick_IRQn 1 */
}
 8001394:	bf00      	nop
 8001396:	bd80      	pop	{r7, pc}

08001398 <DMA1_Channel3_IRQHandler>:

/**
  * @brief This function handles DMA1 channel3 global interrupt.
  */
void DMA1_Channel3_IRQHandler(void)
{
 8001398:	b580      	push	{r7, lr}
 800139a:	af00      	add	r7, sp, #0
  /* USER CODE BEGIN DMA1_Channel3_IRQn 0 */

  /* USER CODE END DMA1_Channel3_IRQn 0 */
  HAL_DMA_IRQHandler(&hdma_dac1_ch1);
 800139c:	4802      	ldr	r0, [pc, #8]	; (80013a8 <DMA1_Channel3_IRQHandler+0x10>)
 800139e:	f001 fc37 	bl	8002c10 <HAL_DMA_IRQHandler>
  /* USER CODE BEGIN DMA1_Channel3_IRQn 1 */

  /* USER CODE END DMA1_Channel3_IRQn 1 */
}
 80013a2:	bf00      	nop
 80013a4:	bd80      	pop	{r7, pc}
 80013a6:	bf00      	nop
 80013a8:	200005e0 	.word	0x200005e0

080013ac <ADC1_2_IRQHandler>:

/**
  * @brief This function handles ADC1 and ADC2 interrupts.
  */
void ADC1_2_IRQHandler(void)
{
 80013ac:	b580      	push	{r7, lr}
 80013ae:	af00      	add	r7, sp, #0
  /* USER CODE BEGIN ADC1_2_IRQn 0 */

  /* USER CODE END ADC1_2_IRQn 0 */
  HAL_ADC_IRQHandler(&hadc1);
 80013b0:	4802      	ldr	r0, [pc, #8]	; (80013bc <ADC1_2_IRQHandler+0x10>)
 80013b2:	f000 fa65 	bl	8001880 <HAL_ADC_IRQHandler>
  /* USER CODE BEGIN ADC1_2_IRQn 1 */

  /* USER CODE END ADC1_2_IRQn 1 */
}
 80013b6:	bf00      	nop
 80013b8:	bd80      	pop	{r7, pc}
 80013ba:	bf00      	nop
 80013bc:	20000c04 	.word	0x20000c04

080013c0 <TIM3_IRQHandler>:

/**
  * @brief This function handles TIM3 global interrupt.
  */
void TIM3_IRQHandler(void)
{
 80013c0:	b580      	push	{r7, lr}
 80013c2:	af00      	add	r7, sp, #0
  /* USER CODE BEGIN TIM3_IRQn 0 */

  /* USER CODE END TIM3_IRQn 0 */
  HAL_TIM_IRQHandler(&htim3);
 80013c4:	4802      	ldr	r0, [pc, #8]	; (80013d0 <TIM3_IRQHandler+0x10>)
 80013c6:	f003 f96f 	bl	80046a8 <HAL_TIM_IRQHandler>
  /* USER CODE BEGIN TIM3_IRQn 1 */

  /* USER CODE END TIM3_IRQn 1 */
}
 80013ca:	bf00      	nop
 80013cc:	bd80      	pop	{r7, pc}
 80013ce:	bf00      	nop
 80013d0:	20000624 	.word	0x20000624

080013d4 <SystemInit>:
  * @brief  Setup the microcontroller system
  * @param  None
  * @retval None
  */
void SystemInit(void)
{
 80013d4:	b480      	push	{r7}
 80013d6:	af00      	add	r7, sp, #0
/* FPU settings --------------------------------------------------------------*/
#if (__FPU_PRESENT == 1) && (__FPU_USED == 1)
  SCB->CPACR |= ((3UL << 10*2)|(3UL << 11*2));  /* set CP10 and CP11 Full Access */
 80013d8:	4b08      	ldr	r3, [pc, #32]	; (80013fc <SystemInit+0x28>)
 80013da:	f8d3 3088 	ldr.w	r3, [r3, #136]	; 0x88
 80013de:	4a07      	ldr	r2, [pc, #28]	; (80013fc <SystemInit+0x28>)
 80013e0:	f443 0370 	orr.w	r3, r3, #15728640	; 0xf00000
 80013e4:	f8c2 3088 	str.w	r3, [r2, #136]	; 0x88
#endif

#ifdef VECT_TAB_SRAM
  SCB->VTOR = SRAM_BASE | VECT_TAB_OFFSET; /* Vector Table Relocation in Internal SRAM */
#else
  SCB->VTOR = FLASH_BASE | VECT_TAB_OFFSET; /* Vector Table Relocation in Internal FLASH */
 80013e8:	4b04      	ldr	r3, [pc, #16]	; (80013fc <SystemInit+0x28>)
 80013ea:	f04f 6200 	mov.w	r2, #134217728	; 0x8000000
 80013ee:	609a      	str	r2, [r3, #8]
#endif
}
 80013f0:	bf00      	nop
 80013f2:	46bd      	mov	sp, r7
 80013f4:	f85d 7b04 	ldr.w	r7, [sp], #4
 80013f8:	4770      	bx	lr
 80013fa:	bf00      	nop
 80013fc:	e000ed00 	.word	0xe000ed00

08001400 <Reset_Handler>:

    .section	.text.Reset_Handler
	.weak	Reset_Handler
	.type	Reset_Handler, %function
Reset_Handler:
  ldr   sp, =_estack    /* Atollic update: set stack pointer */
 8001400:	f8df d034 	ldr.w	sp, [pc, #52]	; 8001438 <LoopForever+0x2>

/* Copy the data segment initializers from flash to SRAM */
  movs	r1, #0
 8001404:	2100      	movs	r1, #0
  b	LoopCopyDataInit
 8001406:	e003      	b.n	8001410 <LoopCopyDataInit>

08001408 <CopyDataInit>:

CopyDataInit:
	ldr	r3, =_sidata
 8001408:	4b0c      	ldr	r3, [pc, #48]	; (800143c <LoopForever+0x6>)
	ldr	r3, [r3, r1]
 800140a:	585b      	ldr	r3, [r3, r1]
	str	r3, [r0, r1]
 800140c:	5043      	str	r3, [r0, r1]
	adds	r1, r1, #4
 800140e:	3104      	adds	r1, #4

08001410 <LoopCopyDataInit>:

LoopCopyDataInit:
	ldr	r0, =_sdata
 8001410:	480b      	ldr	r0, [pc, #44]	; (8001440 <LoopForever+0xa>)
	ldr	r3, =_edata
 8001412:	4b0c      	ldr	r3, [pc, #48]	; (8001444 <LoopForever+0xe>)
	adds	r2, r0, r1
 8001414:	1842      	adds	r2, r0, r1
	cmp	r2, r3
 8001416:	429a      	cmp	r2, r3
	bcc	CopyDataInit
 8001418:	d3f6      	bcc.n	8001408 <CopyDataInit>
	ldr	r2, =_sbss
 800141a:	4a0b      	ldr	r2, [pc, #44]	; (8001448 <LoopForever+0x12>)
	b	LoopFillZerobss
 800141c:	e002      	b.n	8001424 <LoopFillZerobss>

0800141e <FillZerobss>:
/* Zero fill the bss segment. */
FillZerobss:
	movs	r3, #0
 800141e:	2300      	movs	r3, #0
	str	r3, [r2], #4
 8001420:	f842 3b04 	str.w	r3, [r2], #4

08001424 <LoopFillZerobss>:

LoopFillZerobss:
	ldr	r3, = _ebss
 8001424:	4b09      	ldr	r3, [pc, #36]	; (800144c <LoopForever+0x16>)
	cmp	r2, r3
 8001426:	429a      	cmp	r2, r3
	bcc	FillZerobss
 8001428:	d3f9      	bcc.n	800141e <FillZerobss>

/* Call the clock system intitialization function.*/
    bl  SystemInit
 800142a:	f7ff ffd3 	bl	80013d4 <SystemInit>
/* Call static constructors */
    bl __libc_init_array
 800142e:	f003 ff75 	bl	800531c <__libc_init_array>
/* Call the application's entry point.*/
	bl	main
 8001432:	f7ff fbc9 	bl	8000bc8 <main>

08001436 <LoopForever>:

LoopForever:
    b LoopForever
 8001436:	e7fe      	b.n	8001436 <LoopForever>
  ldr   sp, =_estack    /* Atollic update: set stack pointer */
 8001438:	20003000 	.word	0x20003000
	ldr	r3, =_sidata
 800143c:	080065c8 	.word	0x080065c8
	ldr	r0, =_sdata
 8001440:	20000000 	.word	0x20000000
	ldr	r3, =_edata
 8001444:	2000000c 	.word	0x2000000c
	ldr	r2, =_sbss
 8001448:	2000000c 	.word	0x2000000c
	ldr	r3, = _ebss
 800144c:	20000c9c 	.word	0x20000c9c

08001450 <CAN_RX0_IRQHandler>:
 * @retval : None
*/
    .section	.text.Default_Handler,"ax",%progbits
Default_Handler:
Infinite_Loop:
	b	Infinite_Loop
 8001450:	e7fe      	b.n	8001450 <CAN_RX0_IRQHandler>
	...

08001454 <HAL_Init>:
  *         In the default implementation,Systick is used as source of time base.
  *       The tick variable is incremented each 1ms in its ISR.
  * @retval HAL status
  */
HAL_StatusTypeDef HAL_Init(void)
{
 8001454:	b580      	push	{r7, lr}
 8001456:	af00      	add	r7, sp, #0
  /* Configure Flash prefetch */
#if (PREFETCH_ENABLE != 0U)
  __HAL_FLASH_PREFETCH_BUFFER_ENABLE();
 8001458:	4b08      	ldr	r3, [pc, #32]	; (800147c <HAL_Init+0x28>)
 800145a:	681b      	ldr	r3, [r3, #0]
 800145c:	4a07      	ldr	r2, [pc, #28]	; (800147c <HAL_Init+0x28>)
 800145e:	f043 0310 	orr.w	r3, r3, #16
 8001462:	6013      	str	r3, [r2, #0]
#endif /* PREFETCH_ENABLE */

  /* Set Interrupt Group Priority */
  HAL_NVIC_SetPriorityGrouping(NVIC_PRIORITYGROUP_4);
 8001464:	2003      	movs	r0, #3
 8001466:	f001 f90b 	bl	8002680 <HAL_NVIC_SetPriorityGrouping>

  /* Enable systick and configure 1ms tick (default clock after Reset is HSI) */
  HAL_InitTick(TICK_INT_PRIORITY);
 800146a:	2000      	movs	r0, #0
 800146c:	f000 f808 	bl	8001480 <HAL_InitTick>

  /* Init the low level hardware */
  HAL_MspInit();
 8001470:	f7ff fe0e 	bl	8001090 <HAL_MspInit>

  /* Return function status */
  return HAL_OK;
 8001474:	2300      	movs	r3, #0
}
 8001476:	4618      	mov	r0, r3
 8001478:	bd80      	pop	{r7, pc}
 800147a:	bf00      	nop
 800147c:	40022000 	.word	0x40022000

08001480 <HAL_InitTick>:
  *         implementation  in user file.
  * @param TickPriority Tick interrupt priority.
  * @retval HAL status
  */
__weak HAL_StatusTypeDef HAL_InitTick(uint32_t TickPriority)
{
 8001480:	b580      	push	{r7, lr}
 8001482:	b082      	sub	sp, #8
 8001484:	af00      	add	r7, sp, #0
 8001486:	6078      	str	r0, [r7, #4]
  /* Configure the SysTick to have interrupt in 1ms time basis*/
  if (HAL_SYSTICK_Config(SystemCoreClock / (1000U / uwTickFreq)) > 0U)
 8001488:	4b12      	ldr	r3, [pc, #72]	; (80014d4 <HAL_InitTick+0x54>)
 800148a:	681a      	ldr	r2, [r3, #0]
 800148c:	4b12      	ldr	r3, [pc, #72]	; (80014d8 <HAL_InitTick+0x58>)
 800148e:	781b      	ldrb	r3, [r3, #0]
 8001490:	4619      	mov	r1, r3
 8001492:	f44f 737a 	mov.w	r3, #1000	; 0x3e8
 8001496:	fbb3 f3f1 	udiv	r3, r3, r1
 800149a:	fbb2 f3f3 	udiv	r3, r2, r3
 800149e:	4618      	mov	r0, r3
 80014a0:	f001 f923 	bl	80026ea <HAL_SYSTICK_Config>
 80014a4:	4603      	mov	r3, r0
 80014a6:	2b00      	cmp	r3, #0
 80014a8:	d001      	beq.n	80014ae <HAL_InitTick+0x2e>
  {
    return HAL_ERROR;
 80014aa:	2301      	movs	r3, #1
 80014ac:	e00e      	b.n	80014cc <HAL_InitTick+0x4c>
  }

  /* Configure the SysTick IRQ priority */
  if (TickPriority < (1UL << __NVIC_PRIO_BITS))
 80014ae:	687b      	ldr	r3, [r7, #4]
 80014b0:	2b0f      	cmp	r3, #15
 80014b2:	d80a      	bhi.n	80014ca <HAL_InitTick+0x4a>
  {
    HAL_NVIC_SetPriority(SysTick_IRQn, TickPriority, 0U);
 80014b4:	2200      	movs	r2, #0
 80014b6:	6879      	ldr	r1, [r7, #4]
 80014b8:	f04f 30ff 	mov.w	r0, #4294967295
 80014bc:	f001 f8eb 	bl	8002696 <HAL_NVIC_SetPriority>
    uwTickPrio = TickPriority;
 80014c0:	4a06      	ldr	r2, [pc, #24]	; (80014dc <HAL_InitTick+0x5c>)
 80014c2:	687b      	ldr	r3, [r7, #4]
 80014c4:	6013      	str	r3, [r2, #0]
  else
  {
    return HAL_ERROR;
  }
   /* Return function status */
  return HAL_OK;
 80014c6:	2300      	movs	r3, #0
 80014c8:	e000      	b.n	80014cc <HAL_InitTick+0x4c>
    return HAL_ERROR;
 80014ca:	2301      	movs	r3, #1
}
 80014cc:	4618      	mov	r0, r3
 80014ce:	3708      	adds	r7, #8
 80014d0:	46bd      	mov	sp, r7
 80014d2:	bd80      	pop	{r7, pc}
 80014d4:	20000000 	.word	0x20000000
 80014d8:	20000008 	.word	0x20000008
 80014dc:	20000004 	.word	0x20000004

080014e0 <HAL_IncTick>:
  * @note This function is declared as __weak to be overwritten in case of other 
  *         implementations  in user file.
  * @retval None
  */
__weak void HAL_IncTick(void)
{
 80014e0:	b480      	push	{r7}
 80014e2:	af00      	add	r7, sp, #0
  uwTick += uwTickFreq;
 80014e4:	4b06      	ldr	r3, [pc, #24]	; (8001500 <HAL_IncTick+0x20>)
 80014e6:	781b      	ldrb	r3, [r3, #0]
 80014e8:	461a      	mov	r2, r3
 80014ea:	4b06      	ldr	r3, [pc, #24]	; (8001504 <HAL_IncTick+0x24>)
 80014ec:	681b      	ldr	r3, [r3, #0]
 80014ee:	4413      	add	r3, r2
 80014f0:	4a04      	ldr	r2, [pc, #16]	; (8001504 <HAL_IncTick+0x24>)
 80014f2:	6013      	str	r3, [r2, #0]
}
 80014f4:	bf00      	nop
 80014f6:	46bd      	mov	sp, r7
 80014f8:	f85d 7b04 	ldr.w	r7, [sp], #4
 80014fc:	4770      	bx	lr
 80014fe:	bf00      	nop
 8001500:	20000008 	.word	0x20000008
 8001504:	20000c98 	.word	0x20000c98

08001508 <HAL_GetTick>:
  * @note   The function is declared as __Weak  to be overwritten  in case of other 
  *         implementations  in user file.
  * @retval tick value
  */
__weak uint32_t HAL_GetTick(void)
{
 8001508:	b480      	push	{r7}
 800150a:	af00      	add	r7, sp, #0
  return uwTick;  
 800150c:	4b03      	ldr	r3, [pc, #12]	; (800151c <HAL_GetTick+0x14>)
 800150e:	681b      	ldr	r3, [r3, #0]
}
 8001510:	4618      	mov	r0, r3
 8001512:	46bd      	mov	sp, r7
 8001514:	f85d 7b04 	ldr.w	r7, [sp], #4
 8001518:	4770      	bx	lr
 800151a:	bf00      	nop
 800151c:	20000c98 	.word	0x20000c98

08001520 <HAL_ADC_ConvCpltCallback>:
  * @brief  Conversion complete callback in non blocking mode 
  * @param  hadc ADC handle
  * @retval None
  */
__weak void HAL_ADC_ConvCpltCallback(ADC_HandleTypeDef* hadc)
{
 8001520:	b480      	push	{r7}
 8001522:	b083      	sub	sp, #12
 8001524:	af00      	add	r7, sp, #0
 8001526:	6078      	str	r0, [r7, #4]
  UNUSED(hadc);

  /* NOTE : This function should not be modified. When the callback is needed,
            function HAL_ADC_ConvCpltCallback must be implemented in the user file.
   */
}
 8001528:	bf00      	nop
 800152a:	370c      	adds	r7, #12
 800152c:	46bd      	mov	sp, r7
 800152e:	f85d 7b04 	ldr.w	r7, [sp], #4
 8001532:	4770      	bx	lr

08001534 <HAL_ADC_LevelOutOfWindowCallback>:
  * @brief  Analog watchdog callback in non blocking mode. 
  * @param  hadc ADC handle
  * @retval None
  */
__weak void HAL_ADC_LevelOutOfWindowCallback(ADC_HandleTypeDef* hadc)
{
 8001534:	b480      	push	{r7}
 8001536:	b083      	sub	sp, #12
 8001538:	af00      	add	r7, sp, #0
 800153a:	6078      	str	r0, [r7, #4]
  UNUSED(hadc);

  /* NOTE : This function should not be modified. When the callback is needed,
            function HAL_ADC_LevelOoutOfWindowCallback must be implemented in the user file.
  */
}
 800153c:	bf00      	nop
 800153e:	370c      	adds	r7, #12
 8001540:	46bd      	mov	sp, r7
 8001542:	f85d 7b04 	ldr.w	r7, [sp], #4
 8001546:	4770      	bx	lr

08001548 <HAL_ADC_ErrorCallback>:
  *        (ADC conversion with interruption or transfer by DMA)
  * @param  hadc ADC handle
  * @retval None
  */
__weak void HAL_ADC_ErrorCallback(ADC_HandleTypeDef *hadc)
{
 8001548:	b480      	push	{r7}
 800154a:	b083      	sub	sp, #12
 800154c:	af00      	add	r7, sp, #0
 800154e:	6078      	str	r0, [r7, #4]
  UNUSED(hadc);

  /* NOTE : This function should not be modified. When the callback is needed,
            function HAL_ADC_ErrorCallback must be implemented in the user file.
  */
}
 8001550:	bf00      	nop
 8001552:	370c      	adds	r7, #12
 8001554:	46bd      	mov	sp, r7
 8001556:	f85d 7b04 	ldr.w	r7, [sp], #4
 800155a:	4770      	bx	lr

0800155c <HAL_ADC_Init>:
  *         without  disabling the other ADCs sharing the same common group.
  * @param  hadc ADC handle
  * @retval HAL status
  */
HAL_StatusTypeDef HAL_ADC_Init(ADC_HandleTypeDef* hadc)
{
 800155c:	b580      	push	{r7, lr}
 800155e:	b09a      	sub	sp, #104	; 0x68
 8001560:	af00      	add	r7, sp, #0
 8001562:	6078      	str	r0, [r7, #4]
  HAL_StatusTypeDef tmp_hal_status = HAL_OK;
 8001564:	2300      	movs	r3, #0
 8001566:	f887 3067 	strb.w	r3, [r7, #103]	; 0x67
  ADC_Common_TypeDef *tmpADC_Common;
  ADC_HandleTypeDef tmphadcSharingSameCommonRegister;
  uint32_t tmpCFGR = 0U;
 800156a:	2300      	movs	r3, #0
 800156c:	663b      	str	r3, [r7, #96]	; 0x60
  __IO uint32_t wait_loop_index = 0U;
 800156e:	2300      	movs	r3, #0
 8001570:	60bb      	str	r3, [r7, #8]
  
  /* Check ADC handle */
  if(hadc == NULL)
 8001572:	687b      	ldr	r3, [r7, #4]
 8001574:	2b00      	cmp	r3, #0
 8001576:	d101      	bne.n	800157c <HAL_ADC_Init+0x20>
  {
    return HAL_ERROR;
 8001578:	2301      	movs	r3, #1
 800157a:	e172      	b.n	8001862 <HAL_ADC_Init+0x306>
  assert_param(IS_FUNCTIONAL_STATE(hadc->Init.DMAContinuousRequests));
  assert_param(IS_ADC_EOC_SELECTION(hadc->Init.EOCSelection));
  assert_param(IS_ADC_OVERRUN(hadc->Init.Overrun));
  assert_param(IS_FUNCTIONAL_STATE(hadc->Init.LowPowerAutoWait));
  
  if(hadc->Init.ScanConvMode != ADC_SCAN_DISABLE)
 800157c:	687b      	ldr	r3, [r7, #4]
 800157e:	691b      	ldr	r3, [r3, #16]
 8001580:	2b00      	cmp	r3, #0
      assert_param(IS_ADC_REGULAR_DISCONT_NUMBER(hadc->Init.NbrOfDiscConversion));
    }
  }
    
  /* Configuration of ADC core parameters and ADC MSP related parameters */
  if (HAL_IS_BIT_CLR(hadc->State, HAL_ADC_STATE_ERROR_INTERNAL))
 8001582:	687b      	ldr	r3, [r7, #4]
 8001584:	6c1b      	ldr	r3, [r3, #64]	; 0x40
 8001586:	f003 0310 	and.w	r3, r3, #16
 800158a:	2b00      	cmp	r3, #0
 800158c:	d176      	bne.n	800167c <HAL_ADC_Init+0x120>
    /* procedure.                                                             */
    
    /* Actions performed only if ADC is coming from state reset:              */
    /* - Initialization of ADC MSP                                            */
    /* - ADC voltage regulator enable                                         */
    if (hadc->State == HAL_ADC_STATE_RESET)
 800158e:	687b      	ldr	r3, [r7, #4]
 8001590:	6c1b      	ldr	r3, [r3, #64]	; 0x40
 8001592:	2b00      	cmp	r3, #0
 8001594:	d152      	bne.n	800163c <HAL_ADC_Init+0xe0>
    {
      /* Initialize ADC error code */
      ADC_CLEAR_ERRORCODE(hadc);
 8001596:	687b      	ldr	r3, [r7, #4]
 8001598:	2200      	movs	r2, #0
 800159a:	645a      	str	r2, [r3, #68]	; 0x44
      
      /* Initialize HAL ADC API internal variables */
      hadc->InjectionConfig.ChannelCount = 0U;
 800159c:	687b      	ldr	r3, [r7, #4]
 800159e:	2200      	movs	r2, #0
 80015a0:	64da      	str	r2, [r3, #76]	; 0x4c
      hadc->InjectionConfig.ContextQueue = 0U;
 80015a2:	687b      	ldr	r3, [r7, #4]
 80015a4:	2200      	movs	r2, #0
 80015a6:	649a      	str	r2, [r3, #72]	; 0x48
      
      /* Allocate lock resource and initialize it */
      hadc->Lock = HAL_UNLOCKED;
 80015a8:	687b      	ldr	r3, [r7, #4]
 80015aa:	2200      	movs	r2, #0
 80015ac:	f883 203c 	strb.w	r2, [r3, #60]	; 0x3c
    
    /* Init the low level hardware */
    hadc->MspInitCallback(hadc);
#else
    /* Init the low level hardware */
    HAL_ADC_MspInit(hadc);
 80015b0:	6878      	ldr	r0, [r7, #4]
 80015b2:	f7ff fd91 	bl	80010d8 <HAL_ADC_MspInit>
#endif /* USE_HAL_ADC_REGISTER_CALLBACKS */
      
      /* Enable voltage regulator (if disabled at this step) */
      if (HAL_IS_BIT_CLR(hadc->Instance->CR, ADC_CR_ADVREGEN_0))
 80015b6:	687b      	ldr	r3, [r7, #4]
 80015b8:	681b      	ldr	r3, [r3, #0]
 80015ba:	689b      	ldr	r3, [r3, #8]
 80015bc:	f003 5380 	and.w	r3, r3, #268435456	; 0x10000000
 80015c0:	2b00      	cmp	r3, #0
 80015c2:	d13b      	bne.n	800163c <HAL_ADC_Init+0xe0>
        /*       enabling the ADC. This temporization must be implemented by  */ 
        /*       software and is equal to 10 us in the worst case             */
        /*       process/temperature/power supply.                            */
        
        /* Disable the ADC (if not already disabled) */
        tmp_hal_status = ADC_Disable(hadc);
 80015c4:	6878      	ldr	r0, [r7, #4]
 80015c6:	f000 ff2b 	bl	8002420 <ADC_Disable>
 80015ca:	4603      	mov	r3, r0
 80015cc:	f887 3067 	strb.w	r3, [r7, #103]	; 0x67
        
        /* Check if ADC is effectively disabled */
        /* Configuration of ADC parameters if previous preliminary actions    */ 
        /* are correctly completed.                                           */
        if (HAL_IS_BIT_CLR(hadc->State, HAL_ADC_STATE_ERROR_INTERNAL) &&
 80015d0:	687b      	ldr	r3, [r7, #4]
 80015d2:	6c1b      	ldr	r3, [r3, #64]	; 0x40
 80015d4:	f003 0310 	and.w	r3, r3, #16
 80015d8:	2b00      	cmp	r3, #0
 80015da:	d12f      	bne.n	800163c <HAL_ADC_Init+0xe0>
 80015dc:	f897 3067 	ldrb.w	r3, [r7, #103]	; 0x67
 80015e0:	2b00      	cmp	r3, #0
 80015e2:	d12b      	bne.n	800163c <HAL_ADC_Init+0xe0>
            (tmp_hal_status == HAL_OK)                                  )
        {
          /* Set ADC state */
          ADC_STATE_CLR_SET(hadc->State,
 80015e4:	687b      	ldr	r3, [r7, #4]
 80015e6:	6c1b      	ldr	r3, [r3, #64]	; 0x40
 80015e8:	f423 5388 	bic.w	r3, r3, #4352	; 0x1100
 80015ec:	f023 0302 	bic.w	r3, r3, #2
 80015f0:	f043 0202 	orr.w	r2, r3, #2
 80015f4:	687b      	ldr	r3, [r7, #4]
 80015f6:	641a      	str	r2, [r3, #64]	; 0x40
                            HAL_ADC_STATE_REG_BUSY | HAL_ADC_STATE_INJ_BUSY,
                            HAL_ADC_STATE_BUSY_INTERNAL);
          
          /* Set the intermediate state before moving the ADC voltage         */
          /* regulator to state enable.                                       */
          CLEAR_BIT(hadc->Instance->CR, (ADC_CR_ADVREGEN_1 | ADC_CR_ADVREGEN_0));
 80015f8:	687b      	ldr	r3, [r7, #4]
 80015fa:	681b      	ldr	r3, [r3, #0]
 80015fc:	689a      	ldr	r2, [r3, #8]
 80015fe:	687b      	ldr	r3, [r7, #4]
 8001600:	681b      	ldr	r3, [r3, #0]
 8001602:	f022 5240 	bic.w	r2, r2, #805306368	; 0x30000000
 8001606:	609a      	str	r2, [r3, #8]
          /* Set ADVREGEN bits to 0x01U */
          SET_BIT(hadc->Instance->CR, ADC_CR_ADVREGEN_0);
 8001608:	687b      	ldr	r3, [r7, #4]
 800160a:	681b      	ldr	r3, [r3, #0]
 800160c:	689a      	ldr	r2, [r3, #8]
 800160e:	687b      	ldr	r3, [r7, #4]
 8001610:	681b      	ldr	r3, [r3, #0]
 8001612:	f042 5280 	orr.w	r2, r2, #268435456	; 0x10000000
 8001616:	609a      	str	r2, [r3, #8]
          
          /* Delay for ADC stabilization time.                                */
          /* Compute number of CPU cycles to wait for */
          wait_loop_index = (ADC_STAB_DELAY_US * (SystemCoreClock / 1000000U));
 8001618:	4b94      	ldr	r3, [pc, #592]	; (800186c <HAL_ADC_Init+0x310>)
 800161a:	681b      	ldr	r3, [r3, #0]
 800161c:	4a94      	ldr	r2, [pc, #592]	; (8001870 <HAL_ADC_Init+0x314>)
 800161e:	fba2 2303 	umull	r2, r3, r2, r3
 8001622:	0c9a      	lsrs	r2, r3, #18
 8001624:	4613      	mov	r3, r2
 8001626:	009b      	lsls	r3, r3, #2
 8001628:	4413      	add	r3, r2
 800162a:	005b      	lsls	r3, r3, #1
 800162c:	60bb      	str	r3, [r7, #8]
          while(wait_loop_index != 0U)
 800162e:	e002      	b.n	8001636 <HAL_ADC_Init+0xda>
          {
            wait_loop_index--;
 8001630:	68bb      	ldr	r3, [r7, #8]
 8001632:	3b01      	subs	r3, #1
 8001634:	60bb      	str	r3, [r7, #8]
          while(wait_loop_index != 0U)
 8001636:	68bb      	ldr	r3, [r7, #8]
 8001638:	2b00      	cmp	r3, #0
 800163a:	d1f9      	bne.n	8001630 <HAL_ADC_Init+0xd4>
    }
    
    /* Verification that ADC voltage regulator is correctly enabled, whether  */
    /* or not ADC is coming from state reset (if any potential problem of     */
    /* clocking, voltage regulator would not be enabled).                     */
    if (HAL_IS_BIT_CLR(hadc->Instance->CR, ADC_CR_ADVREGEN_0) ||
 800163c:	687b      	ldr	r3, [r7, #4]
 800163e:	681b      	ldr	r3, [r3, #0]
 8001640:	689b      	ldr	r3, [r3, #8]
 8001642:	f003 5380 	and.w	r3, r3, #268435456	; 0x10000000
 8001646:	2b00      	cmp	r3, #0
 8001648:	d007      	beq.n	800165a <HAL_ADC_Init+0xfe>
        HAL_IS_BIT_SET(hadc->Instance->CR, ADC_CR_ADVREGEN_1)   )
 800164a:	687b      	ldr	r3, [r7, #4]
 800164c:	681b      	ldr	r3, [r3, #0]
 800164e:	689b      	ldr	r3, [r3, #8]
 8001650:	f003 5300 	and.w	r3, r3, #536870912	; 0x20000000
    if (HAL_IS_BIT_CLR(hadc->Instance->CR, ADC_CR_ADVREGEN_0) ||
 8001654:	f1b3 5f00 	cmp.w	r3, #536870912	; 0x20000000
 8001658:	d110      	bne.n	800167c <HAL_ADC_Init+0x120>
    {
      /* Update ADC state machine to error */
      ADC_STATE_CLR_SET(hadc->State,
 800165a:	687b      	ldr	r3, [r7, #4]
 800165c:	6c1b      	ldr	r3, [r3, #64]	; 0x40
 800165e:	f023 0312 	bic.w	r3, r3, #18
 8001662:	f043 0210 	orr.w	r2, r3, #16
 8001666:	687b      	ldr	r3, [r7, #4]
 8001668:	641a      	str	r2, [r3, #64]	; 0x40
                        HAL_ADC_STATE_BUSY_INTERNAL,
                        HAL_ADC_STATE_ERROR_INTERNAL);
      
      /* Set ADC error code to ADC IP internal error */
      SET_BIT(hadc->ErrorCode, HAL_ADC_ERROR_INTERNAL);
 800166a:	687b      	ldr	r3, [r7, #4]
 800166c:	6c5b      	ldr	r3, [r3, #68]	; 0x44
 800166e:	f043 0201 	orr.w	r2, r3, #1
 8001672:	687b      	ldr	r3, [r7, #4]
 8001674:	645a      	str	r2, [r3, #68]	; 0x44
      
      tmp_hal_status = HAL_ERROR;
 8001676:	2301      	movs	r3, #1
 8001678:	f887 3067 	strb.w	r3, [r7, #103]	; 0x67
  
  /* Configuration of ADC parameters if previous preliminary actions are      */ 
  /* correctly completed and if there is no conversion on going on regular    */
  /* group (ADC may already be enabled at this point if HAL_ADC_Init() is     */
  /* called to update a parameter on the fly).                                */
  if (HAL_IS_BIT_CLR(hadc->State, HAL_ADC_STATE_ERROR_INTERNAL) &&
 800167c:	687b      	ldr	r3, [r7, #4]
 800167e:	6c1b      	ldr	r3, [r3, #64]	; 0x40
 8001680:	f003 0310 	and.w	r3, r3, #16
 8001684:	2b00      	cmp	r3, #0
 8001686:	f040 80df 	bne.w	8001848 <HAL_ADC_Init+0x2ec>
 800168a:	f897 3067 	ldrb.w	r3, [r7, #103]	; 0x67
 800168e:	2b00      	cmp	r3, #0
 8001690:	f040 80da 	bne.w	8001848 <HAL_ADC_Init+0x2ec>
      (tmp_hal_status == HAL_OK)                                &&
      (ADC_IS_CONVERSION_ONGOING_REGULAR(hadc) == RESET)          )
 8001694:	687b      	ldr	r3, [r7, #4]
 8001696:	681b      	ldr	r3, [r3, #0]
 8001698:	689b      	ldr	r3, [r3, #8]
 800169a:	f003 0304 	and.w	r3, r3, #4
      (tmp_hal_status == HAL_OK)                                &&
 800169e:	2b00      	cmp	r3, #0
 80016a0:	f040 80d2 	bne.w	8001848 <HAL_ADC_Init+0x2ec>
  {
    /* Set ADC state */
    ADC_STATE_CLR_SET(hadc->State,
 80016a4:	687b      	ldr	r3, [r7, #4]
 80016a6:	6c1b      	ldr	r3, [r3, #64]	; 0x40
 80016a8:	f423 7381 	bic.w	r3, r3, #258	; 0x102
 80016ac:	f043 0202 	orr.w	r2, r3, #2
 80016b0:	687b      	ldr	r3, [r7, #4]
 80016b2:	641a      	str	r2, [r3, #64]	; 0x40
    /* Configuration of common ADC parameters                                 */
    
    /* Pointer to the common control register to which is belonging hadc      */
    /* (Depending on STM32F3 product, there may be up to 4 ADC and 2 common   */
    /* control registers)                                                     */
    tmpADC_Common = ADC_COMMON_REGISTER(hadc);
 80016b4:	4b6f      	ldr	r3, [pc, #444]	; (8001874 <HAL_ADC_Init+0x318>)
 80016b6:	65fb      	str	r3, [r7, #92]	; 0x5c
    
    /* Set handle of the other ADC sharing the same common register           */
    ADC_COMMON_ADC_OTHER(hadc, &tmphadcSharingSameCommonRegister);
 80016b8:	687b      	ldr	r3, [r7, #4]
 80016ba:	681b      	ldr	r3, [r3, #0]
 80016bc:	f1b3 4fa0 	cmp.w	r3, #1342177280	; 0x50000000
 80016c0:	d102      	bne.n	80016c8 <HAL_ADC_Init+0x16c>
 80016c2:	4b6d      	ldr	r3, [pc, #436]	; (8001878 <HAL_ADC_Init+0x31c>)
 80016c4:	60fb      	str	r3, [r7, #12]
 80016c6:	e002      	b.n	80016ce <HAL_ADC_Init+0x172>
 80016c8:	f04f 43a0 	mov.w	r3, #1342177280	; 0x50000000
 80016cc:	60fb      	str	r3, [r7, #12]
    
    
    /* Parameters update conditioned to ADC state:                            */
    /* Parameters that can be updated only when ADC is disabled:              */
    /*  - Multimode clock configuration                                       */
    if ((ADC_IS_ENABLE(hadc) == RESET)                                   &&
 80016ce:	687b      	ldr	r3, [r7, #4]
 80016d0:	681b      	ldr	r3, [r3, #0]
 80016d2:	689b      	ldr	r3, [r3, #8]
 80016d4:	f003 0303 	and.w	r3, r3, #3
 80016d8:	2b01      	cmp	r3, #1
 80016da:	d108      	bne.n	80016ee <HAL_ADC_Init+0x192>
 80016dc:	687b      	ldr	r3, [r7, #4]
 80016de:	681b      	ldr	r3, [r3, #0]
 80016e0:	681b      	ldr	r3, [r3, #0]
 80016e2:	f003 0301 	and.w	r3, r3, #1
 80016e6:	2b01      	cmp	r3, #1
 80016e8:	d101      	bne.n	80016ee <HAL_ADC_Init+0x192>
 80016ea:	2301      	movs	r3, #1
 80016ec:	e000      	b.n	80016f0 <HAL_ADC_Init+0x194>
 80016ee:	2300      	movs	r3, #0
 80016f0:	2b00      	cmp	r3, #0
 80016f2:	d11c      	bne.n	800172e <HAL_ADC_Init+0x1d2>
        ((tmphadcSharingSameCommonRegister.Instance == NULL)         ||
 80016f4:	68fb      	ldr	r3, [r7, #12]
    if ((ADC_IS_ENABLE(hadc) == RESET)                                   &&
 80016f6:	2b00      	cmp	r3, #0
 80016f8:	d010      	beq.n	800171c <HAL_ADC_Init+0x1c0>
         (ADC_IS_ENABLE(&tmphadcSharingSameCommonRegister) == RESET)   )   )
 80016fa:	68fb      	ldr	r3, [r7, #12]
 80016fc:	689b      	ldr	r3, [r3, #8]
 80016fe:	f003 0303 	and.w	r3, r3, #3
 8001702:	2b01      	cmp	r3, #1
 8001704:	d107      	bne.n	8001716 <HAL_ADC_Init+0x1ba>
 8001706:	68fb      	ldr	r3, [r7, #12]
 8001708:	681b      	ldr	r3, [r3, #0]
 800170a:	f003 0301 	and.w	r3, r3, #1
 800170e:	2b01      	cmp	r3, #1
 8001710:	d101      	bne.n	8001716 <HAL_ADC_Init+0x1ba>
 8001712:	2301      	movs	r3, #1
 8001714:	e000      	b.n	8001718 <HAL_ADC_Init+0x1bc>
 8001716:	2300      	movs	r3, #0
        ((tmphadcSharingSameCommonRegister.Instance == NULL)         ||
 8001718:	2b00      	cmp	r3, #0
 800171a:	d108      	bne.n	800172e <HAL_ADC_Init+0x1d2>
      /*     into HAL_ADCEx_MultiModeConfigChannel() )                        */
      /*   - internal measurement paths: Vbat, temperature sensor, Vref       */
      /*     (set into HAL_ADC_ConfigChannel() or                             */
      /*     HAL_ADCEx_InjectedConfigChannel() )                              */
     
      MODIFY_REG(tmpADC_Common->CCR       ,
 800171c:	6dfb      	ldr	r3, [r7, #92]	; 0x5c
 800171e:	689b      	ldr	r3, [r3, #8]
 8001720:	f423 3240 	bic.w	r2, r3, #196608	; 0x30000
 8001724:	687b      	ldr	r3, [r7, #4]
 8001726:	685b      	ldr	r3, [r3, #4]
 8001728:	431a      	orrs	r2, r3
 800172a:	6dfb      	ldr	r3, [r7, #92]	; 0x5c
 800172c:	609a      	str	r2, [r3, #8]
    /*  - external trigger to start conversion                                */
    /*  - external trigger polarity                                           */
    /*  - continuous conversion mode                                          */
    /*  - overrun                                                             */
    /*  - discontinuous mode                                                  */
    SET_BIT(tmpCFGR, ADC_CFGR_CONTINUOUS((uint32_t)hadc->Init.ContinuousConvMode) |
 800172e:	687b      	ldr	r3, [r7, #4]
 8001730:	7e5b      	ldrb	r3, [r3, #25]
 8001732:	035b      	lsls	r3, r3, #13
 8001734:	687a      	ldr	r2, [r7, #4]
 8001736:	6b52      	ldr	r2, [r2, #52]	; 0x34
 8001738:	2a01      	cmp	r2, #1
 800173a:	d002      	beq.n	8001742 <HAL_ADC_Init+0x1e6>
 800173c:	f44f 5280 	mov.w	r2, #4096	; 0x1000
 8001740:	e000      	b.n	8001744 <HAL_ADC_Init+0x1e8>
 8001742:	2200      	movs	r2, #0
 8001744:	431a      	orrs	r2, r3
 8001746:	687b      	ldr	r3, [r7, #4]
 8001748:	68db      	ldr	r3, [r3, #12]
 800174a:	431a      	orrs	r2, r3
 800174c:	687b      	ldr	r3, [r7, #4]
 800174e:	689b      	ldr	r3, [r3, #8]
 8001750:	4313      	orrs	r3, r2
 8001752:	6e3a      	ldr	r2, [r7, #96]	; 0x60
 8001754:	4313      	orrs	r3, r2
 8001756:	663b      	str	r3, [r7, #96]	; 0x60
                     ADC_CFGR_OVERRUN(hadc->Init.Overrun)               |
                     hadc->Init.DataAlign                               |
                     hadc->Init.Resolution                               );
    
    /* Enable discontinuous mode only if continuous mode is disabled */
    if (hadc->Init.DiscontinuousConvMode == ENABLE)
 8001758:	687b      	ldr	r3, [r7, #4]
 800175a:	f893 3020 	ldrb.w	r3, [r3, #32]
 800175e:	2b01      	cmp	r3, #1
 8001760:	d11b      	bne.n	800179a <HAL_ADC_Init+0x23e>
    {
      if (hadc->Init.ContinuousConvMode == DISABLE)
 8001762:	687b      	ldr	r3, [r7, #4]
 8001764:	7e5b      	ldrb	r3, [r3, #25]
 8001766:	2b00      	cmp	r3, #0
 8001768:	d109      	bne.n	800177e <HAL_ADC_Init+0x222>
      {
        /* Enable the selected ADC regular discontinuous mode */
        /* Set the number of channels to be converted in discontinuous mode */
        SET_BIT(tmpCFGR, ADC_CFGR_DISCEN                                            |
 800176a:	687b      	ldr	r3, [r7, #4]
 800176c:	6a5b      	ldr	r3, [r3, #36]	; 0x24
 800176e:	3b01      	subs	r3, #1
 8001770:	045a      	lsls	r2, r3, #17
 8001772:	6e3b      	ldr	r3, [r7, #96]	; 0x60
 8001774:	4313      	orrs	r3, r2
 8001776:	f443 3380 	orr.w	r3, r3, #65536	; 0x10000
 800177a:	663b      	str	r3, [r7, #96]	; 0x60
 800177c:	e00d      	b.n	800179a <HAL_ADC_Init+0x23e>
        /* ADC regular group discontinuous was intended to be enabled,        */
        /* but ADC regular group modes continuous and sequencer discontinuous */
        /* cannot be enabled simultaneously.                                  */
        
        /* Update ADC state machine to error */
        ADC_STATE_CLR_SET(hadc->State,
 800177e:	687b      	ldr	r3, [r7, #4]
 8001780:	6c1b      	ldr	r3, [r3, #64]	; 0x40
 8001782:	f023 0322 	bic.w	r3, r3, #34	; 0x22
 8001786:	f043 0220 	orr.w	r2, r3, #32
 800178a:	687b      	ldr	r3, [r7, #4]
 800178c:	641a      	str	r2, [r3, #64]	; 0x40
                          HAL_ADC_STATE_BUSY_INTERNAL,
                          HAL_ADC_STATE_ERROR_CONFIG);
        
        /* Set ADC error code to ADC IP internal error */
        SET_BIT(hadc->ErrorCode, HAL_ADC_ERROR_INTERNAL);
 800178e:	687b      	ldr	r3, [r7, #4]
 8001790:	6c5b      	ldr	r3, [r3, #68]	; 0x44
 8001792:	f043 0201 	orr.w	r2, r3, #1
 8001796:	687b      	ldr	r3, [r7, #4]
 8001798:	645a      	str	r2, [r3, #68]	; 0x44
    /* Enable external trigger if trigger selection is different of software  */
    /* start.                                                                 */
    /* Note: This configuration keeps the hardware feature of parameter       */
    /*       ExternalTrigConvEdge "trigger edge none" equivalent to           */
    /*       software start.                                                  */
    if (hadc->Init.ExternalTrigConv != ADC_SOFTWARE_START)
 800179a:	687b      	ldr	r3, [r7, #4]
 800179c:	6a9b      	ldr	r3, [r3, #40]	; 0x28
 800179e:	2b01      	cmp	r3, #1
 80017a0:	d007      	beq.n	80017b2 <HAL_ADC_Init+0x256>
    {
      SET_BIT(tmpCFGR, ADC_CFGR_EXTSEL_SET(hadc, hadc->Init.ExternalTrigConv) |
 80017a2:	687b      	ldr	r3, [r7, #4]
 80017a4:	6a9a      	ldr	r2, [r3, #40]	; 0x28
 80017a6:	687b      	ldr	r3, [r7, #4]
 80017a8:	6adb      	ldr	r3, [r3, #44]	; 0x2c
 80017aa:	4313      	orrs	r3, r2
 80017ac:	6e3a      	ldr	r2, [r7, #96]	; 0x60
 80017ae:	4313      	orrs	r3, r2
 80017b0:	663b      	str	r3, [r7, #96]	; 0x60
    /* Parameters update conditioned to ADC state:                            */
    /* Parameters that can be updated when ADC is disabled or enabled without */
    /* conversion on going on regular and injected groups:                    */
    /*  - DMA continuous request                                              */
    /*  - LowPowerAutoWait feature                                            */
    if (ADC_IS_CONVERSION_ONGOING_REGULAR_INJECTED(hadc) == RESET)
 80017b2:	687b      	ldr	r3, [r7, #4]
 80017b4:	681b      	ldr	r3, [r3, #0]
 80017b6:	689b      	ldr	r3, [r3, #8]
 80017b8:	f003 030c 	and.w	r3, r3, #12
 80017bc:	2b00      	cmp	r3, #0
 80017be:	d114      	bne.n	80017ea <HAL_ADC_Init+0x28e>
    {
      CLEAR_BIT(hadc->Instance->CFGR, ADC_CFGR_AUTDLY |
 80017c0:	687b      	ldr	r3, [r7, #4]
 80017c2:	681b      	ldr	r3, [r3, #0]
 80017c4:	68db      	ldr	r3, [r3, #12]
 80017c6:	687a      	ldr	r2, [r7, #4]
 80017c8:	6812      	ldr	r2, [r2, #0]
 80017ca:	f423 4380 	bic.w	r3, r3, #16384	; 0x4000
 80017ce:	f023 0302 	bic.w	r3, r3, #2
 80017d2:	60d3      	str	r3, [r2, #12]
                                      ADC_CFGR_DMACFG  );
      
      SET_BIT(tmpCFGR, ADC_CFGR_AUTOWAIT((uint32_t)hadc->Init.LowPowerAutoWait) |
 80017d4:	687b      	ldr	r3, [r7, #4]
 80017d6:	7e1b      	ldrb	r3, [r3, #24]
 80017d8:	039a      	lsls	r2, r3, #14
 80017da:	687b      	ldr	r3, [r7, #4]
 80017dc:	f893 3030 	ldrb.w	r3, [r3, #48]	; 0x30
 80017e0:	005b      	lsls	r3, r3, #1
 80017e2:	4313      	orrs	r3, r2
 80017e4:	6e3a      	ldr	r2, [r7, #96]	; 0x60
 80017e6:	4313      	orrs	r3, r2
 80017e8:	663b      	str	r3, [r7, #96]	; 0x60
                       ADC_CFGR_DMACONTREQ((uint32_t)hadc->Init.DMAContinuousRequests) );
    }
    
    /* Update ADC configuration register with previous settings */
    MODIFY_REG(hadc->Instance->CFGR,
 80017ea:	687b      	ldr	r3, [r7, #4]
 80017ec:	681b      	ldr	r3, [r3, #0]
 80017ee:	68da      	ldr	r2, [r3, #12]
 80017f0:	4b22      	ldr	r3, [pc, #136]	; (800187c <HAL_ADC_Init+0x320>)
 80017f2:	4013      	ands	r3, r2
 80017f4:	687a      	ldr	r2, [r7, #4]
 80017f6:	6812      	ldr	r2, [r2, #0]
 80017f8:	6e39      	ldr	r1, [r7, #96]	; 0x60
 80017fa:	430b      	orrs	r3, r1
 80017fc:	60d3      	str	r3, [r2, #12]
    /*   Parameter "NbrOfConversion" is discarded.                            */
    /*   Note: Scan mode is not present by hardware on this device, but       */
    /*   emulated by software for alignment over all STM32 devices.           */
    /* - if scan mode is enabled, regular channels sequence length is set to  */
    /*   parameter "NbrOfConversion"                                          */   
    if (hadc->Init.ScanConvMode == ADC_SCAN_ENABLE)
 80017fe:	687b      	ldr	r3, [r7, #4]
 8001800:	691b      	ldr	r3, [r3, #16]
 8001802:	2b01      	cmp	r3, #1
 8001804:	d10c      	bne.n	8001820 <HAL_ADC_Init+0x2c4>
    {
      /* Set number of ranks in regular group sequencer */     
      MODIFY_REG(hadc->Instance->SQR1                     ,
 8001806:	687b      	ldr	r3, [r7, #4]
 8001808:	681b      	ldr	r3, [r3, #0]
 800180a:	6b1b      	ldr	r3, [r3, #48]	; 0x30
 800180c:	f023 010f 	bic.w	r1, r3, #15
 8001810:	687b      	ldr	r3, [r7, #4]
 8001812:	69db      	ldr	r3, [r3, #28]
 8001814:	1e5a      	subs	r2, r3, #1
 8001816:	687b      	ldr	r3, [r7, #4]
 8001818:	681b      	ldr	r3, [r3, #0]
 800181a:	430a      	orrs	r2, r1
 800181c:	631a      	str	r2, [r3, #48]	; 0x30
 800181e:	e007      	b.n	8001830 <HAL_ADC_Init+0x2d4>
                 ADC_SQR1_L                               ,
                 (hadc->Init.NbrOfConversion - (uint8_t)1U) );  
    }
    else
    {
      CLEAR_BIT(hadc->Instance->SQR1, ADC_SQR1_L);
 8001820:	687b      	ldr	r3, [r7, #4]
 8001822:	681b      	ldr	r3, [r3, #0]
 8001824:	6b1a      	ldr	r2, [r3, #48]	; 0x30
 8001826:	687b      	ldr	r3, [r7, #4]
 8001828:	681b      	ldr	r3, [r3, #0]
 800182a:	f022 020f 	bic.w	r2, r2, #15
 800182e:	631a      	str	r2, [r3, #48]	; 0x30
    }
    
    /* Set ADC error code to none */
    ADC_CLEAR_ERRORCODE(hadc);
 8001830:	687b      	ldr	r3, [r7, #4]
 8001832:	2200      	movs	r2, #0
 8001834:	645a      	str	r2, [r3, #68]	; 0x44
    
    /* Set the ADC state */
    ADC_STATE_CLR_SET(hadc->State,
 8001836:	687b      	ldr	r3, [r7, #4]
 8001838:	6c1b      	ldr	r3, [r3, #64]	; 0x40
 800183a:	f023 0303 	bic.w	r3, r3, #3
 800183e:	f043 0201 	orr.w	r2, r3, #1
 8001842:	687b      	ldr	r3, [r7, #4]
 8001844:	641a      	str	r2, [r3, #64]	; 0x40
 8001846:	e00a      	b.n	800185e <HAL_ADC_Init+0x302>
                      HAL_ADC_STATE_READY);
  }
  else
  {
    /* Update ADC state machine to error */
    ADC_STATE_CLR_SET(hadc->State,
 8001848:	687b      	ldr	r3, [r7, #4]
 800184a:	6c1b      	ldr	r3, [r3, #64]	; 0x40
 800184c:	f023 0312 	bic.w	r3, r3, #18
 8001850:	f043 0210 	orr.w	r2, r3, #16
 8001854:	687b      	ldr	r3, [r7, #4]
 8001856:	641a      	str	r2, [r3, #64]	; 0x40
                      HAL_ADC_STATE_BUSY_INTERNAL,
                      HAL_ADC_STATE_ERROR_INTERNAL);
    
    tmp_hal_status = HAL_ERROR; 
 8001858:	2301      	movs	r3, #1
 800185a:	f887 3067 	strb.w	r3, [r7, #103]	; 0x67
  }
  
  
  /* Return function status */
  return tmp_hal_status;
 800185e:	f897 3067 	ldrb.w	r3, [r7, #103]	; 0x67
}
 8001862:	4618      	mov	r0, r3
 8001864:	3768      	adds	r7, #104	; 0x68
 8001866:	46bd      	mov	sp, r7
 8001868:	bd80      	pop	{r7, pc}
 800186a:	bf00      	nop
 800186c:	20000000 	.word	0x20000000
 8001870:	431bde83 	.word	0x431bde83
 8001874:	50000300 	.word	0x50000300
 8001878:	50000100 	.word	0x50000100
 800187c:	fff0c007 	.word	0xfff0c007

08001880 <HAL_ADC_IRQHandler>:
  * @brief  Handles ADC interrupt request.  
  * @param  hadc ADC handle
  * @retval None
  */
void HAL_ADC_IRQHandler(ADC_HandleTypeDef* hadc)
{
 8001880:	b580      	push	{r7, lr}
 8001882:	b086      	sub	sp, #24
 8001884:	af00      	add	r7, sp, #0
 8001886:	6078      	str	r0, [r7, #4]
  uint32_t overrun_error = 0U; /* flag set if overrun occurrence has to be considered as an error */
 8001888:	2300      	movs	r3, #0
 800188a:	617b      	str	r3, [r7, #20]
  ADC_Common_TypeDef *tmpADC_Common;
  uint32_t tmp_cfgr     = 0x0U;
 800188c:	2300      	movs	r3, #0
 800188e:	613b      	str	r3, [r7, #16]
  uint32_t tmp_cfgr_jqm = 0x0U;
 8001890:	2300      	movs	r3, #0
 8001892:	60fb      	str	r3, [r7, #12]
  assert_param(IS_ADC_ALL_INSTANCE(hadc->Instance));
  assert_param(IS_FUNCTIONAL_STATE(hadc->Init.ContinuousConvMode));
  assert_param(IS_ADC_EOC_SELECTION(hadc->Init.EOCSelection));
  
  /* ========== Check End of Conversion flag for regular group ========== */
  if( (__HAL_ADC_GET_FLAG(hadc, ADC_FLAG_EOC) && __HAL_ADC_GET_IT_SOURCE(hadc, ADC_IT_EOC)) || 
 8001894:	687b      	ldr	r3, [r7, #4]
 8001896:	681b      	ldr	r3, [r3, #0]
 8001898:	681b      	ldr	r3, [r3, #0]
 800189a:	f003 0304 	and.w	r3, r3, #4
 800189e:	2b04      	cmp	r3, #4
 80018a0:	d106      	bne.n	80018b0 <HAL_ADC_IRQHandler+0x30>
 80018a2:	687b      	ldr	r3, [r7, #4]
 80018a4:	681b      	ldr	r3, [r3, #0]
 80018a6:	685b      	ldr	r3, [r3, #4]
 80018a8:	f003 0304 	and.w	r3, r3, #4
 80018ac:	2b04      	cmp	r3, #4
 80018ae:	d00d      	beq.n	80018cc <HAL_ADC_IRQHandler+0x4c>
      (__HAL_ADC_GET_FLAG(hadc, ADC_FLAG_EOS) && __HAL_ADC_GET_IT_SOURCE(hadc, ADC_IT_EOS))   )
 80018b0:	687b      	ldr	r3, [r7, #4]
 80018b2:	681b      	ldr	r3, [r3, #0]
 80018b4:	681b      	ldr	r3, [r3, #0]
 80018b6:	f003 0308 	and.w	r3, r3, #8
  if( (__HAL_ADC_GET_FLAG(hadc, ADC_FLAG_EOC) && __HAL_ADC_GET_IT_SOURCE(hadc, ADC_IT_EOC)) || 
 80018ba:	2b08      	cmp	r3, #8
 80018bc:	d17a      	bne.n	80019b4 <HAL_ADC_IRQHandler+0x134>
      (__HAL_ADC_GET_FLAG(hadc, ADC_FLAG_EOS) && __HAL_ADC_GET_IT_SOURCE(hadc, ADC_IT_EOS))   )
 80018be:	687b      	ldr	r3, [r7, #4]
 80018c0:	681b      	ldr	r3, [r3, #0]
 80018c2:	685b      	ldr	r3, [r3, #4]
 80018c4:	f003 0308 	and.w	r3, r3, #8
 80018c8:	2b08      	cmp	r3, #8
 80018ca:	d173      	bne.n	80019b4 <HAL_ADC_IRQHandler+0x134>
  {
    /* Update state machine on conversion status if not in error state */
    if (HAL_IS_BIT_CLR(hadc->State, HAL_ADC_STATE_ERROR_INTERNAL))
 80018cc:	687b      	ldr	r3, [r7, #4]
 80018ce:	6c1b      	ldr	r3, [r3, #64]	; 0x40
 80018d0:	f003 0310 	and.w	r3, r3, #16
 80018d4:	2b00      	cmp	r3, #0
 80018d6:	d105      	bne.n	80018e4 <HAL_ADC_IRQHandler+0x64>
    {
      /* Set ADC state */
      SET_BIT(hadc->State, HAL_ADC_STATE_REG_EOC); 
 80018d8:	687b      	ldr	r3, [r7, #4]
 80018da:	6c1b      	ldr	r3, [r3, #64]	; 0x40
 80018dc:	f443 7200 	orr.w	r2, r3, #512	; 0x200
 80018e0:	687b      	ldr	r3, [r7, #4]
 80018e2:	641a      	str	r2, [r3, #64]	; 0x40
    }
    
    /* Get relevant register CFGR in ADC instance of ADC master or slave    */
    /* in function of multimode state (for devices with multimode           */
    /* available).                                                          */
    if (ADC_NONMULTIMODE_REG_OR_MULTIMODEMASTER(hadc))
 80018e4:	4b88      	ldr	r3, [pc, #544]	; (8001b08 <HAL_ADC_IRQHandler+0x288>)
 80018e6:	689b      	ldr	r3, [r3, #8]
 80018e8:	f003 031f 	and.w	r3, r3, #31
 80018ec:	2b00      	cmp	r3, #0
 80018ee:	d010      	beq.n	8001912 <HAL_ADC_IRQHandler+0x92>
 80018f0:	4b85      	ldr	r3, [pc, #532]	; (8001b08 <HAL_ADC_IRQHandler+0x288>)
 80018f2:	689b      	ldr	r3, [r3, #8]
 80018f4:	f003 031f 	and.w	r3, r3, #31
 80018f8:	2b05      	cmp	r3, #5
 80018fa:	d00a      	beq.n	8001912 <HAL_ADC_IRQHandler+0x92>
 80018fc:	4b82      	ldr	r3, [pc, #520]	; (8001b08 <HAL_ADC_IRQHandler+0x288>)
 80018fe:	689b      	ldr	r3, [r3, #8]
 8001900:	f003 031f 	and.w	r3, r3, #31
 8001904:	2b09      	cmp	r3, #9
 8001906:	d004      	beq.n	8001912 <HAL_ADC_IRQHandler+0x92>
 8001908:	687b      	ldr	r3, [r7, #4]
 800190a:	681b      	ldr	r3, [r3, #0]
 800190c:	f1b3 4fa0 	cmp.w	r3, #1342177280	; 0x50000000
 8001910:	d104      	bne.n	800191c <HAL_ADC_IRQHandler+0x9c>
    {
      tmp_cfgr = READ_REG(hadc->Instance->CFGR); 
 8001912:	687b      	ldr	r3, [r7, #4]
 8001914:	681b      	ldr	r3, [r3, #0]
 8001916:	68db      	ldr	r3, [r3, #12]
 8001918:	613b      	str	r3, [r7, #16]
 800191a:	e003      	b.n	8001924 <HAL_ADC_IRQHandler+0xa4>
    }
    else
    {
      tmp_cfgr = READ_REG(ADC_MASTER_INSTANCE(hadc)->CFGR);
 800191c:	f04f 43a0 	mov.w	r3, #1342177280	; 0x50000000
 8001920:	68db      	ldr	r3, [r3, #12]
 8001922:	613b      	str	r3, [r7, #16]
    }
    
    /* Disable interruption if no further conversion upcoming by regular      */
    /* external trigger or by continuous mode,                                */
    /* and if scan sequence if completed.                                     */
    if(ADC_IS_SOFTWARE_START_REGULAR(hadc)         && 
 8001924:	687b      	ldr	r3, [r7, #4]
 8001926:	681b      	ldr	r3, [r3, #0]
 8001928:	68db      	ldr	r3, [r3, #12]
 800192a:	f403 6340 	and.w	r3, r3, #3072	; 0xc00
 800192e:	2b00      	cmp	r3, #0
 8001930:	d139      	bne.n	80019a6 <HAL_ADC_IRQHandler+0x126>
       (READ_BIT(tmp_cfgr, ADC_CFGR_CONT) == RESET)  )
 8001932:	693b      	ldr	r3, [r7, #16]
 8001934:	f403 5300 	and.w	r3, r3, #8192	; 0x2000
    if(ADC_IS_SOFTWARE_START_REGULAR(hadc)         && 
 8001938:	2b00      	cmp	r3, #0
 800193a:	d134      	bne.n	80019a6 <HAL_ADC_IRQHandler+0x126>
    {
      /* If End of Sequence is reached, disable interrupts */
      if( __HAL_ADC_GET_FLAG(hadc, ADC_FLAG_EOS) )
 800193c:	687b      	ldr	r3, [r7, #4]
 800193e:	681b      	ldr	r3, [r3, #0]
 8001940:	681b      	ldr	r3, [r3, #0]
 8001942:	f003 0308 	and.w	r3, r3, #8
 8001946:	2b08      	cmp	r3, #8
 8001948:	d12d      	bne.n	80019a6 <HAL_ADC_IRQHandler+0x126>
      {
        /* Allowed to modify bits ADC_IT_EOC/ADC_IT_EOS only if bit           */
        /* ADSTART==0 (no conversion on going)                                */
        if (ADC_IS_CONVERSION_ONGOING_REGULAR(hadc) == RESET)
 800194a:	687b      	ldr	r3, [r7, #4]
 800194c:	681b      	ldr	r3, [r3, #0]
 800194e:	689b      	ldr	r3, [r3, #8]
 8001950:	f003 0304 	and.w	r3, r3, #4
 8001954:	2b00      	cmp	r3, #0
 8001956:	d11a      	bne.n	800198e <HAL_ADC_IRQHandler+0x10e>
        {
          /* Disable ADC end of sequence conversion interrupt */
          /* Note: Overrun interrupt was enabled with EOC interrupt in        */
          /* HAL_Start_IT(), but is not disabled here because can be used     */
          /* by overrun IRQ process below.                                    */
          __HAL_ADC_DISABLE_IT(hadc, ADC_IT_EOC | ADC_IT_EOS);
 8001958:	687b      	ldr	r3, [r7, #4]
 800195a:	681b      	ldr	r3, [r3, #0]
 800195c:	685a      	ldr	r2, [r3, #4]
 800195e:	687b      	ldr	r3, [r7, #4]
 8001960:	681b      	ldr	r3, [r3, #0]
 8001962:	f022 020c 	bic.w	r2, r2, #12
 8001966:	605a      	str	r2, [r3, #4]
          
          /* Set ADC state */
          CLEAR_BIT(hadc->State, HAL_ADC_STATE_REG_BUSY);   
 8001968:	687b      	ldr	r3, [r7, #4]
 800196a:	6c1b      	ldr	r3, [r3, #64]	; 0x40
 800196c:	f423 7280 	bic.w	r2, r3, #256	; 0x100
 8001970:	687b      	ldr	r3, [r7, #4]
 8001972:	641a      	str	r2, [r3, #64]	; 0x40
          
          if (HAL_IS_BIT_CLR(hadc->State, HAL_ADC_STATE_INJ_BUSY))
 8001974:	687b      	ldr	r3, [r7, #4]
 8001976:	6c1b      	ldr	r3, [r3, #64]	; 0x40
 8001978:	f403 5380 	and.w	r3, r3, #4096	; 0x1000
 800197c:	2b00      	cmp	r3, #0
 800197e:	d112      	bne.n	80019a6 <HAL_ADC_IRQHandler+0x126>
          {
            SET_BIT(hadc->State, HAL_ADC_STATE_READY);
 8001980:	687b      	ldr	r3, [r7, #4]
 8001982:	6c1b      	ldr	r3, [r3, #64]	; 0x40
 8001984:	f043 0201 	orr.w	r2, r3, #1
 8001988:	687b      	ldr	r3, [r7, #4]
 800198a:	641a      	str	r2, [r3, #64]	; 0x40
 800198c:	e00b      	b.n	80019a6 <HAL_ADC_IRQHandler+0x126>
          }
        }
        else
        {
          /* Update ADC state machine to error */
          SET_BIT(hadc->State, HAL_ADC_STATE_ERROR_INTERNAL);
 800198e:	687b      	ldr	r3, [r7, #4]
 8001990:	6c1b      	ldr	r3, [r3, #64]	; 0x40
 8001992:	f043 0210 	orr.w	r2, r3, #16
 8001996:	687b      	ldr	r3, [r7, #4]
 8001998:	641a      	str	r2, [r3, #64]	; 0x40
        
          /* Set ADC error code to ADC IP internal error */
          SET_BIT(hadc->ErrorCode, HAL_ADC_ERROR_INTERNAL);
 800199a:	687b      	ldr	r3, [r7, #4]
 800199c:	6c5b      	ldr	r3, [r3, #68]	; 0x44
 800199e:	f043 0201 	orr.w	r2, r3, #1
 80019a2:	687b      	ldr	r3, [r7, #4]
 80019a4:	645a      	str	r2, [r3, #68]	; 0x44
    /*       from EOC or EOS, possibility to use:                             */
    /*        " if( __HAL_ADC_GET_FLAG(&hadc, ADC_FLAG_EOS)) "                */
#if (USE_HAL_ADC_REGISTER_CALLBACKS == 1)
      hadc->ConvCpltCallback(hadc);
#else
      HAL_ADC_ConvCpltCallback(hadc);
 80019a6:	6878      	ldr	r0, [r7, #4]
 80019a8:	f7ff fdba 	bl	8001520 <HAL_ADC_ConvCpltCallback>
    /* Note: in case of overrun set to ADC_OVR_DATA_PRESERVED, end of         */
    /*       conversion flags clear induces the release of the preserved      */
    /*       data.                                                            */
    /*       Therefore, if the preserved data value is needed, it must be     */
    /*       read preliminarily into HAL_ADC_ConvCpltCallback().              */
    __HAL_ADC_CLEAR_FLAG(hadc, (ADC_FLAG_EOC | ADC_FLAG_EOS) );
 80019ac:	687b      	ldr	r3, [r7, #4]
 80019ae:	681b      	ldr	r3, [r3, #0]
 80019b0:	220c      	movs	r2, #12
 80019b2:	601a      	str	r2, [r3, #0]
  }
  
  
  /* ========== Check End of Conversion flag for injected group ========== */
  if( (__HAL_ADC_GET_FLAG(hadc, ADC_FLAG_JEOC) && __HAL_ADC_GET_IT_SOURCE(hadc, ADC_IT_JEOC)) ||   
 80019b4:	687b      	ldr	r3, [r7, #4]
 80019b6:	681b      	ldr	r3, [r3, #0]
 80019b8:	681b      	ldr	r3, [r3, #0]
 80019ba:	f003 0320 	and.w	r3, r3, #32
 80019be:	2b20      	cmp	r3, #32
 80019c0:	d106      	bne.n	80019d0 <HAL_ADC_IRQHandler+0x150>
 80019c2:	687b      	ldr	r3, [r7, #4]
 80019c4:	681b      	ldr	r3, [r3, #0]
 80019c6:	685b      	ldr	r3, [r3, #4]
 80019c8:	f003 0320 	and.w	r3, r3, #32
 80019cc:	2b20      	cmp	r3, #32
 80019ce:	d00f      	beq.n	80019f0 <HAL_ADC_IRQHandler+0x170>
      (__HAL_ADC_GET_FLAG(hadc, ADC_FLAG_JEOS) && __HAL_ADC_GET_IT_SOURCE(hadc, ADC_IT_JEOS))   )
 80019d0:	687b      	ldr	r3, [r7, #4]
 80019d2:	681b      	ldr	r3, [r3, #0]
 80019d4:	681b      	ldr	r3, [r3, #0]
 80019d6:	f003 0340 	and.w	r3, r3, #64	; 0x40
  if( (__HAL_ADC_GET_FLAG(hadc, ADC_FLAG_JEOC) && __HAL_ADC_GET_IT_SOURCE(hadc, ADC_IT_JEOC)) ||   
 80019da:	2b40      	cmp	r3, #64	; 0x40
 80019dc:	f040 80a9 	bne.w	8001b32 <HAL_ADC_IRQHandler+0x2b2>
      (__HAL_ADC_GET_FLAG(hadc, ADC_FLAG_JEOS) && __HAL_ADC_GET_IT_SOURCE(hadc, ADC_IT_JEOS))   )
 80019e0:	687b      	ldr	r3, [r7, #4]
 80019e2:	681b      	ldr	r3, [r3, #0]
 80019e4:	685b      	ldr	r3, [r3, #4]
 80019e6:	f003 0340 	and.w	r3, r3, #64	; 0x40
 80019ea:	2b40      	cmp	r3, #64	; 0x40
 80019ec:	f040 80a1 	bne.w	8001b32 <HAL_ADC_IRQHandler+0x2b2>
  {
    /* Set ADC state */
    SET_BIT(hadc->State, HAL_ADC_STATE_INJ_EOC);
 80019f0:	687b      	ldr	r3, [r7, #4]
 80019f2:	6c1b      	ldr	r3, [r3, #64]	; 0x40
 80019f4:	f443 5200 	orr.w	r2, r3, #8192	; 0x2000
 80019f8:	687b      	ldr	r3, [r7, #4]
 80019fa:	641a      	str	r2, [r3, #64]	; 0x40
        
    /* Get relevant register CFGR in ADC instance of ADC master or slave      */
    /* in function of multimode state (for devices with multimode             */
    /* available).                                                            */
    if (ADC_NONMULTIMODE_REG_OR_MULTIMODEMASTER(hadc))
 80019fc:	4b42      	ldr	r3, [pc, #264]	; (8001b08 <HAL_ADC_IRQHandler+0x288>)
 80019fe:	689b      	ldr	r3, [r3, #8]
 8001a00:	f003 031f 	and.w	r3, r3, #31
 8001a04:	2b00      	cmp	r3, #0
 8001a06:	d010      	beq.n	8001a2a <HAL_ADC_IRQHandler+0x1aa>
 8001a08:	4b3f      	ldr	r3, [pc, #252]	; (8001b08 <HAL_ADC_IRQHandler+0x288>)
 8001a0a:	689b      	ldr	r3, [r3, #8]
 8001a0c:	f003 031f 	and.w	r3, r3, #31
 8001a10:	2b05      	cmp	r3, #5
 8001a12:	d00a      	beq.n	8001a2a <HAL_ADC_IRQHandler+0x1aa>
 8001a14:	4b3c      	ldr	r3, [pc, #240]	; (8001b08 <HAL_ADC_IRQHandler+0x288>)
 8001a16:	689b      	ldr	r3, [r3, #8]
 8001a18:	f003 031f 	and.w	r3, r3, #31
 8001a1c:	2b09      	cmp	r3, #9
 8001a1e:	d004      	beq.n	8001a2a <HAL_ADC_IRQHandler+0x1aa>
 8001a20:	687b      	ldr	r3, [r7, #4]
 8001a22:	681b      	ldr	r3, [r3, #0]
 8001a24:	f1b3 4fa0 	cmp.w	r3, #1342177280	; 0x50000000
 8001a28:	d104      	bne.n	8001a34 <HAL_ADC_IRQHandler+0x1b4>
    {
      tmp_cfgr = READ_REG(hadc->Instance->CFGR); 
 8001a2a:	687b      	ldr	r3, [r7, #4]
 8001a2c:	681b      	ldr	r3, [r3, #0]
 8001a2e:	68db      	ldr	r3, [r3, #12]
 8001a30:	613b      	str	r3, [r7, #16]
 8001a32:	e003      	b.n	8001a3c <HAL_ADC_IRQHandler+0x1bc>
    }
    else
    {
      tmp_cfgr = READ_REG(ADC_MASTER_INSTANCE(hadc)->CFGR);
 8001a34:	f04f 43a0 	mov.w	r3, #1342177280	; 0x50000000
 8001a38:	68db      	ldr	r3, [r3, #12]
 8001a3a:	613b      	str	r3, [r7, #16]
    /* Disable interruption if no further conversion upcoming by injected     */
    /* external trigger or by automatic injected conversion with regular      */
    /* group having no further conversion upcoming (same conditions as        */
    /* regular group interruption disabling above),                           */
    /* and if injected scan sequence is completed.                            */
    if(ADC_IS_SOFTWARE_START_INJECTED(hadc)                   ||
 8001a3c:	687b      	ldr	r3, [r7, #4]
 8001a3e:	681b      	ldr	r3, [r3, #0]
 8001a40:	6cdb      	ldr	r3, [r3, #76]	; 0x4c
 8001a42:	f003 03c0 	and.w	r3, r3, #192	; 0xc0
 8001a46:	2b00      	cmp	r3, #0
 8001a48:	d010      	beq.n	8001a6c <HAL_ADC_IRQHandler+0x1ec>
       ((READ_BIT (tmp_cfgr, ADC_CFGR_JAUTO) == RESET)    &&
 8001a4a:	693b      	ldr	r3, [r7, #16]
 8001a4c:	f003 7300 	and.w	r3, r3, #33554432	; 0x2000000
    if(ADC_IS_SOFTWARE_START_INJECTED(hadc)                   ||
 8001a50:	2b00      	cmp	r3, #0
 8001a52:	d167      	bne.n	8001b24 <HAL_ADC_IRQHandler+0x2a4>
        (ADC_IS_SOFTWARE_START_REGULAR(hadc)          &&
 8001a54:	687b      	ldr	r3, [r7, #4]
 8001a56:	681b      	ldr	r3, [r3, #0]
 8001a58:	68db      	ldr	r3, [r3, #12]
 8001a5a:	f403 6340 	and.w	r3, r3, #3072	; 0xc00
       ((READ_BIT (tmp_cfgr, ADC_CFGR_JAUTO) == RESET)    &&
 8001a5e:	2b00      	cmp	r3, #0
 8001a60:	d160      	bne.n	8001b24 <HAL_ADC_IRQHandler+0x2a4>
        (READ_BIT (tmp_cfgr, ADC_CFGR_CONT) == RESET)   )   )   )
 8001a62:	693b      	ldr	r3, [r7, #16]
 8001a64:	f403 5300 	and.w	r3, r3, #8192	; 0x2000
        (ADC_IS_SOFTWARE_START_REGULAR(hadc)          &&
 8001a68:	2b00      	cmp	r3, #0
 8001a6a:	d15b      	bne.n	8001b24 <HAL_ADC_IRQHandler+0x2a4>
    {
      /* If End of Sequence is reached, disable interrupts */
      if( __HAL_ADC_GET_FLAG(hadc, ADC_FLAG_JEOS))
 8001a6c:	687b      	ldr	r3, [r7, #4]
 8001a6e:	681b      	ldr	r3, [r3, #0]
 8001a70:	681b      	ldr	r3, [r3, #0]
 8001a72:	f003 0340 	and.w	r3, r3, #64	; 0x40
 8001a76:	2b40      	cmp	r3, #64	; 0x40
 8001a78:	d154      	bne.n	8001b24 <HAL_ADC_IRQHandler+0x2a4>
      {
        
        /* Get relevant register CFGR in ADC instance of ADC master or slave  */
        /* in function of multimode state (for devices with multimode         */
        /* available).                                                        */
        if (ADC_NONMULTIMODE_INJ_OR_MULTIMODEMASTER(hadc))
 8001a7a:	4b23      	ldr	r3, [pc, #140]	; (8001b08 <HAL_ADC_IRQHandler+0x288>)
 8001a7c:	689b      	ldr	r3, [r3, #8]
 8001a7e:	f003 031f 	and.w	r3, r3, #31
 8001a82:	2b00      	cmp	r3, #0
 8001a84:	d010      	beq.n	8001aa8 <HAL_ADC_IRQHandler+0x228>
 8001a86:	4b20      	ldr	r3, [pc, #128]	; (8001b08 <HAL_ADC_IRQHandler+0x288>)
 8001a88:	689b      	ldr	r3, [r3, #8]
 8001a8a:	f003 031f 	and.w	r3, r3, #31
 8001a8e:	2b06      	cmp	r3, #6
 8001a90:	d00a      	beq.n	8001aa8 <HAL_ADC_IRQHandler+0x228>
 8001a92:	4b1d      	ldr	r3, [pc, #116]	; (8001b08 <HAL_ADC_IRQHandler+0x288>)
 8001a94:	689b      	ldr	r3, [r3, #8]
 8001a96:	f003 031f 	and.w	r3, r3, #31
 8001a9a:	2b07      	cmp	r3, #7
 8001a9c:	d004      	beq.n	8001aa8 <HAL_ADC_IRQHandler+0x228>
 8001a9e:	687b      	ldr	r3, [r7, #4]
 8001aa0:	681b      	ldr	r3, [r3, #0]
 8001aa2:	f1b3 4fa0 	cmp.w	r3, #1342177280	; 0x50000000
 8001aa6:	d104      	bne.n	8001ab2 <HAL_ADC_IRQHandler+0x232>
        {
          tmp_cfgr_jqm = READ_REG(hadc->Instance->CFGR); 
 8001aa8:	687b      	ldr	r3, [r7, #4]
 8001aaa:	681b      	ldr	r3, [r3, #0]
 8001aac:	68db      	ldr	r3, [r3, #12]
 8001aae:	60fb      	str	r3, [r7, #12]
 8001ab0:	e003      	b.n	8001aba <HAL_ADC_IRQHandler+0x23a>
        }
        else
        {
          tmp_cfgr_jqm = READ_REG(ADC_MASTER_INSTANCE(hadc)->CFGR);
 8001ab2:	f04f 43a0 	mov.w	r3, #1342177280	; 0x50000000
 8001ab6:	68db      	ldr	r3, [r3, #12]
 8001ab8:	60fb      	str	r3, [r7, #12]
        /* when the last context has been fully processed, JSQR is reset      */
        /* by the hardware. Even if no injected conversion is planned to come */
        /* (queue empty, triggers are ignored), it can start again            */
        /* immediately after setting a new context (JADSTART is still set).   */
        /* Therefore, state of HAL ADC injected group is kept to busy.        */
        if(READ_BIT(tmp_cfgr_jqm, ADC_CFGR_JQM) == RESET)
 8001aba:	68fb      	ldr	r3, [r7, #12]
 8001abc:	f403 1300 	and.w	r3, r3, #2097152	; 0x200000
 8001ac0:	2b00      	cmp	r3, #0
 8001ac2:	d12f      	bne.n	8001b24 <HAL_ADC_IRQHandler+0x2a4>
        {
          /* Allowed to modify bits ADC_IT_JEOC/ADC_IT_JEOS only if bit       */
          /* JADSTART==0 (no conversion on going)                             */
          if (ADC_IS_CONVERSION_ONGOING_INJECTED(hadc) == RESET)
 8001ac4:	687b      	ldr	r3, [r7, #4]
 8001ac6:	681b      	ldr	r3, [r3, #0]
 8001ac8:	689b      	ldr	r3, [r3, #8]
 8001aca:	f003 0308 	and.w	r3, r3, #8
 8001ace:	2b00      	cmp	r3, #0
 8001ad0:	d11c      	bne.n	8001b0c <HAL_ADC_IRQHandler+0x28c>
          {
            /* Disable ADC end of sequence conversion interrupt  */
            __HAL_ADC_DISABLE_IT(hadc, ADC_IT_JEOC | ADC_IT_JEOS);
 8001ad2:	687b      	ldr	r3, [r7, #4]
 8001ad4:	681b      	ldr	r3, [r3, #0]
 8001ad6:	685a      	ldr	r2, [r3, #4]
 8001ad8:	687b      	ldr	r3, [r7, #4]
 8001ada:	681b      	ldr	r3, [r3, #0]
 8001adc:	f022 0260 	bic.w	r2, r2, #96	; 0x60
 8001ae0:	605a      	str	r2, [r3, #4]
            
            /* Set ADC state */
            CLEAR_BIT(hadc->State, HAL_ADC_STATE_INJ_BUSY);
 8001ae2:	687b      	ldr	r3, [r7, #4]
 8001ae4:	6c1b      	ldr	r3, [r3, #64]	; 0x40
 8001ae6:	f423 5280 	bic.w	r2, r3, #4096	; 0x1000
 8001aea:	687b      	ldr	r3, [r7, #4]
 8001aec:	641a      	str	r2, [r3, #64]	; 0x40

            if (HAL_IS_BIT_CLR(hadc->State, HAL_ADC_STATE_REG_BUSY))
 8001aee:	687b      	ldr	r3, [r7, #4]
 8001af0:	6c1b      	ldr	r3, [r3, #64]	; 0x40
 8001af2:	f403 7380 	and.w	r3, r3, #256	; 0x100
 8001af6:	2b00      	cmp	r3, #0
 8001af8:	d114      	bne.n	8001b24 <HAL_ADC_IRQHandler+0x2a4>
            { 
              SET_BIT(hadc->State, HAL_ADC_STATE_READY);
 8001afa:	687b      	ldr	r3, [r7, #4]
 8001afc:	6c1b      	ldr	r3, [r3, #64]	; 0x40
 8001afe:	f043 0201 	orr.w	r2, r3, #1
 8001b02:	687b      	ldr	r3, [r7, #4]
 8001b04:	641a      	str	r2, [r3, #64]	; 0x40
 8001b06:	e00d      	b.n	8001b24 <HAL_ADC_IRQHandler+0x2a4>
 8001b08:	50000300 	.word	0x50000300
            }
          }
          else
          {
            /* Update ADC state machine to error */
            SET_BIT(hadc->State, HAL_ADC_STATE_ERROR_INTERNAL);
 8001b0c:	687b      	ldr	r3, [r7, #4]
 8001b0e:	6c1b      	ldr	r3, [r3, #64]	; 0x40
 8001b10:	f043 0210 	orr.w	r2, r3, #16
 8001b14:	687b      	ldr	r3, [r7, #4]
 8001b16:	641a      	str	r2, [r3, #64]	; 0x40
          
            /* Set ADC error code to ADC IP internal error */
            SET_BIT(hadc->ErrorCode, HAL_ADC_ERROR_INTERNAL);
 8001b18:	687b      	ldr	r3, [r7, #4]
 8001b1a:	6c5b      	ldr	r3, [r3, #68]	; 0x44
 8001b1c:	f043 0201 	orr.w	r2, r3, #1
 8001b20:	687b      	ldr	r3, [r7, #4]
 8001b22:	645a      	str	r2, [r3, #68]	; 0x44
    /*       from JEOC or JEOS, possibility to use:                           */
    /*        " if( __HAL_ADC_GET_FLAG(&hadc, ADC_FLAG_JEOS)) "               */
#if (USE_HAL_ADC_REGISTER_CALLBACKS == 1)
      hadc->InjectedConvCpltCallback(hadc);
#else
      HAL_ADCEx_InjectedConvCpltCallback(hadc);
 8001b24:	6878      	ldr	r0, [r7, #4]
 8001b26:	f000 f8cb 	bl	8001cc0 <HAL_ADCEx_InjectedConvCpltCallback>
#endif /* USE_HAL_ADC_REGISTER_CALLBACKS */
    
    /* Clear injected group conversion flag */
    __HAL_ADC_CLEAR_FLAG(hadc, ADC_FLAG_JEOC | ADC_FLAG_JEOS);
 8001b2a:	687b      	ldr	r3, [r7, #4]
 8001b2c:	681b      	ldr	r3, [r3, #0]
 8001b2e:	2260      	movs	r2, #96	; 0x60
 8001b30:	601a      	str	r2, [r3, #0]
  }
  
  /* ========== Check analog watchdog 1 flag ========== */
  if (__HAL_ADC_GET_FLAG(hadc, ADC_FLAG_AWD1) && __HAL_ADC_GET_IT_SOURCE(hadc, ADC_IT_AWD1))
 8001b32:	687b      	ldr	r3, [r7, #4]
 8001b34:	681b      	ldr	r3, [r3, #0]
 8001b36:	681b      	ldr	r3, [r3, #0]
 8001b38:	f003 0380 	and.w	r3, r3, #128	; 0x80
 8001b3c:	2b80      	cmp	r3, #128	; 0x80
 8001b3e:	d113      	bne.n	8001b68 <HAL_ADC_IRQHandler+0x2e8>
 8001b40:	687b      	ldr	r3, [r7, #4]
 8001b42:	681b      	ldr	r3, [r3, #0]
 8001b44:	685b      	ldr	r3, [r3, #4]
 8001b46:	f003 0380 	and.w	r3, r3, #128	; 0x80
 8001b4a:	2b80      	cmp	r3, #128	; 0x80
 8001b4c:	d10c      	bne.n	8001b68 <HAL_ADC_IRQHandler+0x2e8>
  {
    /* Set ADC state */
    SET_BIT(hadc->State, HAL_ADC_STATE_AWD1);
 8001b4e:	687b      	ldr	r3, [r7, #4]
 8001b50:	6c1b      	ldr	r3, [r3, #64]	; 0x40
 8001b52:	f443 3280 	orr.w	r2, r3, #65536	; 0x10000
 8001b56:	687b      	ldr	r3, [r7, #4]
 8001b58:	641a      	str	r2, [r3, #64]	; 0x40
    
    /* Level out of window 1 callback */
#if (USE_HAL_ADC_REGISTER_CALLBACKS == 1)
      hadc->LevelOutOfWindowCallback(hadc);
#else
      HAL_ADC_LevelOutOfWindowCallback(hadc);
 8001b5a:	6878      	ldr	r0, [r7, #4]
 8001b5c:	f7ff fcea 	bl	8001534 <HAL_ADC_LevelOutOfWindowCallback>
#endif /* USE_HAL_ADC_REGISTER_CALLBACKS */
    /* Clear ADC analog watchdog flag */ 
    __HAL_ADC_CLEAR_FLAG(hadc, ADC_FLAG_AWD1);
 8001b60:	687b      	ldr	r3, [r7, #4]
 8001b62:	681b      	ldr	r3, [r3, #0]
 8001b64:	2280      	movs	r2, #128	; 0x80
 8001b66:	601a      	str	r2, [r3, #0]
  }
  
  /* ========== Check analog watchdog 2 flag ========== */
  if (__HAL_ADC_GET_FLAG(hadc, ADC_FLAG_AWD2) && __HAL_ADC_GET_IT_SOURCE(hadc, ADC_IT_AWD2))
 8001b68:	687b      	ldr	r3, [r7, #4]
 8001b6a:	681b      	ldr	r3, [r3, #0]
 8001b6c:	681b      	ldr	r3, [r3, #0]
 8001b6e:	f403 7380 	and.w	r3, r3, #256	; 0x100
 8001b72:	f5b3 7f80 	cmp.w	r3, #256	; 0x100
 8001b76:	d115      	bne.n	8001ba4 <HAL_ADC_IRQHandler+0x324>
 8001b78:	687b      	ldr	r3, [r7, #4]
 8001b7a:	681b      	ldr	r3, [r3, #0]
 8001b7c:	685b      	ldr	r3, [r3, #4]
 8001b7e:	f403 7380 	and.w	r3, r3, #256	; 0x100
 8001b82:	f5b3 7f80 	cmp.w	r3, #256	; 0x100
 8001b86:	d10d      	bne.n	8001ba4 <HAL_ADC_IRQHandler+0x324>
  {
    /* Set ADC state */
    SET_BIT(hadc->State, HAL_ADC_STATE_AWD2);
 8001b88:	687b      	ldr	r3, [r7, #4]
 8001b8a:	6c1b      	ldr	r3, [r3, #64]	; 0x40
 8001b8c:	f443 3200 	orr.w	r2, r3, #131072	; 0x20000
 8001b90:	687b      	ldr	r3, [r7, #4]
 8001b92:	641a      	str	r2, [r3, #64]	; 0x40
    
    /* Level out of window 2 callback */
    HAL_ADCEx_LevelOutOfWindow2Callback(hadc);
 8001b94:	6878      	ldr	r0, [r7, #4]
 8001b96:	f000 f8a7 	bl	8001ce8 <HAL_ADCEx_LevelOutOfWindow2Callback>
    /* Clear ADC analog watchdog flag */ 
    __HAL_ADC_CLEAR_FLAG(hadc, ADC_FLAG_AWD2);
 8001b9a:	687b      	ldr	r3, [r7, #4]
 8001b9c:	681b      	ldr	r3, [r3, #0]
 8001b9e:	f44f 7280 	mov.w	r2, #256	; 0x100
 8001ba2:	601a      	str	r2, [r3, #0]
  } 
  
  /* ========== Check analog watchdog 3 flag ========== */
  if (__HAL_ADC_GET_FLAG(hadc, ADC_FLAG_AWD3) && __HAL_ADC_GET_IT_SOURCE(hadc, ADC_IT_AWD3)) 
 8001ba4:	687b      	ldr	r3, [r7, #4]
 8001ba6:	681b      	ldr	r3, [r3, #0]
 8001ba8:	681b      	ldr	r3, [r3, #0]
 8001baa:	f403 7300 	and.w	r3, r3, #512	; 0x200
 8001bae:	f5b3 7f00 	cmp.w	r3, #512	; 0x200
 8001bb2:	d115      	bne.n	8001be0 <HAL_ADC_IRQHandler+0x360>
 8001bb4:	687b      	ldr	r3, [r7, #4]
 8001bb6:	681b      	ldr	r3, [r3, #0]
 8001bb8:	685b      	ldr	r3, [r3, #4]
 8001bba:	f403 7300 	and.w	r3, r3, #512	; 0x200
 8001bbe:	f5b3 7f00 	cmp.w	r3, #512	; 0x200
 8001bc2:	d10d      	bne.n	8001be0 <HAL_ADC_IRQHandler+0x360>
  {
    /* Set ADC state */
    SET_BIT(hadc->State, HAL_ADC_STATE_AWD3);
 8001bc4:	687b      	ldr	r3, [r7, #4]
 8001bc6:	6c1b      	ldr	r3, [r3, #64]	; 0x40
 8001bc8:	f443 2280 	orr.w	r2, r3, #262144	; 0x40000
 8001bcc:	687b      	ldr	r3, [r7, #4]
 8001bce:	641a      	str	r2, [r3, #64]	; 0x40
    
    /* Level out of window 3 callback */
    HAL_ADCEx_LevelOutOfWindow3Callback(hadc);
 8001bd0:	6878      	ldr	r0, [r7, #4]
 8001bd2:	f000 f893 	bl	8001cfc <HAL_ADCEx_LevelOutOfWindow3Callback>
    /* Clear ADC analog watchdog flag */ 
    __HAL_ADC_CLEAR_FLAG(hadc, ADC_FLAG_AWD3);
 8001bd6:	687b      	ldr	r3, [r7, #4]
 8001bd8:	681b      	ldr	r3, [r3, #0]
 8001bda:	f44f 7200 	mov.w	r2, #512	; 0x200
 8001bde:	601a      	str	r2, [r3, #0]
  }
  
  /* ========== Check Overrun flag ========== */
  if(__HAL_ADC_GET_FLAG(hadc, ADC_FLAG_OVR) && __HAL_ADC_GET_IT_SOURCE(hadc, ADC_IT_OVR))
 8001be0:	687b      	ldr	r3, [r7, #4]
 8001be2:	681b      	ldr	r3, [r3, #0]
 8001be4:	681b      	ldr	r3, [r3, #0]
 8001be6:	f003 0310 	and.w	r3, r3, #16
 8001bea:	2b10      	cmp	r3, #16
 8001bec:	d13d      	bne.n	8001c6a <HAL_ADC_IRQHandler+0x3ea>
 8001bee:	687b      	ldr	r3, [r7, #4]
 8001bf0:	681b      	ldr	r3, [r3, #0]
 8001bf2:	685b      	ldr	r3, [r3, #4]
 8001bf4:	f003 0310 	and.w	r3, r3, #16
 8001bf8:	2b10      	cmp	r3, #16
 8001bfa:	d136      	bne.n	8001c6a <HAL_ADC_IRQHandler+0x3ea>
    /* overrun event is not considered as an error.                           */
    /* (cf ref manual "Managing conversions without using the DMA and         */
    /* without overrun ")                                                     */
    /* Exception for usage with DMA overrun event always considered as an     */
    /* error.                                                                 */
    if (hadc->Init.Overrun == ADC_OVR_DATA_PRESERVED)
 8001bfc:	687b      	ldr	r3, [r7, #4]
 8001bfe:	6b5b      	ldr	r3, [r3, #52]	; 0x34
 8001c00:	2b01      	cmp	r3, #1
 8001c02:	d102      	bne.n	8001c0a <HAL_ADC_IRQHandler+0x38a>
    {
      overrun_error = 1U;
 8001c04:	2301      	movs	r3, #1
 8001c06:	617b      	str	r3, [r7, #20]
 8001c08:	e019      	b.n	8001c3e <HAL_ADC_IRQHandler+0x3be>
    else
    {
      /* Pointer to the common control register to which is belonging hadc    */
      /* (Depending on STM32F3 product, there may be up to 4 ADC and 2 common */
      /* control registers)                                                   */
      tmpADC_Common = ADC_COMMON_REGISTER(hadc);
 8001c0a:	4b2c      	ldr	r3, [pc, #176]	; (8001cbc <HAL_ADC_IRQHandler+0x43c>)
 8001c0c:	60bb      	str	r3, [r7, #8]
      
      /* Check DMA configuration, depending on MultiMode set or not */
      if (READ_BIT(tmpADC_Common->CCR, ADC_CCR_MULTI) == ADC_MODE_INDEPENDENT)
 8001c0e:	68bb      	ldr	r3, [r7, #8]
 8001c10:	689b      	ldr	r3, [r3, #8]
 8001c12:	f003 031f 	and.w	r3, r3, #31
 8001c16:	2b00      	cmp	r3, #0
 8001c18:	d109      	bne.n	8001c2e <HAL_ADC_IRQHandler+0x3ae>
      {
        if (HAL_IS_BIT_SET(hadc->Instance->CFGR, ADC_CFGR_DMAEN))
 8001c1a:	687b      	ldr	r3, [r7, #4]
 8001c1c:	681b      	ldr	r3, [r3, #0]
 8001c1e:	68db      	ldr	r3, [r3, #12]
 8001c20:	f003 0301 	and.w	r3, r3, #1
 8001c24:	2b01      	cmp	r3, #1
 8001c26:	d10a      	bne.n	8001c3e <HAL_ADC_IRQHandler+0x3be>
        {
          overrun_error = 1U;  
 8001c28:	2301      	movs	r3, #1
 8001c2a:	617b      	str	r3, [r7, #20]
 8001c2c:	e007      	b.n	8001c3e <HAL_ADC_IRQHandler+0x3be>
        }
      }
      else
      {
        /* MultiMode is enabled, Common Control Register MDMA bits must be checked */
        if (READ_BIT(tmpADC_Common->CCR, ADC_CCR_MDMA) != RESET)
 8001c2e:	68bb      	ldr	r3, [r7, #8]
 8001c30:	689b      	ldr	r3, [r3, #8]
 8001c32:	f403 4340 	and.w	r3, r3, #49152	; 0xc000
 8001c36:	2b00      	cmp	r3, #0
 8001c38:	d001      	beq.n	8001c3e <HAL_ADC_IRQHandler+0x3be>
        {
          overrun_error = 1U;  
 8001c3a:	2301      	movs	r3, #1
 8001c3c:	617b      	str	r3, [r7, #20]
        }
      }
    }
    
    if (overrun_error == 1U)
 8001c3e:	697b      	ldr	r3, [r7, #20]
 8001c40:	2b01      	cmp	r3, #1
 8001c42:	d10e      	bne.n	8001c62 <HAL_ADC_IRQHandler+0x3e2>
    {
      /* Update ADC state machine to error */
      SET_BIT(hadc->State, HAL_ADC_STATE_REG_OVR);
 8001c44:	687b      	ldr	r3, [r7, #4]
 8001c46:	6c1b      	ldr	r3, [r3, #64]	; 0x40
 8001c48:	f443 6280 	orr.w	r2, r3, #1024	; 0x400
 8001c4c:	687b      	ldr	r3, [r7, #4]
 8001c4e:	641a      	str	r2, [r3, #64]	; 0x40
    
      /* Set ADC error code to ADC IP internal error */
      SET_BIT(hadc->ErrorCode, HAL_ADC_ERROR_OVR);
 8001c50:	687b      	ldr	r3, [r7, #4]
 8001c52:	6c5b      	ldr	r3, [r3, #68]	; 0x44
 8001c54:	f043 0202 	orr.w	r2, r3, #2
 8001c58:	687b      	ldr	r3, [r7, #4]
 8001c5a:	645a      	str	r2, [r3, #68]	; 0x44
      
      /* Error callback */ 
#if (USE_HAL_ADC_REGISTER_CALLBACKS == 1)
      hadc->ErrorCallback(hadc);
#else
      HAL_ADC_ErrorCallback(hadc);
 8001c5c:	6878      	ldr	r0, [r7, #4]
 8001c5e:	f7ff fc73 	bl	8001548 <HAL_ADC_ErrorCallback>
#endif /* USE_HAL_ADC_REGISTER_CALLBACKS */
    }
    
    /* Clear the Overrun flag */
    __HAL_ADC_CLEAR_FLAG(hadc, ADC_FLAG_OVR);
 8001c62:	687b      	ldr	r3, [r7, #4]
 8001c64:	681b      	ldr	r3, [r3, #0]
 8001c66:	2210      	movs	r2, #16
 8001c68:	601a      	str	r2, [r3, #0]

  }
  
  
  /* ========== Check Injected context queue overflow flag ========== */
  if(__HAL_ADC_GET_FLAG(hadc, ADC_FLAG_JQOVF) && __HAL_ADC_GET_IT_SOURCE(hadc, ADC_IT_JQOVF))
 8001c6a:	687b      	ldr	r3, [r7, #4]
 8001c6c:	681b      	ldr	r3, [r3, #0]
 8001c6e:	681b      	ldr	r3, [r3, #0]
 8001c70:	f403 6380 	and.w	r3, r3, #1024	; 0x400
 8001c74:	f5b3 6f80 	cmp.w	r3, #1024	; 0x400
 8001c78:	d11b      	bne.n	8001cb2 <HAL_ADC_IRQHandler+0x432>
 8001c7a:	687b      	ldr	r3, [r7, #4]
 8001c7c:	681b      	ldr	r3, [r3, #0]
 8001c7e:	685b      	ldr	r3, [r3, #4]
 8001c80:	f403 6380 	and.w	r3, r3, #1024	; 0x400
 8001c84:	f5b3 6f80 	cmp.w	r3, #1024	; 0x400
 8001c88:	d113      	bne.n	8001cb2 <HAL_ADC_IRQHandler+0x432>
  {
      /* Update ADC state machine to error */
      SET_BIT(hadc->State, HAL_ADC_STATE_INJ_JQOVF);
 8001c8a:	687b      	ldr	r3, [r7, #4]
 8001c8c:	6c1b      	ldr	r3, [r3, #64]	; 0x40
 8001c8e:	f443 4280 	orr.w	r2, r3, #16384	; 0x4000
 8001c92:	687b      	ldr	r3, [r7, #4]
 8001c94:	641a      	str	r2, [r3, #64]	; 0x40
    
      /* Set ADC error code to ADC IP internal error */
      SET_BIT(hadc->ErrorCode, HAL_ADC_ERROR_JQOVF);
 8001c96:	687b      	ldr	r3, [r7, #4]
 8001c98:	6c5b      	ldr	r3, [r3, #68]	; 0x44
 8001c9a:	f043 0208 	orr.w	r2, r3, #8
 8001c9e:	687b      	ldr	r3, [r7, #4]
 8001ca0:	645a      	str	r2, [r3, #68]	; 0x44
    
    /* Clear the Injected context queue overflow flag */
    __HAL_ADC_CLEAR_FLAG(hadc, ADC_FLAG_JQOVF);
 8001ca2:	687b      	ldr	r3, [r7, #4]
 8001ca4:	681b      	ldr	r3, [r3, #0]
 8001ca6:	f44f 6280 	mov.w	r2, #1024	; 0x400
 8001caa:	601a      	str	r2, [r3, #0]
    
    /* Error callback */ 
    HAL_ADCEx_InjectedQueueOverflowCallback(hadc);
 8001cac:	6878      	ldr	r0, [r7, #4]
 8001cae:	f000 f811 	bl	8001cd4 <HAL_ADCEx_InjectedQueueOverflowCallback>
  }
  
}
 8001cb2:	bf00      	nop
 8001cb4:	3718      	adds	r7, #24
 8001cb6:	46bd      	mov	sp, r7
 8001cb8:	bd80      	pop	{r7, pc}
 8001cba:	bf00      	nop
 8001cbc:	50000300 	.word	0x50000300

08001cc0 <HAL_ADCEx_InjectedConvCpltCallback>:
  * @brief  Injected conversion complete callback in non blocking mode 
  * @param  hadc ADC handle
  * @retval None
  */
__weak void HAL_ADCEx_InjectedConvCpltCallback(ADC_HandleTypeDef* hadc)
{
 8001cc0:	b480      	push	{r7}
 8001cc2:	b083      	sub	sp, #12
 8001cc4:	af00      	add	r7, sp, #0
 8001cc6:	6078      	str	r0, [r7, #4]
  UNUSED(hadc);

  /* NOTE : This function Should not be modified, when the callback is needed,
            the HAL_ADCEx_InjectedConvCpltCallback could be implemented in the user file
  */
}
 8001cc8:	bf00      	nop
 8001cca:	370c      	adds	r7, #12
 8001ccc:	46bd      	mov	sp, r7
 8001cce:	f85d 7b04 	ldr.w	r7, [sp], #4
 8001cd2:	4770      	bx	lr

08001cd4 <HAL_ADCEx_InjectedQueueOverflowCallback>:
            contexts).
  * @param  hadc ADC handle
  * @retval None
  */
__weak void HAL_ADCEx_InjectedQueueOverflowCallback(ADC_HandleTypeDef* hadc)
{
 8001cd4:	b480      	push	{r7}
 8001cd6:	b083      	sub	sp, #12
 8001cd8:	af00      	add	r7, sp, #0
 8001cda:	6078      	str	r0, [r7, #4]

  /* NOTE : This function should not be modified. When the callback is needed,
            function HAL_ADCEx_InjectedQueueOverflowCallback must be implemented 
            in the user file.
  */
}
 8001cdc:	bf00      	nop
 8001cde:	370c      	adds	r7, #12
 8001ce0:	46bd      	mov	sp, r7
 8001ce2:	f85d 7b04 	ldr.w	r7, [sp], #4
 8001ce6:	4770      	bx	lr

08001ce8 <HAL_ADCEx_LevelOutOfWindow2Callback>:
  * @brief  Analog watchdog 2 callback in non blocking mode. 
  * @param  hadc ADC handle
  * @retval None
  */
__weak void HAL_ADCEx_LevelOutOfWindow2Callback(ADC_HandleTypeDef* hadc)
{
 8001ce8:	b480      	push	{r7}
 8001cea:	b083      	sub	sp, #12
 8001cec:	af00      	add	r7, sp, #0
 8001cee:	6078      	str	r0, [r7, #4]
  UNUSED(hadc);

  /* NOTE : This function should not be modified. When the callback is needed,
            function HAL_ADC_LevelOoutOfWindow2Callback must be implemented in the user file.
  */
}
 8001cf0:	bf00      	nop
 8001cf2:	370c      	adds	r7, #12
 8001cf4:	46bd      	mov	sp, r7
 8001cf6:	f85d 7b04 	ldr.w	r7, [sp], #4
 8001cfa:	4770      	bx	lr

08001cfc <HAL_ADCEx_LevelOutOfWindow3Callback>:
  * @brief  Analog watchdog 3 callback in non blocking mode. 
  * @param  hadc ADC handle
  * @retval None
  */
__weak void HAL_ADCEx_LevelOutOfWindow3Callback(ADC_HandleTypeDef* hadc)
{
 8001cfc:	b480      	push	{r7}
 8001cfe:	b083      	sub	sp, #12
 8001d00:	af00      	add	r7, sp, #0
 8001d02:	6078      	str	r0, [r7, #4]
  UNUSED(hadc);

  /* NOTE : This function should not be modified. When the callback is needed,
            function HAL_ADC_LevelOoutOfWindow3Callback must be implemented in the user file.
  */
}
 8001d04:	bf00      	nop
 8001d06:	370c      	adds	r7, #12
 8001d08:	46bd      	mov	sp, r7
 8001d0a:	f85d 7b04 	ldr.w	r7, [sp], #4
 8001d0e:	4770      	bx	lr

08001d10 <HAL_ADC_ConfigChannel>:
  * @param  hadc ADC handle
  * @param  sConfig Structure ADC channel for regular group.
  * @retval HAL status
  */
HAL_StatusTypeDef HAL_ADC_ConfigChannel(ADC_HandleTypeDef* hadc, ADC_ChannelConfTypeDef* sConfig)
{
 8001d10:	b480      	push	{r7}
 8001d12:	b09b      	sub	sp, #108	; 0x6c
 8001d14:	af00      	add	r7, sp, #0
 8001d16:	6078      	str	r0, [r7, #4]
 8001d18:	6039      	str	r1, [r7, #0]
  HAL_StatusTypeDef tmp_hal_status = HAL_OK;
 8001d1a:	2300      	movs	r3, #0
 8001d1c:	f887 3067 	strb.w	r3, [r7, #103]	; 0x67
  ADC_Common_TypeDef *tmpADC_Common;
  ADC_HandleTypeDef tmphadcSharingSameCommonRegister;
  uint32_t tmpOffsetShifted;
  __IO uint32_t wait_loop_index = 0U;
 8001d20:	2300      	movs	r3, #0
 8001d22:	60bb      	str	r3, [r7, #8]
  {
    assert_param(IS_ADC_DIFF_CHANNEL(sConfig->Channel));
  }
  
  /* Process locked */
  __HAL_LOCK(hadc);
 8001d24:	687b      	ldr	r3, [r7, #4]
 8001d26:	f893 303c 	ldrb.w	r3, [r3, #60]	; 0x3c
 8001d2a:	2b01      	cmp	r3, #1
 8001d2c:	d101      	bne.n	8001d32 <HAL_ADC_ConfigChannel+0x22>
 8001d2e:	2302      	movs	r3, #2
 8001d30:	e2a5      	b.n	800227e <HAL_ADC_ConfigChannel+0x56e>
 8001d32:	687b      	ldr	r3, [r7, #4]
 8001d34:	2201      	movs	r2, #1
 8001d36:	f883 203c 	strb.w	r2, [r3, #60]	; 0x3c
  /* Parameters update conditioned to ADC state:                              */
  /* Parameters that can be updated when ADC is disabled or enabled without   */
  /* conversion on going on regular group:                                    */
  /*  - Channel number                                                        */
  /*  - Channel rank                                                          */
  if (ADC_IS_CONVERSION_ONGOING_REGULAR(hadc) == RESET)
 8001d3a:	687b      	ldr	r3, [r7, #4]
 8001d3c:	681b      	ldr	r3, [r3, #0]
 8001d3e:	689b      	ldr	r3, [r3, #8]
 8001d40:	f003 0304 	and.w	r3, r3, #4
 8001d44:	2b00      	cmp	r3, #0
 8001d46:	f040 8289 	bne.w	800225c <HAL_ADC_ConfigChannel+0x54c>
  {
    /* Regular sequence configuration */
    /* For Rank 1 to 4U */
    if (sConfig->Rank < 5U)
 8001d4a:	683b      	ldr	r3, [r7, #0]
 8001d4c:	685b      	ldr	r3, [r3, #4]
 8001d4e:	2b04      	cmp	r3, #4
 8001d50:	d81c      	bhi.n	8001d8c <HAL_ADC_ConfigChannel+0x7c>
    {
      MODIFY_REG(hadc->Instance->SQR1,
 8001d52:	687b      	ldr	r3, [r7, #4]
 8001d54:	681b      	ldr	r3, [r3, #0]
 8001d56:	6b19      	ldr	r1, [r3, #48]	; 0x30
 8001d58:	683b      	ldr	r3, [r7, #0]
 8001d5a:	685a      	ldr	r2, [r3, #4]
 8001d5c:	4613      	mov	r3, r2
 8001d5e:	005b      	lsls	r3, r3, #1
 8001d60:	4413      	add	r3, r2
 8001d62:	005b      	lsls	r3, r3, #1
 8001d64:	461a      	mov	r2, r3
 8001d66:	231f      	movs	r3, #31
 8001d68:	4093      	lsls	r3, r2
 8001d6a:	43db      	mvns	r3, r3
 8001d6c:	4019      	ands	r1, r3
 8001d6e:	683b      	ldr	r3, [r7, #0]
 8001d70:	6818      	ldr	r0, [r3, #0]
 8001d72:	683b      	ldr	r3, [r7, #0]
 8001d74:	685a      	ldr	r2, [r3, #4]
 8001d76:	4613      	mov	r3, r2
 8001d78:	005b      	lsls	r3, r3, #1
 8001d7a:	4413      	add	r3, r2
 8001d7c:	005b      	lsls	r3, r3, #1
 8001d7e:	fa00 f203 	lsl.w	r2, r0, r3
 8001d82:	687b      	ldr	r3, [r7, #4]
 8001d84:	681b      	ldr	r3, [r3, #0]
 8001d86:	430a      	orrs	r2, r1
 8001d88:	631a      	str	r2, [r3, #48]	; 0x30
 8001d8a:	e063      	b.n	8001e54 <HAL_ADC_ConfigChannel+0x144>
                 ADC_SQR1_RK(ADC_SQR2_SQ5, sConfig->Rank)    ,
                 ADC_SQR1_RK(sConfig->Channel, sConfig->Rank) );
    }
    /* For Rank 5 to 9U */
    else if (sConfig->Rank < 10U)
 8001d8c:	683b      	ldr	r3, [r7, #0]
 8001d8e:	685b      	ldr	r3, [r3, #4]
 8001d90:	2b09      	cmp	r3, #9
 8001d92:	d81e      	bhi.n	8001dd2 <HAL_ADC_ConfigChannel+0xc2>
    {
      MODIFY_REG(hadc->Instance->SQR2,
 8001d94:	687b      	ldr	r3, [r7, #4]
 8001d96:	681b      	ldr	r3, [r3, #0]
 8001d98:	6b59      	ldr	r1, [r3, #52]	; 0x34
 8001d9a:	683b      	ldr	r3, [r7, #0]
 8001d9c:	685a      	ldr	r2, [r3, #4]
 8001d9e:	4613      	mov	r3, r2
 8001da0:	005b      	lsls	r3, r3, #1
 8001da2:	4413      	add	r3, r2
 8001da4:	005b      	lsls	r3, r3, #1
 8001da6:	3b1e      	subs	r3, #30
 8001da8:	221f      	movs	r2, #31
 8001daa:	fa02 f303 	lsl.w	r3, r2, r3
 8001dae:	43db      	mvns	r3, r3
 8001db0:	4019      	ands	r1, r3
 8001db2:	683b      	ldr	r3, [r7, #0]
 8001db4:	6818      	ldr	r0, [r3, #0]
 8001db6:	683b      	ldr	r3, [r7, #0]
 8001db8:	685a      	ldr	r2, [r3, #4]
 8001dba:	4613      	mov	r3, r2
 8001dbc:	005b      	lsls	r3, r3, #1
 8001dbe:	4413      	add	r3, r2
 8001dc0:	005b      	lsls	r3, r3, #1
 8001dc2:	3b1e      	subs	r3, #30
 8001dc4:	fa00 f203 	lsl.w	r2, r0, r3
 8001dc8:	687b      	ldr	r3, [r7, #4]
 8001dca:	681b      	ldr	r3, [r3, #0]
 8001dcc:	430a      	orrs	r2, r1
 8001dce:	635a      	str	r2, [r3, #52]	; 0x34
 8001dd0:	e040      	b.n	8001e54 <HAL_ADC_ConfigChannel+0x144>
                 ADC_SQR2_RK(ADC_SQR2_SQ5, sConfig->Rank)    ,
                 ADC_SQR2_RK(sConfig->Channel, sConfig->Rank) );
    }
    /* For Rank 10 to 14U */
    else if (sConfig->Rank < 15U)
 8001dd2:	683b      	ldr	r3, [r7, #0]
 8001dd4:	685b      	ldr	r3, [r3, #4]
 8001dd6:	2b0e      	cmp	r3, #14
 8001dd8:	d81e      	bhi.n	8001e18 <HAL_ADC_ConfigChannel+0x108>
    {
      MODIFY_REG(hadc->Instance->SQR3                        ,
 8001dda:	687b      	ldr	r3, [r7, #4]
 8001ddc:	681b      	ldr	r3, [r3, #0]
 8001dde:	6b99      	ldr	r1, [r3, #56]	; 0x38
 8001de0:	683b      	ldr	r3, [r7, #0]
 8001de2:	685a      	ldr	r2, [r3, #4]
 8001de4:	4613      	mov	r3, r2
 8001de6:	005b      	lsls	r3, r3, #1
 8001de8:	4413      	add	r3, r2
 8001dea:	005b      	lsls	r3, r3, #1
 8001dec:	3b3c      	subs	r3, #60	; 0x3c
 8001dee:	221f      	movs	r2, #31
 8001df0:	fa02 f303 	lsl.w	r3, r2, r3
 8001df4:	43db      	mvns	r3, r3
 8001df6:	4019      	ands	r1, r3
 8001df8:	683b      	ldr	r3, [r7, #0]
 8001dfa:	6818      	ldr	r0, [r3, #0]
 8001dfc:	683b      	ldr	r3, [r7, #0]
 8001dfe:	685a      	ldr	r2, [r3, #4]
 8001e00:	4613      	mov	r3, r2
 8001e02:	005b      	lsls	r3, r3, #1
 8001e04:	4413      	add	r3, r2
 8001e06:	005b      	lsls	r3, r3, #1
 8001e08:	3b3c      	subs	r3, #60	; 0x3c
 8001e0a:	fa00 f203 	lsl.w	r2, r0, r3
 8001e0e:	687b      	ldr	r3, [r7, #4]
 8001e10:	681b      	ldr	r3, [r3, #0]
 8001e12:	430a      	orrs	r2, r1
 8001e14:	639a      	str	r2, [r3, #56]	; 0x38
 8001e16:	e01d      	b.n	8001e54 <HAL_ADC_ConfigChannel+0x144>
                 ADC_SQR3_RK(sConfig->Channel, sConfig->Rank) );
    }
    /* For Rank 15 to 16U */
    else
    {   
      MODIFY_REG(hadc->Instance->SQR4                        ,
 8001e18:	687b      	ldr	r3, [r7, #4]
 8001e1a:	681b      	ldr	r3, [r3, #0]
 8001e1c:	6bd9      	ldr	r1, [r3, #60]	; 0x3c
 8001e1e:	683b      	ldr	r3, [r7, #0]
 8001e20:	685a      	ldr	r2, [r3, #4]
 8001e22:	4613      	mov	r3, r2
 8001e24:	005b      	lsls	r3, r3, #1
 8001e26:	4413      	add	r3, r2
 8001e28:	005b      	lsls	r3, r3, #1
 8001e2a:	3b5a      	subs	r3, #90	; 0x5a
 8001e2c:	221f      	movs	r2, #31
 8001e2e:	fa02 f303 	lsl.w	r3, r2, r3
 8001e32:	43db      	mvns	r3, r3
 8001e34:	4019      	ands	r1, r3
 8001e36:	683b      	ldr	r3, [r7, #0]
 8001e38:	6818      	ldr	r0, [r3, #0]
 8001e3a:	683b      	ldr	r3, [r7, #0]
 8001e3c:	685a      	ldr	r2, [r3, #4]
 8001e3e:	4613      	mov	r3, r2
 8001e40:	005b      	lsls	r3, r3, #1
 8001e42:	4413      	add	r3, r2
 8001e44:	005b      	lsls	r3, r3, #1
 8001e46:	3b5a      	subs	r3, #90	; 0x5a
 8001e48:	fa00 f203 	lsl.w	r2, r0, r3
 8001e4c:	687b      	ldr	r3, [r7, #4]
 8001e4e:	681b      	ldr	r3, [r3, #0]
 8001e50:	430a      	orrs	r2, r1
 8001e52:	63da      	str	r2, [r3, #60]	; 0x3c
  /* Parameters update conditioned to ADC state:                              */
  /* Parameters that can be updated when ADC is disabled or enabled without   */
  /* conversion on going on regular group:                                    */
  /*  - Channel sampling time                                                 */
  /*  - Channel offset                                                        */
  if (ADC_IS_CONVERSION_ONGOING_REGULAR_INJECTED(hadc) == RESET)
 8001e54:	687b      	ldr	r3, [r7, #4]
 8001e56:	681b      	ldr	r3, [r3, #0]
 8001e58:	689b      	ldr	r3, [r3, #8]
 8001e5a:	f003 030c 	and.w	r3, r3, #12
 8001e5e:	2b00      	cmp	r3, #0
 8001e60:	f040 80e5 	bne.w	800202e <HAL_ADC_ConfigChannel+0x31e>
  {
    /* Channel sampling time configuration */
    /* For channels 10 to 18U */
    if (sConfig->Channel >= ADC_CHANNEL_10)
 8001e64:	683b      	ldr	r3, [r7, #0]
 8001e66:	681b      	ldr	r3, [r3, #0]
 8001e68:	2b09      	cmp	r3, #9
 8001e6a:	d91c      	bls.n	8001ea6 <HAL_ADC_ConfigChannel+0x196>
    {
      MODIFY_REG(hadc->Instance->SMPR2                             ,
 8001e6c:	687b      	ldr	r3, [r7, #4]
 8001e6e:	681b      	ldr	r3, [r3, #0]
 8001e70:	6999      	ldr	r1, [r3, #24]
 8001e72:	683b      	ldr	r3, [r7, #0]
 8001e74:	681a      	ldr	r2, [r3, #0]
 8001e76:	4613      	mov	r3, r2
 8001e78:	005b      	lsls	r3, r3, #1
 8001e7a:	4413      	add	r3, r2
 8001e7c:	3b1e      	subs	r3, #30
 8001e7e:	2207      	movs	r2, #7
 8001e80:	fa02 f303 	lsl.w	r3, r2, r3
 8001e84:	43db      	mvns	r3, r3
 8001e86:	4019      	ands	r1, r3
 8001e88:	683b      	ldr	r3, [r7, #0]
 8001e8a:	6898      	ldr	r0, [r3, #8]
 8001e8c:	683b      	ldr	r3, [r7, #0]
 8001e8e:	681a      	ldr	r2, [r3, #0]
 8001e90:	4613      	mov	r3, r2
 8001e92:	005b      	lsls	r3, r3, #1
 8001e94:	4413      	add	r3, r2
 8001e96:	3b1e      	subs	r3, #30
 8001e98:	fa00 f203 	lsl.w	r2, r0, r3
 8001e9c:	687b      	ldr	r3, [r7, #4]
 8001e9e:	681b      	ldr	r3, [r3, #0]
 8001ea0:	430a      	orrs	r2, r1
 8001ea2:	619a      	str	r2, [r3, #24]
 8001ea4:	e019      	b.n	8001eda <HAL_ADC_ConfigChannel+0x1ca>
                 ADC_SMPR2(ADC_SMPR2_SMP10, sConfig->Channel)      ,
                 ADC_SMPR2(sConfig->SamplingTime, sConfig->Channel) );
    }
    else /* For channels 1 to 9U */
    {
      MODIFY_REG(hadc->Instance->SMPR1                             ,
 8001ea6:	687b      	ldr	r3, [r7, #4]
 8001ea8:	681b      	ldr	r3, [r3, #0]
 8001eaa:	6959      	ldr	r1, [r3, #20]
 8001eac:	683b      	ldr	r3, [r7, #0]
 8001eae:	681a      	ldr	r2, [r3, #0]
 8001eb0:	4613      	mov	r3, r2
 8001eb2:	005b      	lsls	r3, r3, #1
 8001eb4:	4413      	add	r3, r2
 8001eb6:	2207      	movs	r2, #7
 8001eb8:	fa02 f303 	lsl.w	r3, r2, r3
 8001ebc:	43db      	mvns	r3, r3
 8001ebe:	4019      	ands	r1, r3
 8001ec0:	683b      	ldr	r3, [r7, #0]
 8001ec2:	6898      	ldr	r0, [r3, #8]
 8001ec4:	683b      	ldr	r3, [r7, #0]
 8001ec6:	681a      	ldr	r2, [r3, #0]
 8001ec8:	4613      	mov	r3, r2
 8001eca:	005b      	lsls	r3, r3, #1
 8001ecc:	4413      	add	r3, r2
 8001ece:	fa00 f203 	lsl.w	r2, r0, r3
 8001ed2:	687b      	ldr	r3, [r7, #4]
 8001ed4:	681b      	ldr	r3, [r3, #0]
 8001ed6:	430a      	orrs	r2, r1
 8001ed8:	615a      	str	r2, [r3, #20]
    /* Configure the offset: offset enable/disable, channel, offset value */

    /* Shift the offset in function of the selected ADC resolution. */
    /* Offset has to be left-aligned on bit 11U, the LSB (right bits) are set  */
    /* to 0.                                                                  */
    tmpOffsetShifted = ADC_OFFSET_SHIFT_RESOLUTION(hadc, sConfig->Offset);
 8001eda:	683b      	ldr	r3, [r7, #0]
 8001edc:	695a      	ldr	r2, [r3, #20]
 8001ede:	687b      	ldr	r3, [r7, #4]
 8001ee0:	681b      	ldr	r3, [r3, #0]
 8001ee2:	68db      	ldr	r3, [r3, #12]
 8001ee4:	08db      	lsrs	r3, r3, #3
 8001ee6:	f003 0303 	and.w	r3, r3, #3
 8001eea:	005b      	lsls	r3, r3, #1
 8001eec:	fa02 f303 	lsl.w	r3, r2, r3
 8001ef0:	663b      	str	r3, [r7, #96]	; 0x60
    
    /* Configure the selected offset register:                                */
    /* - Enable offset                                                        */
    /* - Set channel number                                                   */
    /* - Set offset value                                                     */
    switch (sConfig->OffsetNumber)
 8001ef2:	683b      	ldr	r3, [r7, #0]
 8001ef4:	691b      	ldr	r3, [r3, #16]
 8001ef6:	3b01      	subs	r3, #1
 8001ef8:	2b03      	cmp	r3, #3
 8001efa:	d84f      	bhi.n	8001f9c <HAL_ADC_ConfigChannel+0x28c>
 8001efc:	a201      	add	r2, pc, #4	; (adr r2, 8001f04 <HAL_ADC_ConfigChannel+0x1f4>)
 8001efe:	f852 f023 	ldr.w	pc, [r2, r3, lsl #2]
 8001f02:	bf00      	nop
 8001f04:	08001f15 	.word	0x08001f15
 8001f08:	08001f37 	.word	0x08001f37
 8001f0c:	08001f59 	.word	0x08001f59
 8001f10:	08001f7b 	.word	0x08001f7b
    {
    case ADC_OFFSET_1:
      /* Configure offset register 1U */
      MODIFY_REG(hadc->Instance->OFR1               ,
 8001f14:	687b      	ldr	r3, [r7, #4]
 8001f16:	681b      	ldr	r3, [r3, #0]
 8001f18:	6e1a      	ldr	r2, [r3, #96]	; 0x60
 8001f1a:	4b9e      	ldr	r3, [pc, #632]	; (8002194 <HAL_ADC_ConfigChannel+0x484>)
 8001f1c:	4013      	ands	r3, r2
 8001f1e:	683a      	ldr	r2, [r7, #0]
 8001f20:	6812      	ldr	r2, [r2, #0]
 8001f22:	0691      	lsls	r1, r2, #26
 8001f24:	6e3a      	ldr	r2, [r7, #96]	; 0x60
 8001f26:	430a      	orrs	r2, r1
 8001f28:	431a      	orrs	r2, r3
 8001f2a:	687b      	ldr	r3, [r7, #4]
 8001f2c:	681b      	ldr	r3, [r3, #0]
 8001f2e:	f042 4200 	orr.w	r2, r2, #2147483648	; 0x80000000
 8001f32:	661a      	str	r2, [r3, #96]	; 0x60
                 ADC_OFR1_OFFSET1_CH |
                 ADC_OFR1_OFFSET1                   ,
                 ADC_OFR1_OFFSET1_EN               |
                 ADC_OFR_CHANNEL(sConfig->Channel) |
                 tmpOffsetShifted                    );
      break;
 8001f34:	e07e      	b.n	8002034 <HAL_ADC_ConfigChannel+0x324>
    
    case ADC_OFFSET_2:
      /* Configure offset register 2U */
      MODIFY_REG(hadc->Instance->OFR2               ,
 8001f36:	687b      	ldr	r3, [r7, #4]
 8001f38:	681b      	ldr	r3, [r3, #0]
 8001f3a:	6e5a      	ldr	r2, [r3, #100]	; 0x64
 8001f3c:	4b95      	ldr	r3, [pc, #596]	; (8002194 <HAL_ADC_ConfigChannel+0x484>)
 8001f3e:	4013      	ands	r3, r2
 8001f40:	683a      	ldr	r2, [r7, #0]
 8001f42:	6812      	ldr	r2, [r2, #0]
 8001f44:	0691      	lsls	r1, r2, #26
 8001f46:	6e3a      	ldr	r2, [r7, #96]	; 0x60
 8001f48:	430a      	orrs	r2, r1
 8001f4a:	431a      	orrs	r2, r3
 8001f4c:	687b      	ldr	r3, [r7, #4]
 8001f4e:	681b      	ldr	r3, [r3, #0]
 8001f50:	f042 4200 	orr.w	r2, r2, #2147483648	; 0x80000000
 8001f54:	665a      	str	r2, [r3, #100]	; 0x64
                 ADC_OFR2_OFFSET2_CH |
                 ADC_OFR2_OFFSET2                   ,
                 ADC_OFR2_OFFSET2_EN               |
                 ADC_OFR_CHANNEL(sConfig->Channel) |
                 tmpOffsetShifted                    );
      break;
 8001f56:	e06d      	b.n	8002034 <HAL_ADC_ConfigChannel+0x324>
        
    case ADC_OFFSET_3:
      /* Configure offset register 3U */
      MODIFY_REG(hadc->Instance->OFR3               ,
 8001f58:	687b      	ldr	r3, [r7, #4]
 8001f5a:	681b      	ldr	r3, [r3, #0]
 8001f5c:	6e9a      	ldr	r2, [r3, #104]	; 0x68
 8001f5e:	4b8d      	ldr	r3, [pc, #564]	; (8002194 <HAL_ADC_ConfigChannel+0x484>)
 8001f60:	4013      	ands	r3, r2
 8001f62:	683a      	ldr	r2, [r7, #0]
 8001f64:	6812      	ldr	r2, [r2, #0]
 8001f66:	0691      	lsls	r1, r2, #26
 8001f68:	6e3a      	ldr	r2, [r7, #96]	; 0x60
 8001f6a:	430a      	orrs	r2, r1
 8001f6c:	431a      	orrs	r2, r3
 8001f6e:	687b      	ldr	r3, [r7, #4]
 8001f70:	681b      	ldr	r3, [r3, #0]
 8001f72:	f042 4200 	orr.w	r2, r2, #2147483648	; 0x80000000
 8001f76:	669a      	str	r2, [r3, #104]	; 0x68
                 ADC_OFR3_OFFSET3_CH |
                 ADC_OFR3_OFFSET3                   ,
                 ADC_OFR3_OFFSET3_EN               |
                 ADC_OFR_CHANNEL(sConfig->Channel) |
                 tmpOffsetShifted                    );
      break;
 8001f78:	e05c      	b.n	8002034 <HAL_ADC_ConfigChannel+0x324>
    
    case ADC_OFFSET_4:
      /* Configure offset register 4U */
      MODIFY_REG(hadc->Instance->OFR4               ,
 8001f7a:	687b      	ldr	r3, [r7, #4]
 8001f7c:	681b      	ldr	r3, [r3, #0]
 8001f7e:	6eda      	ldr	r2, [r3, #108]	; 0x6c
 8001f80:	4b84      	ldr	r3, [pc, #528]	; (8002194 <HAL_ADC_ConfigChannel+0x484>)
 8001f82:	4013      	ands	r3, r2
 8001f84:	683a      	ldr	r2, [r7, #0]
 8001f86:	6812      	ldr	r2, [r2, #0]
 8001f88:	0691      	lsls	r1, r2, #26
 8001f8a:	6e3a      	ldr	r2, [r7, #96]	; 0x60
 8001f8c:	430a      	orrs	r2, r1
 8001f8e:	431a      	orrs	r2, r3
 8001f90:	687b      	ldr	r3, [r7, #4]
 8001f92:	681b      	ldr	r3, [r3, #0]
 8001f94:	f042 4200 	orr.w	r2, r2, #2147483648	; 0x80000000
 8001f98:	66da      	str	r2, [r3, #108]	; 0x6c
                 ADC_OFR4_OFFSET4_CH |
                 ADC_OFR4_OFFSET4                   ,
                 ADC_OFR4_OFFSET4_EN               |
                 ADC_OFR_CHANNEL(sConfig->Channel) |
                 tmpOffsetShifted                    );
      break;
 8001f9a:	e04b      	b.n	8002034 <HAL_ADC_ConfigChannel+0x324>
    
    /* Case ADC_OFFSET_NONE */
    default :
    /* Scan OFR1, OFR2, OFR3, OFR4 to check if the selected channel is        */
    /* enabled. If this is the case, offset OFRx is disabled.                 */
      if (((hadc->Instance->OFR1) & ADC_OFR1_OFFSET1_CH) == ADC_OFR_CHANNEL(sConfig->Channel))
 8001f9c:	687b      	ldr	r3, [r7, #4]
 8001f9e:	681b      	ldr	r3, [r3, #0]
 8001fa0:	6e1b      	ldr	r3, [r3, #96]	; 0x60
 8001fa2:	f003 42f8 	and.w	r2, r3, #2080374784	; 0x7c000000
 8001fa6:	683b      	ldr	r3, [r7, #0]
 8001fa8:	681b      	ldr	r3, [r3, #0]
 8001faa:	069b      	lsls	r3, r3, #26
 8001fac:	429a      	cmp	r2, r3
 8001fae:	d107      	bne.n	8001fc0 <HAL_ADC_ConfigChannel+0x2b0>
      {
        /* Disable offset OFR1*/
        CLEAR_BIT(hadc->Instance->OFR1, ADC_OFR1_OFFSET1_EN);
 8001fb0:	687b      	ldr	r3, [r7, #4]
 8001fb2:	681b      	ldr	r3, [r3, #0]
 8001fb4:	6e1a      	ldr	r2, [r3, #96]	; 0x60
 8001fb6:	687b      	ldr	r3, [r7, #4]
 8001fb8:	681b      	ldr	r3, [r3, #0]
 8001fba:	f022 4200 	bic.w	r2, r2, #2147483648	; 0x80000000
 8001fbe:	661a      	str	r2, [r3, #96]	; 0x60
      }
      if (((hadc->Instance->OFR2) & ADC_OFR2_OFFSET2_CH) == ADC_OFR_CHANNEL(sConfig->Channel))
 8001fc0:	687b      	ldr	r3, [r7, #4]
 8001fc2:	681b      	ldr	r3, [r3, #0]
 8001fc4:	6e5b      	ldr	r3, [r3, #100]	; 0x64
 8001fc6:	f003 42f8 	and.w	r2, r3, #2080374784	; 0x7c000000
 8001fca:	683b      	ldr	r3, [r7, #0]
 8001fcc:	681b      	ldr	r3, [r3, #0]
 8001fce:	069b      	lsls	r3, r3, #26
 8001fd0:	429a      	cmp	r2, r3
 8001fd2:	d107      	bne.n	8001fe4 <HAL_ADC_ConfigChannel+0x2d4>
      {
        /* Disable offset OFR2*/
        CLEAR_BIT(hadc->Instance->OFR2, ADC_OFR2_OFFSET2_EN); 
 8001fd4:	687b      	ldr	r3, [r7, #4]
 8001fd6:	681b      	ldr	r3, [r3, #0]
 8001fd8:	6e5a      	ldr	r2, [r3, #100]	; 0x64
 8001fda:	687b      	ldr	r3, [r7, #4]
 8001fdc:	681b      	ldr	r3, [r3, #0]
 8001fde:	f022 4200 	bic.w	r2, r2, #2147483648	; 0x80000000
 8001fe2:	665a      	str	r2, [r3, #100]	; 0x64
      }
      if (((hadc->Instance->OFR3) & ADC_OFR3_OFFSET3_CH) == ADC_OFR_CHANNEL(sConfig->Channel))
 8001fe4:	687b      	ldr	r3, [r7, #4]
 8001fe6:	681b      	ldr	r3, [r3, #0]
 8001fe8:	6e9b      	ldr	r3, [r3, #104]	; 0x68
 8001fea:	f003 42f8 	and.w	r2, r3, #2080374784	; 0x7c000000
 8001fee:	683b      	ldr	r3, [r7, #0]
 8001ff0:	681b      	ldr	r3, [r3, #0]
 8001ff2:	069b      	lsls	r3, r3, #26
 8001ff4:	429a      	cmp	r2, r3
 8001ff6:	d107      	bne.n	8002008 <HAL_ADC_ConfigChannel+0x2f8>
      {
        /* Disable offset OFR3*/
        CLEAR_BIT(hadc->Instance->OFR3, ADC_OFR3_OFFSET3_EN);
 8001ff8:	687b      	ldr	r3, [r7, #4]
 8001ffa:	681b      	ldr	r3, [r3, #0]
 8001ffc:	6e9a      	ldr	r2, [r3, #104]	; 0x68
 8001ffe:	687b      	ldr	r3, [r7, #4]
 8002000:	681b      	ldr	r3, [r3, #0]
 8002002:	f022 4200 	bic.w	r2, r2, #2147483648	; 0x80000000
 8002006:	669a      	str	r2, [r3, #104]	; 0x68
      }
      if (((hadc->Instance->OFR4) & ADC_OFR4_OFFSET4_CH) == ADC_OFR_CHANNEL(sConfig->Channel))
 8002008:	687b      	ldr	r3, [r7, #4]
 800200a:	681b      	ldr	r3, [r3, #0]
 800200c:	6edb      	ldr	r3, [r3, #108]	; 0x6c
 800200e:	f003 42f8 	and.w	r2, r3, #2080374784	; 0x7c000000
 8002012:	683b      	ldr	r3, [r7, #0]
 8002014:	681b      	ldr	r3, [r3, #0]
 8002016:	069b      	lsls	r3, r3, #26
 8002018:	429a      	cmp	r2, r3
 800201a:	d10a      	bne.n	8002032 <HAL_ADC_ConfigChannel+0x322>
      {
        /* Disable offset OFR4*/
        CLEAR_BIT(hadc->Instance->OFR4, ADC_OFR4_OFFSET4_EN);
 800201c:	687b      	ldr	r3, [r7, #4]
 800201e:	681b      	ldr	r3, [r3, #0]
 8002020:	6eda      	ldr	r2, [r3, #108]	; 0x6c
 8002022:	687b      	ldr	r3, [r7, #4]
 8002024:	681b      	ldr	r3, [r3, #0]
 8002026:	f022 4200 	bic.w	r2, r2, #2147483648	; 0x80000000
 800202a:	66da      	str	r2, [r3, #108]	; 0x6c
      }
      break;
 800202c:	e001      	b.n	8002032 <HAL_ADC_ConfigChannel+0x322>
    }

  }
 800202e:	bf00      	nop
 8002030:	e000      	b.n	8002034 <HAL_ADC_ConfigChannel+0x324>
      break;
 8002032:	bf00      	nop

  /* Parameters update conditioned to ADC state:                              */
  /* Parameters that can be updated only when ADC is disabled:                */
  /*  - Single or differential mode                                           */
  /*  - Internal measurement channels: Vbat/VrefInt/TempSensor                */
  if (ADC_IS_ENABLE(hadc) == RESET)
 8002034:	687b      	ldr	r3, [r7, #4]
 8002036:	681b      	ldr	r3, [r3, #0]
 8002038:	689b      	ldr	r3, [r3, #8]
 800203a:	f003 0303 	and.w	r3, r3, #3
 800203e:	2b01      	cmp	r3, #1
 8002040:	d108      	bne.n	8002054 <HAL_ADC_ConfigChannel+0x344>
 8002042:	687b      	ldr	r3, [r7, #4]
 8002044:	681b      	ldr	r3, [r3, #0]
 8002046:	681b      	ldr	r3, [r3, #0]
 8002048:	f003 0301 	and.w	r3, r3, #1
 800204c:	2b01      	cmp	r3, #1
 800204e:	d101      	bne.n	8002054 <HAL_ADC_ConfigChannel+0x344>
 8002050:	2301      	movs	r3, #1
 8002052:	e000      	b.n	8002056 <HAL_ADC_ConfigChannel+0x346>
 8002054:	2300      	movs	r3, #0
 8002056:	2b00      	cmp	r3, #0
 8002058:	f040 810b 	bne.w	8002272 <HAL_ADC_ConfigChannel+0x562>
  {
    /* Configuration of differential mode */
    if (sConfig->SingleDiff != ADC_DIFFERENTIAL_ENDED)
 800205c:	683b      	ldr	r3, [r7, #0]
 800205e:	68db      	ldr	r3, [r3, #12]
 8002060:	2b01      	cmp	r3, #1
 8002062:	d00f      	beq.n	8002084 <HAL_ADC_ConfigChannel+0x374>
    {
      /* Disable differential mode (default mode: single-ended) */
      CLEAR_BIT(hadc->Instance->DIFSEL, ADC_DIFSEL_CHANNEL(sConfig->Channel));
 8002064:	687b      	ldr	r3, [r7, #4]
 8002066:	681b      	ldr	r3, [r3, #0]
 8002068:	f8d3 10b0 	ldr.w	r1, [r3, #176]	; 0xb0
 800206c:	683b      	ldr	r3, [r7, #0]
 800206e:	681b      	ldr	r3, [r3, #0]
 8002070:	2201      	movs	r2, #1
 8002072:	fa02 f303 	lsl.w	r3, r2, r3
 8002076:	43da      	mvns	r2, r3
 8002078:	687b      	ldr	r3, [r7, #4]
 800207a:	681b      	ldr	r3, [r3, #0]
 800207c:	400a      	ands	r2, r1
 800207e:	f8c3 20b0 	str.w	r2, [r3, #176]	; 0xb0
 8002082:	e049      	b.n	8002118 <HAL_ADC_ConfigChannel+0x408>
    }
    else
    {
      /* Enable differential mode */
      SET_BIT(hadc->Instance->DIFSEL, ADC_DIFSEL_CHANNEL(sConfig->Channel));
 8002084:	687b      	ldr	r3, [r7, #4]
 8002086:	681b      	ldr	r3, [r3, #0]
 8002088:	f8d3 10b0 	ldr.w	r1, [r3, #176]	; 0xb0
 800208c:	683b      	ldr	r3, [r7, #0]
 800208e:	681b      	ldr	r3, [r3, #0]
 8002090:	2201      	movs	r2, #1
 8002092:	409a      	lsls	r2, r3
 8002094:	687b      	ldr	r3, [r7, #4]
 8002096:	681b      	ldr	r3, [r3, #0]
 8002098:	430a      	orrs	r2, r1
 800209a:	f8c3 20b0 	str.w	r2, [r3, #176]	; 0xb0
      
      /* Channel sampling time configuration (channel ADC_INx +1              */
      /* corresponding to differential negative input).                       */
      /* For channels 10 to 18U */
      if (sConfig->Channel >= ADC_CHANNEL_10)
 800209e:	683b      	ldr	r3, [r7, #0]
 80020a0:	681b      	ldr	r3, [r3, #0]
 80020a2:	2b09      	cmp	r3, #9
 80020a4:	d91c      	bls.n	80020e0 <HAL_ADC_ConfigChannel+0x3d0>
      {
        MODIFY_REG(hadc->Instance->SMPR2,
 80020a6:	687b      	ldr	r3, [r7, #4]
 80020a8:	681b      	ldr	r3, [r3, #0]
 80020aa:	6999      	ldr	r1, [r3, #24]
 80020ac:	683b      	ldr	r3, [r7, #0]
 80020ae:	681a      	ldr	r2, [r3, #0]
 80020b0:	4613      	mov	r3, r2
 80020b2:	005b      	lsls	r3, r3, #1
 80020b4:	4413      	add	r3, r2
 80020b6:	3b1b      	subs	r3, #27
 80020b8:	2207      	movs	r2, #7
 80020ba:	fa02 f303 	lsl.w	r3, r2, r3
 80020be:	43db      	mvns	r3, r3
 80020c0:	4019      	ands	r1, r3
 80020c2:	683b      	ldr	r3, [r7, #0]
 80020c4:	6898      	ldr	r0, [r3, #8]
 80020c6:	683b      	ldr	r3, [r7, #0]
 80020c8:	681a      	ldr	r2, [r3, #0]
 80020ca:	4613      	mov	r3, r2
 80020cc:	005b      	lsls	r3, r3, #1
 80020ce:	4413      	add	r3, r2
 80020d0:	3b1b      	subs	r3, #27
 80020d2:	fa00 f203 	lsl.w	r2, r0, r3
 80020d6:	687b      	ldr	r3, [r7, #4]
 80020d8:	681b      	ldr	r3, [r3, #0]
 80020da:	430a      	orrs	r2, r1
 80020dc:	619a      	str	r2, [r3, #24]
 80020de:	e01b      	b.n	8002118 <HAL_ADC_ConfigChannel+0x408>
                   ADC_SMPR2(ADC_SMPR2_SMP10, sConfig->Channel +1U)      ,
                   ADC_SMPR2(sConfig->SamplingTime, sConfig->Channel +1U) );
      }
      else /* For channels 1 to 9U */
      {
        MODIFY_REG(hadc->Instance->SMPR1,
 80020e0:	687b      	ldr	r3, [r7, #4]
 80020e2:	681b      	ldr	r3, [r3, #0]
 80020e4:	6959      	ldr	r1, [r3, #20]
 80020e6:	683b      	ldr	r3, [r7, #0]
 80020e8:	681b      	ldr	r3, [r3, #0]
 80020ea:	1c5a      	adds	r2, r3, #1
 80020ec:	4613      	mov	r3, r2
 80020ee:	005b      	lsls	r3, r3, #1
 80020f0:	4413      	add	r3, r2
 80020f2:	2207      	movs	r2, #7
 80020f4:	fa02 f303 	lsl.w	r3, r2, r3
 80020f8:	43db      	mvns	r3, r3
 80020fa:	4019      	ands	r1, r3
 80020fc:	683b      	ldr	r3, [r7, #0]
 80020fe:	6898      	ldr	r0, [r3, #8]
 8002100:	683b      	ldr	r3, [r7, #0]
 8002102:	681b      	ldr	r3, [r3, #0]
 8002104:	1c5a      	adds	r2, r3, #1
 8002106:	4613      	mov	r3, r2
 8002108:	005b      	lsls	r3, r3, #1
 800210a:	4413      	add	r3, r2
 800210c:	fa00 f203 	lsl.w	r2, r0, r3
 8002110:	687b      	ldr	r3, [r7, #4]
 8002112:	681b      	ldr	r3, [r3, #0]
 8002114:	430a      	orrs	r2, r1
 8002116:	615a      	str	r2, [r3, #20]
       
    /* Configuration of common ADC parameters                                 */
    /* Pointer to the common control register to which is belonging hadc      */
    /* (Depending on STM32F3 product, there may be up to 4 ADC and 2 common   */
    /* control registers)                                                     */
    tmpADC_Common = ADC_COMMON_REGISTER(hadc);
 8002118:	4b1f      	ldr	r3, [pc, #124]	; (8002198 <HAL_ADC_ConfigChannel+0x488>)
 800211a:	65fb      	str	r3, [r7, #92]	; 0x5c
  
    /* If the requested internal measurement path has already been enabled,   */
    /* bypass the configuration processing.                                   */
    if (( (sConfig->Channel == ADC_CHANNEL_TEMPSENSOR) &&
 800211c:	683b      	ldr	r3, [r7, #0]
 800211e:	681b      	ldr	r3, [r3, #0]
 8002120:	2b10      	cmp	r3, #16
 8002122:	d105      	bne.n	8002130 <HAL_ADC_ConfigChannel+0x420>
          (HAL_IS_BIT_CLR(tmpADC_Common->CCR, ADC_CCR_TSEN))            ) ||
 8002124:	6dfb      	ldr	r3, [r7, #92]	; 0x5c
 8002126:	689b      	ldr	r3, [r3, #8]
 8002128:	f403 0300 	and.w	r3, r3, #8388608	; 0x800000
    if (( (sConfig->Channel == ADC_CHANNEL_TEMPSENSOR) &&
 800212c:	2b00      	cmp	r3, #0
 800212e:	d015      	beq.n	800215c <HAL_ADC_ConfigChannel+0x44c>
        ( (sConfig->Channel == ADC_CHANNEL_VBAT)       &&
 8002130:	683b      	ldr	r3, [r7, #0]
 8002132:	681b      	ldr	r3, [r3, #0]
          (HAL_IS_BIT_CLR(tmpADC_Common->CCR, ADC_CCR_TSEN))            ) ||
 8002134:	2b11      	cmp	r3, #17
 8002136:	d105      	bne.n	8002144 <HAL_ADC_ConfigChannel+0x434>
          (HAL_IS_BIT_CLR(tmpADC_Common->CCR, ADC_CCR_VBATEN))          ) ||
 8002138:	6dfb      	ldr	r3, [r7, #92]	; 0x5c
 800213a:	689b      	ldr	r3, [r3, #8]
 800213c:	f003 7380 	and.w	r3, r3, #16777216	; 0x1000000
        ( (sConfig->Channel == ADC_CHANNEL_VBAT)       &&
 8002140:	2b00      	cmp	r3, #0
 8002142:	d00b      	beq.n	800215c <HAL_ADC_ConfigChannel+0x44c>
        ( (sConfig->Channel == ADC_CHANNEL_VREFINT)    &&
 8002144:	683b      	ldr	r3, [r7, #0]
 8002146:	681b      	ldr	r3, [r3, #0]
          (HAL_IS_BIT_CLR(tmpADC_Common->CCR, ADC_CCR_VBATEN))          ) ||
 8002148:	2b12      	cmp	r3, #18
 800214a:	f040 8092 	bne.w	8002272 <HAL_ADC_ConfigChannel+0x562>
          (HAL_IS_BIT_CLR(tmpADC_Common->CCR, ADC_CCR_VREFEN)))
 800214e:	6dfb      	ldr	r3, [r7, #92]	; 0x5c
 8002150:	689b      	ldr	r3, [r3, #8]
 8002152:	f403 0380 	and.w	r3, r3, #4194304	; 0x400000
        ( (sConfig->Channel == ADC_CHANNEL_VREFINT)    &&
 8002156:	2b00      	cmp	r3, #0
 8002158:	f040 808b 	bne.w	8002272 <HAL_ADC_ConfigChannel+0x562>
       )
    {
      /* Configuration of common ADC parameters (continuation)                */
      /* Set handle of the other ADC sharing the same common register         */
      ADC_COMMON_ADC_OTHER(hadc, &tmphadcSharingSameCommonRegister);
 800215c:	687b      	ldr	r3, [r7, #4]
 800215e:	681b      	ldr	r3, [r3, #0]
 8002160:	f1b3 4fa0 	cmp.w	r3, #1342177280	; 0x50000000
 8002164:	d102      	bne.n	800216c <HAL_ADC_ConfigChannel+0x45c>
 8002166:	4b0d      	ldr	r3, [pc, #52]	; (800219c <HAL_ADC_ConfigChannel+0x48c>)
 8002168:	60fb      	str	r3, [r7, #12]
 800216a:	e002      	b.n	8002172 <HAL_ADC_ConfigChannel+0x462>
 800216c:	f04f 43a0 	mov.w	r3, #1342177280	; 0x50000000
 8002170:	60fb      	str	r3, [r7, #12]
      
      /* Software is allowed to change common parameters only when all ADCs   */
      /* of the common group are disabled.                                    */
      if ((ADC_IS_ENABLE(hadc) == RESET)                                    &&
 8002172:	687b      	ldr	r3, [r7, #4]
 8002174:	681b      	ldr	r3, [r3, #0]
 8002176:	689b      	ldr	r3, [r3, #8]
 8002178:	f003 0303 	and.w	r3, r3, #3
 800217c:	2b01      	cmp	r3, #1
 800217e:	d10f      	bne.n	80021a0 <HAL_ADC_ConfigChannel+0x490>
 8002180:	687b      	ldr	r3, [r7, #4]
 8002182:	681b      	ldr	r3, [r3, #0]
 8002184:	681b      	ldr	r3, [r3, #0]
 8002186:	f003 0301 	and.w	r3, r3, #1
 800218a:	2b01      	cmp	r3, #1
 800218c:	d108      	bne.n	80021a0 <HAL_ADC_ConfigChannel+0x490>
 800218e:	2301      	movs	r3, #1
 8002190:	e007      	b.n	80021a2 <HAL_ADC_ConfigChannel+0x492>
 8002192:	bf00      	nop
 8002194:	83fff000 	.word	0x83fff000
 8002198:	50000300 	.word	0x50000300
 800219c:	50000100 	.word	0x50000100
 80021a0:	2300      	movs	r3, #0
 80021a2:	2b00      	cmp	r3, #0
 80021a4:	d150      	bne.n	8002248 <HAL_ADC_ConfigChannel+0x538>
          ( (tmphadcSharingSameCommonRegister.Instance == NULL)         ||
 80021a6:	68fb      	ldr	r3, [r7, #12]
      if ((ADC_IS_ENABLE(hadc) == RESET)                                    &&
 80021a8:	2b00      	cmp	r3, #0
 80021aa:	d010      	beq.n	80021ce <HAL_ADC_ConfigChannel+0x4be>
            (ADC_IS_ENABLE(&tmphadcSharingSameCommonRegister) == RESET)   )   )
 80021ac:	68fb      	ldr	r3, [r7, #12]
 80021ae:	689b      	ldr	r3, [r3, #8]
 80021b0:	f003 0303 	and.w	r3, r3, #3
 80021b4:	2b01      	cmp	r3, #1
 80021b6:	d107      	bne.n	80021c8 <HAL_ADC_ConfigChannel+0x4b8>
 80021b8:	68fb      	ldr	r3, [r7, #12]
 80021ba:	681b      	ldr	r3, [r3, #0]
 80021bc:	f003 0301 	and.w	r3, r3, #1
 80021c0:	2b01      	cmp	r3, #1
 80021c2:	d101      	bne.n	80021c8 <HAL_ADC_ConfigChannel+0x4b8>
 80021c4:	2301      	movs	r3, #1
 80021c6:	e000      	b.n	80021ca <HAL_ADC_ConfigChannel+0x4ba>
 80021c8:	2300      	movs	r3, #0
          ( (tmphadcSharingSameCommonRegister.Instance == NULL)         ||
 80021ca:	2b00      	cmp	r3, #0
 80021cc:	d13c      	bne.n	8002248 <HAL_ADC_ConfigChannel+0x538>
      {
        /* If Channel_16 is selected, enable Temp. sensor measurement path    */
        /* Note: Temp. sensor internal channels available on ADC1 only        */
        if ((sConfig->Channel == ADC_CHANNEL_TEMPSENSOR) && (hadc->Instance == ADC1))
 80021ce:	683b      	ldr	r3, [r7, #0]
 80021d0:	681b      	ldr	r3, [r3, #0]
 80021d2:	2b10      	cmp	r3, #16
 80021d4:	d11d      	bne.n	8002212 <HAL_ADC_ConfigChannel+0x502>
 80021d6:	687b      	ldr	r3, [r7, #4]
 80021d8:	681b      	ldr	r3, [r3, #0]
 80021da:	f1b3 4fa0 	cmp.w	r3, #1342177280	; 0x50000000
 80021de:	d118      	bne.n	8002212 <HAL_ADC_ConfigChannel+0x502>
        {
          SET_BIT(tmpADC_Common->CCR, ADC_CCR_TSEN);
 80021e0:	6dfb      	ldr	r3, [r7, #92]	; 0x5c
 80021e2:	689b      	ldr	r3, [r3, #8]
 80021e4:	f443 0200 	orr.w	r2, r3, #8388608	; 0x800000
 80021e8:	6dfb      	ldr	r3, [r7, #92]	; 0x5c
 80021ea:	609a      	str	r2, [r3, #8]
          
          /* Delay for temperature sensor stabilization time */
          /* Compute number of CPU cycles to wait for */
          wait_loop_index = (ADC_TEMPSENSOR_DELAY_US * (SystemCoreClock / 1000000U));
 80021ec:	4b27      	ldr	r3, [pc, #156]	; (800228c <HAL_ADC_ConfigChannel+0x57c>)
 80021ee:	681b      	ldr	r3, [r3, #0]
 80021f0:	4a27      	ldr	r2, [pc, #156]	; (8002290 <HAL_ADC_ConfigChannel+0x580>)
 80021f2:	fba2 2303 	umull	r2, r3, r2, r3
 80021f6:	0c9a      	lsrs	r2, r3, #18
 80021f8:	4613      	mov	r3, r2
 80021fa:	009b      	lsls	r3, r3, #2
 80021fc:	4413      	add	r3, r2
 80021fe:	005b      	lsls	r3, r3, #1
 8002200:	60bb      	str	r3, [r7, #8]
          while(wait_loop_index != 0U)
 8002202:	e002      	b.n	800220a <HAL_ADC_ConfigChannel+0x4fa>
          {
            wait_loop_index--;
 8002204:	68bb      	ldr	r3, [r7, #8]
 8002206:	3b01      	subs	r3, #1
 8002208:	60bb      	str	r3, [r7, #8]
          while(wait_loop_index != 0U)
 800220a:	68bb      	ldr	r3, [r7, #8]
 800220c:	2b00      	cmp	r3, #0
 800220e:	d1f9      	bne.n	8002204 <HAL_ADC_ConfigChannel+0x4f4>
        if ((sConfig->Channel == ADC_CHANNEL_TEMPSENSOR) && (hadc->Instance == ADC1))
 8002210:	e02e      	b.n	8002270 <HAL_ADC_ConfigChannel+0x560>
          }
        }
        /* If Channel_17 is selected, enable VBAT measurement path            */
        /* Note: VBAT internal channels available on ADC1 only                */
        else if ((sConfig->Channel == ADC_CHANNEL_VBAT) && (hadc->Instance == ADC1))
 8002212:	683b      	ldr	r3, [r7, #0]
 8002214:	681b      	ldr	r3, [r3, #0]
 8002216:	2b11      	cmp	r3, #17
 8002218:	d10b      	bne.n	8002232 <HAL_ADC_ConfigChannel+0x522>
 800221a:	687b      	ldr	r3, [r7, #4]
 800221c:	681b      	ldr	r3, [r3, #0]
 800221e:	f1b3 4fa0 	cmp.w	r3, #1342177280	; 0x50000000
 8002222:	d106      	bne.n	8002232 <HAL_ADC_ConfigChannel+0x522>
        {
          SET_BIT(tmpADC_Common->CCR, ADC_CCR_VBATEN);
 8002224:	6dfb      	ldr	r3, [r7, #92]	; 0x5c
 8002226:	689b      	ldr	r3, [r3, #8]
 8002228:	f043 7280 	orr.w	r2, r3, #16777216	; 0x1000000
 800222c:	6dfb      	ldr	r3, [r7, #92]	; 0x5c
 800222e:	609a      	str	r2, [r3, #8]
        if ((sConfig->Channel == ADC_CHANNEL_TEMPSENSOR) && (hadc->Instance == ADC1))
 8002230:	e01e      	b.n	8002270 <HAL_ADC_ConfigChannel+0x560>
        }
        /* If Channel_18 is selected, enable VREFINT measurement path         */
        /* Note: VrefInt internal channels available on all ADCs, but only    */
        /*       one ADC is allowed to be connected to VrefInt at the same    */
        /*       time.                                                        */
        else if (sConfig->Channel == ADC_CHANNEL_VREFINT)
 8002232:	683b      	ldr	r3, [r7, #0]
 8002234:	681b      	ldr	r3, [r3, #0]
 8002236:	2b12      	cmp	r3, #18
 8002238:	d11a      	bne.n	8002270 <HAL_ADC_ConfigChannel+0x560>
        {
          SET_BIT(tmpADC_Common->CCR, ADC_CCR_VREFEN);
 800223a:	6dfb      	ldr	r3, [r7, #92]	; 0x5c
 800223c:	689b      	ldr	r3, [r3, #8]
 800223e:	f443 0280 	orr.w	r2, r3, #4194304	; 0x400000
 8002242:	6dfb      	ldr	r3, [r7, #92]	; 0x5c
 8002244:	609a      	str	r2, [r3, #8]
        if ((sConfig->Channel == ADC_CHANNEL_TEMPSENSOR) && (hadc->Instance == ADC1))
 8002246:	e013      	b.n	8002270 <HAL_ADC_ConfigChannel+0x560>
      /* enabled and other ADC of the common group are enabled, internal      */
      /* measurement paths cannot be enabled.                                 */
      else  
      {
        /* Update ADC state machine to error */
        SET_BIT(hadc->State, HAL_ADC_STATE_ERROR_CONFIG);
 8002248:	687b      	ldr	r3, [r7, #4]
 800224a:	6c1b      	ldr	r3, [r3, #64]	; 0x40
 800224c:	f043 0220 	orr.w	r2, r3, #32
 8002250:	687b      	ldr	r3, [r7, #4]
 8002252:	641a      	str	r2, [r3, #64]	; 0x40
        
        tmp_hal_status = HAL_ERROR;
 8002254:	2301      	movs	r3, #1
 8002256:	f887 3067 	strb.w	r3, [r7, #103]	; 0x67
 800225a:	e00a      	b.n	8002272 <HAL_ADC_ConfigChannel+0x562>
  /* channel could be done on neither of the channel configuration structure  */
